:020000040000FA
:060000000A128A110C280F
:10000800FE00030EF1000A08F2000A128A11EF2B13
:100018000A128A110F2883134E30FD000430FE00A7
:100028001E30FF00203084000A128A1124250A128B
:100038008A11D901DA01DB01DC01DD01DE01DF0112
:10004800E001E101E201F801F901FA0183010A1274
:100058008A112E29F600831203139F183428352895
:100068002529EE287603031D3A283B283E28C3306D
:100078009F0525291F08C33904389F002529023008
:100088007606031D482849284C28C3309F05252992
:100098001F08C33908389F00252903307606031D39
:1000A800562857285A28C3309F0525291F08C339C1
:1000B8000C389F00252904307606031D642865281E
:1000C8006828C3309F0525291F08C33910389F00A9
:1000D800252905307606031D722873287628C33033
:1000E8009F0525291F08C33914389F002529063084
:1000F8007606031D802881288428C3309F0525297A
:100108001F08C33918389F00252907307606031DB4
:100118008E288F289228C3309F0525291F08C339A8
:100128001C389F00252908307606031D9C289D2829
:10013800A028C3309F0525291F08C33920389F00F0
:10014800252909307606031DAA28AB28AE28C33016
:100158009F0525291F08C33924389F0025290A30FF
:100168007606031DB828B928BC28C3309F05252961
:100178001F08C33928389F0025290B307606031D30
:10018800C628C728CA28C3309F0525291F08C33990
:100198002C389F0025290C307606031DD428D52835
:1001A800D828C3309F0525291F08C33930389F0038
:1001B80025290D307606031DE228E328E628C330FA
:1001C8009F0525291F08C33934389F002529C330C6
:1001D8009F0525291F0CF300730C0F39F400F50156
:1001E8007508003A0319F92825297408003A0319F3
:1001F8003628013A03194328033A03195128013ACA
:1002080003195F28073A03196D28013A03197B2857
:10021800033A03198928013A031997280F3A031951
:10022800A528013A0319B328033A0319C128013A4A
:100238000319CF28073A0319DD28013A0319EB28D7
:1002480025293130F300F30B27292A2983120313B8
:100258009F1408000A128A11AE230A128A110A1280
:100268008A1114230A128A1102300A128A112E20C6
:100278000A128A110A128A1133250A128A11F70101
:10028800F70A01300A128A11BC220A128A110130B7
:100298000A128A114C240A128A11831203135E0867
:1002A8000A128A1155220A128A11F701F70A023036
:1002B8000A128A11BC220A128A1178080A128A11B3
:1002C800B9240A128A1179080A128A11B9240A1261
:1002D8008A117A080A128A11B9240A128A1112306C
:1002E8000A128A114C240A128A11831203135D0818
:1002F8000A128A1155220A128A1178080A128A11DA
:10030800B9240A128A1179080A128A11B9240A1220
:100318008A117A080A128A11B9240A128A11AC2998
:100328000130D7005708D9070C1E9B299C29A22900
:100338005908203E84008313000899001430831262
:100348000313D8007930D700D70BA829D80BA829D0
:100358003030831203135902031CB329B42994299A
:100368000C1EB729B829BA297808990014308312C5
:100378000313D8007930D700D70BC029D80BC02970
:10038800831203130C1EC929CA29CC29790899009C
:10039800143083120313D8007930D700D70BD22931
:1003A800D80BD229831203130C1EDB29DC29DE2982
:1003B8007A089900823083120313D800DD30D70001
:1003C800D70BE429D80BE42938290A128A110C28FA
:1003D80083120313CF01F41FF229F329FA29F30931
:1003E800F409F30A0319F40ACF01CF0AF61FFD290D
:1003F800FE29072AF509F609F50A0319F60A013054
:10040800F7007708CF06D001D101730874040319E7
:100418000E2A0F2A462ACE01CE0A1D2A01300310C1
:10042800F30DF40DFF3E031D132A0130F700770882
:10043800CE07F41F202A212A122A01300310D00DDA
:10044800D10DFF3E031D222A74087602031D2E2AB1
:1004580073087502031C312A322A392A7308F502F7
:100468007408031CF603F602501401300310F40C50
:10047800F30CFF3E031D3A2A0130CE02031D452A24
:10048800462A212A4F0803194A2A4B2A502AD009FA
:10049800D109D00A0319D10A5108F4005008F30011
:1004A800080083120313D5005508D2005208D6005D
:1004B8006430F3000030F4005608D200D30152082B
:1004C800F5005308F6000A128A11EC210A128A1163
:1004D800730883120313D4005408F8009C30D20028
:1004E8005208F30078080A128A110B250A128A1199
:1004F800831203135607D3005308D6000A30F300BB
:100508000030F4005608D200D3015208F500530811
:10051800F6000A128A11EC210A128A117308831252
:100528000313D4005408F900F630D2005208F3003F
:1005380079080A128A110B250A128A1183120313E9
:100548005607D3005308D6005608D2005208FA00BE
:100558007808303ED2005208F8007908303ED200C0
:100568005208F9007A08303ED2005208FA00080012
:1005780083120313D0005003031DC32AC42AE92A97
:1005880077087F3ECE004E08D3005308CE000430D3
:100598000310CE0CFF3E031DCC2A4E08CF004F0897
:1005A800D10053080F39CE004E08D20051080A1264
:1005B8008A11F1240A128A118312031352080A12AB
:1005C8008A11F1240A128A11132B02305006031DD6
:1005D800EE2AEF2A132B7708BF3ECE004E08D30031
:1005E8005308CE0004300310CE0CFF3E031DF72A3B
:1005F8004E08CF004F08D1005308F039CE004E08FE
:10060800D20051080A128A11F1240A128A1183129F
:10061800031352080A128A11F1240A128A110800D7
:1006280000300A128A1140250A128A111A308312E0
:100638000313CF00F730CE00CE0B202BCF0B202B8F
:10064800252B30300A128A11F1240A128A11073038
:1006580083120313CF007C30CE00CE0B312BCF0B8F
:10066800312B000030300A128A11F1240A128A1143
:10067800413083120313CE00CE0B402B432B303076
:100688000A128A11F1240A128A113C300A128A11BC
:10069800F1240A128A1108300A128A11F1240A1266
:1006A8008A1101300A128A11F1240A128A110630BD
:1006B8000A128A11F1240A128A110800F500831619
:1006C80003130F148B2B0F168F160F17AD2B0F124A
:1006D8008F160F17AD2B0F168F120F17AD2B0F128A
:1006E8008F120F17AD2B0F128F160F17AD2B0F127E
:1006F8008F160F13AD2B0F168F120F13AD2B0F1272
:100708008F160F17AD2B0F128F160F17AD2B7508FD
:10071800F300F4017408003A0319932B872B73082C
:10072800013A0319732B033A03196F2B063A03197D
:100738006B2B0C3A0319672B043A03197F2B153AD4
:1007480003197B2B063A0319832B2D3A0319772BB0
:10075800872B0800831603178901033083160313B8
:10076800850086018030870088018901F301033004
:100778000A128A1175240A128A1183160313950125
:100788009601C43081008312031390010C103C3091
:100798008F00B0308E0004300A128A1162230A12C8
:1007A8008A11F30100300A128A1199240A128A1157
:1007B800831203138501860187018801890140306E
:1007C800831603138C008D01831203138C018D0192
:1007D800C0308B0008000B1DF22BF32BF42B0B11F0
:1007E800831203130C1CF92BFA2BFB2B0C100C1F78
:1007F800FE2BFF2B122C1F0CF000700C0F39003A47
:10080800031D072C082C0D2C1E08F0007008DE00B4
:10081800112C1E08F0007008DD000C130B1C152CA1
:10082800162C172C0B1072088A00710E8300FE0E0E
:100838007E0E090020344C346F34733420347634FF
:1008480061346C346F3472346534733420346434F6
:10085800653420346C346F347334203470346F341E
:10086800743465346E34633469346F346D3465348C
:10087800743472346F347334203473346F346E3498
:100888003A3420340A342034533431343A3420345E
:1008980083120313D000CE01CF01672C4E085007F6
:1008A80084000A128A11D6240A128A110A128A119D
:1008B800B9240A128A11013083120313CE070318D0
:1008C800CF0A0030CF074E08500784000A128A1159
:1008D800D6240A128A11003A031D732C742C522C48
:1008E8000800F50075088316031788008901750844
:1008F800831603138500C330831203139F05213029
:10090800F400F40B852C831203131F141F083F39BE
:1009180040389F00730C83160313031C9F1303189E
:100928009F171F129F120C170800F4008316031359
:1009380018121815181398168312031398171813FA
:100948001816831603178711193083160313990095
:1009580001309A00740C031C0C1203180C16730C4B
:10096800031C8C1203188C160800F5007508F40097
:100978007408F6007608F4007408F700831203136D
:10098800091477080A128A1140250A128A1183125B
:10099800031389140D30F400F40BD02C83120313C5
:1009A8008910080004308A000408840A8207003489
:1009B800533431343A3420342034203453343234EC
:1009C8003A342034203443344F344E3454343A3497
:1009D80000342034203420340034F600831203130A
:1009E800091076080A128A1140250A128A11831200
:1009F800031389140630F5003030F400F40B022D8F
:100A0800F50B022D00008312031389100800F6006D
:100A1800F501761C102D112D152D7308F40074089E
:100A2800F5070310F30D0310F60C7608031D1D2DB2
:100A38001E2D0D2D750808007E088A007F0882008B
:100A48000A128A1120250A128A118000840A0408D1
:100A58007D0603190034FF0A0319FE0A242D00300D
:100A68000A128A11F1240A128A1101300A128A1113
:100A7800F1240A128A110800F30073088312031381
:040A880088000800DA
:04400E00D420FF3F7C
:00000001FF
