:020000040000FA
:060000000A128A110C280F
:10000800FE00030EF1000A08F2000A128A15C3293D
:100018000A128A110F288313D230FD000930FE001E
:100028004F30FF00A03084000A128A1524200A12DB
:100038008A11D601D701D801D901DA01DB01DC0127
:10004800DD01DE01DF01E001E101E201F801F90172
:10005800FA0183010A128A15882E831203133808BD
:100068008039BD003D08C2003808BD003D07BE000C
:100078003E08C800B71F41284228432848144808AA
:100088000319472848285728480A031D4C284D2893
:1000980055280030B8000030B7000030B6000030F6
:1000A800B500B7175F280030B8000030B70000303F
:1000B800B6000030B5003C088039BD003D08C206D6
:1000C8003C08BD003D07BE003E08C700BB1F6D28A9
:1000D8006E286F2847144708031973287428832843
:1000E800470A031D7828792881280030BC00003091
:1000F800BB000030BA000030B900BB178B280030B5
:10010800BC000030BB000030BA000030B90047081E
:1001180003198F28902895284808031D94289528A6
:100128009E280030B8000030B7000030B60000301C
:10013800B500912B3508BD003D08F3003B080A12B5
:100148008A15FB200A128A11740883120313CE0041
:100158007308CD004D08BD00BE01BF01C0014008B5
:10016800C6003F08C5003E08C4003D08C3004E084D
:10017800BD00BE01BF01C0014008CC003F08CB0054
:100188003E08CA003D08C9003608BD003D08F30016
:100198003A080A128A15FB200A128A117408831277
:1001A8000313CE007308CD004D08BD00BE01BF018A
:1001B800C0013D08C3073E0803110318013E031997
:1001C800E628C4073F0803110318013E0319ED2868
:1001D800C507400803110318013E0319F428C60790
:1001E8004E08BD00BE01BF01C0013D08C9073E0859
:1001F80003110318013E03190229CA073F08031116
:100208000318013E03190929CB07400803110318F5
:10021800013E03191029CC073708BD003D08F3003B
:1002280039080A128A15FB200A128A1174088312E7
:100238000313CE007308CD004D08BD00BE01BF01F9
:10024800C0013D08C3073E0803110318013E031906
:100258002E29C4073F0803110318013E0319352945
:10026800C507400803110318013E03193C29C607B6
:100278004E08BD00BE01BF01C0013D08C9073E08C8
:1002880003110318013E03194A29CA073F0803113D
:100298000318013E03195129CB074008031103181D
:1002A800013E03195829CC070830BD000310C30DBF
:1002B800C40DC50DC60DBD0B5A293608BD003D0835
:1002C800F30039080A128A15FB200A128A117408E9
:1002D80083120313CE007308CD004D08BD004E08ED
:1002E800BE00BF01C0013D08C3073E080311031843
:1002F800013E03198029C4073F0803110318013E72
:1003080003198729C507400803110318013E03197B
:100318008E29C6073508BD003D08F3003A080A12C1
:100328008A15FB200A128A11740883120313CE005F
:100338007308CD004D08BD004E08BE00BF01C001C6
:100348003D08C3073E0803110318013E0319AD29F0
:10035800C4073F0803110318013E0319B429C50750
:10036800400803110318013E0319BB29C6070830CA
:10037800BD000310C30DC40DC50DC60DBD0BBD29B1
:100388003508BD003D08F30039080A128A15FB201C
:100398000A128A11740883120313CE007308CD0061
:1003A8004D08BD004E08BE00BF01C0013D08C3078F
:1003B8003E0803110318013E0319E329C4073F0847
:1003C80003110318013E0319EA29C5074008031160
:1003D8000318013E0319F129C6073608BD003D0878
:1003E800F3003B080A128A15FB200A128A117408C6
:1003F80083120313CE007308CD004D08BD004E08CC
:10040800BE00BF01C0013D08C9073E08031103181B
:10041800013E0319102ACA073F0803110318013EB9
:100428000319172ACB07400803110318013E0319C3
:100438001E2ACC073708BD003D08F3003A080A1207
:100448008A15FB200A128A11740883120313CE003E
:100458007308CD004D08BD004E08BE00BF01C001A5
:100468003D08C9073E0803110318013E03193D2A38
:10047800CA073F0803110318013E0319442ACB0792
:10048800400803110318013E03194B2ACC0737080B
:10049800BD003D08F3003B080A128A15FB200A122A
:1004A8008A11740883120313CE007308CD004D0817
:1004B800BD004E08BE00BF01C00108300310BD0DCD
:1004C800BE0DBF0DC00DFF3E031D622A3D08C907C2
:1004D8003E0803110318013E0319732ACA073F088F
:1004E80003110318013E03197A2ACB0740080311A8
:1004F8000318013E0319812ACC074308BD004408AC
:10050800BE004508BF004608C00018300310C00CE4
:10051800BF0CBE0CBD0CFF3E031D8A2A3D08C9074F
:100528003E0803110318013E03199B2ACA073F0816
:1005380003110318013E0319A22ACB07400803112F
:100548000318013E0319A92ACC070830BD0003107F
:10055800C30DC40DC50DC60DBD0BAB2A4808470712
:10056800BD00BE01BE0D3D08823ECD003E08031809
:10057800013EFF3ECE00DD2A0130BD000310C90D4B
:10058800CA0DCB0DCC0DBD0BC22AC61FCC2ACD2A55
:10059800CE2A49140130BD000310C30DC40DC50D8A
:1005A800C60DBD0BD02AFF30CD070318CE0AFF3089
:1005B800CE07CB1FE02AE12AC02AC701C61FE52AB9
:1005C800E62A022BFF304305BD00FF304405BE007C
:1005D800FF304505BF007F304605C00040083F0496
:1005E8003E043D040319F92AFA2AFD2AC701C70A5D
:1005F800022B491C002B012B022BFA2A470803194E
:10060800062B072B382B0130C9070030031801309F
:10061800CA07003003180130CB0700300318013037
:10062800CC074C1C182B192B382B4908BD004A083D
:10063800BE004B08BF004C08C0000130C100400D8F
:10064800C00CBF0CBE0CBD0CC10B232B4008CC004A
:100658003F08CB003E08CA003D08C9000130CD075D
:100668000318CE0A0030CE074E08803AFF008030CB
:100678007F02031D412BFF304D02031C442B452BE9
:10068800502B7F3083120313CC008030CB00003016
:10069800CA000030C900852B831203134E08803A24
:1006A800FF0080307F02031D5B2B01304D020318D1
:1006B8005E2B5F2B6B2B003083120313CC000030B2
:1006C800CB000030CA000030C900C201852B83125C
:1006D80003134D08BD003D08C800FF30C905FF30B1
:1006E800CA057F30CB050030CC05481C7C2B7D2B00
:1006F8007E2BCB174808BD0003103D0CBE003E08FA
:10070800CC004208BD003D08CC044C08B8004B089A
:10071800B7004A08B6004908B50008008312031359
:1007280023088039A8002808F3002308A800280710
:10073800A9002908F500A21FA22BA32BA42B75142E
:1007480075080319A82BA92BB92B750A031DAD2B06
:10075800AE2BB62B0030A3000030A2000030A10061
:100768000030A000A217A301C12B0030A300003065
:10077800A2000030A1000030A00027088039A8009E
:100788002808F400740873060319CB2BCC2BCD2B47
:1007980073172708A8002807A9002908F400A61F2E
:1007A800D62BD72BD82B741474080319DC2BDD2B0C
:1007B800ED2B740A031DE12BE22BEA2B0030A70076
:1007C8000030A6000030A5000030A400A617A7013D
:1007D800F52B0030A7000030A6000030A50000303F
:1007E800A400750874020318FA2BFB2B3F2C731F07
:1007F800FE2BFF2B032C8030A8002808F306750871
:10080800A8002808F6007408A8002808F50076084B
:10081800A8002808F4002008A8002808F6002408E2
:10082800A8002808A0007608A8002808A400210825
:10083800A8002808F6002508A8002808A1007608BE
:10084800A8002808A5002208A8002808F6002608FD
:10085800A8002808A2007608A8002808A6002308EF
:10086800A8002808F6002708A8002808A30076088A
:10087800A8002808A700F6017408A800A9012908FB
:10088800AB0075082802AA00031CAB032B08803AAA
:10089800FF0080307F02031D532C1A302A02031CEC
:1008A800562C572C982C8312031323082204210456
:1008B8002004031D602C622C0130632C0030A8003A
:1008C8002808F6000030A3000030A2000030A10084
:1008D8000030A0007408A8002808F5009E2C761C9B
:1008E800762C772C822C760883120313A800031029
:1008F800280C0138A9002908F600842C0310F60CEE
:1009080083120313201C892C8A2C8B2CF617013098
:10091800A800230DA30CA20CA10CA00CA80B8D2CD5
:100928000130A8002808F50774087502031C9D2CDF
:100938009E2C732C731BA12CA22CF12C7508031D63
:10094800A62CA72CB22C003083120313A30000306E
:10095800A2000030A1000030A000212E8312031352
:100968002408A007250803110318013E0319BD2C0C
:10097800A107260803110318013E0319C42CA20776
:10098800270803110318013E0319CB2CA307231CC6
:10099800CE2CCF2CA72D761CD22CD32CDC2C760871
:1009A800A8000310280C0138A9002908F600DE2C3D
:1009B8000310F60C201CE12CE22CE32CF617013076
:1009C800A800230DA30CA20CA10CA00CA80BE52CCD
:1009D8000130A8002808F507A72D83120313230860
:1009E800803AFF002708803A7F02031D052D26085C
:1009F8002202031D052D25082102031D052D2408AB
:100A080020020318082D092D612DFF30A800FF30A2
:100A1800A900FF30AA00FF30AB002408AC0025086D
:100A2800AD002608AE002708AF002008AC02210858
:100A3800031C210F202D212DAD022208031C220F9B
:100A4800262D272DAE022308031C230F2C2D2D2D18
:100A5800AF022C08A8072D0803182D0F342D352DAB
:100A6800A9072E0803182E0F3A2D3B2DAA072F0889
:100A780003182F0AAB072B08A3002A08A20029088D
:100A8800A1002808A0008030A8002808F306F6096D
:100A9800F60A7608031D512D522D6F2D0130A0073F
:100AA800003003180130A107003003180130A207F5
:100AB800003003180130A3076F2D2408A002250871
:100AC800031C250FA1022608031C260FA2022708D3
:100AD800031C270FA3022308220421042004031D5A
:100AE800762D772DA32D7608031D7B2D7C2DA32D28
:100AF8000030A3000030A2000030A1000030A000A8
:100B0800212E0130A8000310A00DA10DA20DA30DE8
:100B1800A80B872DF61F912D922D932D2014761C4E
:100B2800962D972D9A2D0314F60D9C2D0310F60D76
:100B380075080319A02DA12DA32D0130F502A21FC0
:100B4800A62DA72D852DF401F61FAB2DAC2DBA2DA2
:100B580076087F390319B12DB22DB52DF401F40AA9
:100B6800BA2D201CB82DB92DBA2DB22D7408031931
:100B7800BE2DBF2DF32D0130A00700300318013022
:100B8800A107003003180130A20700300318013014
:100B9800A307231CD02DD12DF32D2008A800210850
:100BA800A9002208AA002308AB000130AC002B0DD5
:100BB800AB0CAA0CA90CA80CAC0BDB2D2B08A300C2
:100BC8002A08A2002908A1002808A000750A03190C
:100BD800EE2DEF2DF32D0130A8002808F507750A32
:100BE8000319F72DF82DFD2D7508031DFC2DFD2D7E
:100BF8000B2E0030A3000030A2000030A10000300E
:100C0800A0007508031D092E0A2E0B2EF301751C72
:100C18000E2E0F2E112EA217152E7F30A800280891
:100C2800A2057508A8000310280CA9002908A3002C
:100C3800F31F1F2E202E212EA31708008312031343
:100C480027088039F3007308AC002708F3007307FE
:100C5800F4007408B300A61F322E332E342E33143A
:100C680033080319382E392E492E330A031D3D2E19
:100C78003E2E462E0030A7000030A6000030A5000A
:100C88000030A400A617A701512E0030A70000309D
:100C9800A6000030A5000030A40023088039F30026
:100CA8007308AC062308F3007307F4007408B40053
:100CB800A21F5F2E602E612E341434080319652E8E
:100CC800662E762E340A031D6A2E6B2E732E003084
:100CD800A3000030A2000030A1000030A000A2173D
:100CE800A3017E2E0030A3000030A2000030A10036
:100CF8000030A0002308220421042004031D852EAF
:100D0800862E9F2E0030A7000030A6000030A500D8
:100D18000030A4008030A6047F30A7042C08F3001C
:100D28007308A7042708A3002608A2002508A10025
:100D38002408A000FE2F3308031DA32EA42EAD2ED9
:100D48000030A3000030A2000030A1000030A00055
:100D5800FE2F3308F300F4017408F6003408730218
:100D6800F500031CF60375087F3EAD0076080318EE
:100D7800013E003EAE002708AB002608AA00250861
:100D8800A9002408A8000030A7000030A600003001
:100D9800A5000030A4000030B2000030B1000030DF
:100DA800B0000030AF00B401232F34080319DD2E42
:100DB800DE2EFE2E0130F3000310A80DA90DAA0D9A
:100DC800AB0DF30BE02E0130F3000310A40DA50DBD
:100DD800A60DA70DF30BE92EB21FF32EF42EF52E58
:100DE80024140130F3000310AF0DB00DB10DB20D96
:100DF800F30BF72E23082B02031D0C2F22082A02BF
:100E0800031D0C2F21082902031D0C2F200828027E
:100E1800031C0F2F102F1F2F32172008A80221089C
:100E2800031C210FA9022208031C220FAA0223086F
:100E3800031C230FAB020130F3007308B4071A3008
:100E48003402031C282F292FD92E2B082A04290401
:100E580028040319302F312F502F2F14502F013011
:100E6800F3000310A40DA50DA60DA70DF30B352F48
:100E7800B21F3F2F402F412F24140130F3000310DD
:100E8800AF0DB00DB10DB20DF30B432FFF30AD0711
:100E98000318AE0AFF30AE07A61F532F542F332F67
:100EA800B401B21F582F592F752FFF302F05F300AB
:100EB800FF303005F400FF303105F5007F30320592
:100EC800F600760875047404730403196C2F6D2FEB
:100ED800702FB401B40A752F241C732F742F752F2B
:100EE8006D2F34080319792F7A2FAB2F0130A407FF
:100EF800003003180130A507003003180130A60799
:100F0800003003180130A707271C8B2F8C2FAB2F1D
:100F18002408F3002508F4002608F5002708F60041
:100F28000130F700760DF60CF50CF40CF30CF70B0A
:100F3800962F7608A7007508A6007408A500730800
:100F4800A4000130AD070318AE0A0030AE072E0822
:100F5800803AFF0080307F02031DB42FFF302D023E
:100F6800031CB72FB82FC62FFF3083120313AD0011
:100F78000030AE000030A7000030A6000030A50009
:100F88000030A400831203132E08803AFF0080303B
:100F98007F02031DD12F01302D020318D42FD52F26
:100FA800E22F83120313AD01AE010030A700003019
:100FB800A6000030A5000030A400AC018312031382
:100FC8002D08F3007308B300331CEB2FEC2FEE2F22
:100FD800A617F22F7F30F3007308A6053308F30035
:100FE8000310730CF4007408A7002C08F3007308AE
:060FF800A704962E08007C
:1010000008308A000408840A8207003453343134DB
:101010003A34203420342034533432343A342034B7
:10102000203443344F344E3454343A340034203472
:08103000203400342E3400349A
:101040007E088A007F0882000A128A1520200A1270
:101050008A158000840A04087D0603190034FF0AFB
:101060000319FE0A2428F6008312031309107608D8
:101070000A168A11ED270A128A158312031389149E
:101080000630F5003030F400F40B4428F50B44280A
:1010900000008312031389100800F5007508F4009E
:1010A0007408F6007608F4007408F700831203133E
:1010B000091477080A168A11ED270A128A15831275
:1010C000031389140D30F400F40B64288312031306
:1010D00089100800F400831603131812181518134A
:1010E00098168312031398171813181683160317EC
:1010F0008711193083160313990001309A00740C7C
:10110000031C0C1203180C16730C031C8C1203180E
:101110008C160800803083120313B3063708A3002F
:101120003608A2003508A1003408A0003308A70043
:101130003208A6003108A5003008A4000A128A115E
:1011400092230A128A15831203132308B30022087C
:10115000B2002108B1002008B0000800F5007508B1
:101160008316031788008901750883160313850009
:10117000C330831203139F052130F400F40BBE2803
:10118000831203131F141F083F3940389F00730C4C
:1011900083160313031C9F1303189F171F129F121C
:1011A0000C17080083120313A200A001A101ED286F
:1011B0002008220784000A128A1500200A128A15C4
:1011C0000A128A154D200A128A1501308312031360
:1011D000A0070318A10A0030A107200822078400F5
:1011E0000A128A1500200A128A15003A031DF928EE
:1011F000FA28D828080083120313A400A001A10133
:101200007308F500F6017508A2007608A300241CF7
:101210000A290B2911292208A0070318A10A23086B
:10122000A10701300310A20DA30DFF3E031D1229DB
:101230000310A40C2408031D1E291F2907292108B7
:10124000F4002008F300080083120313A001A10199
:10125000731C2B292C293429750883120313A0072A
:101260000318A10A7608A10701300310F50DF60D49
:10127000FF3E031D352901300310F40CF30CFF3E33
:10128000031D3C2973087404031D47294829282994
:10129000831203132108F4002008F300080020340F
:1012A0004C346F3473342034763461346C346F349E
:1012B00072346534733420346434653420346C34CF
:1012C0006F347334203470346F34743465346E3456
:1012D000633469346F346D346534743472346F340C
:1012E0007334203473346F346E343A340D34203414
:1012F0005334313420340D342034533432340034F8
:101300000034831603178901033083160313850005
:1013100086018030870088018901F30103300A12B9
:101320008A15AE200A128A158316031395019601B9
:10133000C43081008312031390010C103C308F00E5
:10134000B0308E0004300A128A150D220A128A1556
:10135000F301F30A00300A128A156A200A128A156C
:1013600083120313850186018701880189014030BA
:10137000831603138C008D01831203138C018D01DE
:10138000C0308B0008000B1DC629C729C8290B11C6
:10139000831203130C1CCD29CE29CF290C100C1F4E
:1013A000D229D329E6291F0CF000700C0F39003A1E
:1013B000031DDB29DC29E1291E08F0007008DE008E
:1013C000E5291E08F0007008DD000C138C1EE929C9
:1013D000EA29012A1A08F0007008DF002B305F06A6
:1013E000031DF329F429F8290130F0007008DC0707
:1013F0002D305F06031DFD29FE29002A0130DC0285
:101400008C120B1C042A052A062A0B1072088A006B
:10141000710E8300FE0E7E0E0900F5008316031385
:101420000F14362A0F168F160F17582A0F128F1601
:101430000F17582A0F168F120F17582A0F128F12D4
:101440000F17582A0F128F160F17582A0F128F16C0
:101450000F13582A0F168F120F13582A0F128F16B8
:101460000F17582A0F128F160F17582A7508F300F6
:10147000F4017408003A03193E2A322A7308013A2B
:1014800003191E2A033A03191A2A063A0319162ABF
:101490000C3A0319122A043A03192A2A153A031995
:1014A000262A063A03192E2A2D3A0319222A322A0D
:1014B000080000300A168A11ED270A128A151A3020
:1014C00083120313A100F730A000A00B652AA10B23
:1014D000652A6A2A30300A128A1533200A128A15C0
:1014E000073083120313A1007C30A000A00B762AE2
:1014F000A10B762A000030300A128A1533200A1216
:101500008A15413083120313A000A00B852A882A74
:1015100030300A128A1533200A128A153C300A121A
:101520008A1533200A128A1508300A128A153320C8
:101530000A128A1501300A128A1533200A128A15F6
:1015400006300A128A1533200A128A1508008312FF
:101550000313A2002203031DAE2AAF2AD42A770860
:101560007F3EA0002008A5002508A000043003103D
:10157000A00CFF3E031DB72A2008A1002108A300EC
:1015800025080F39A0002008A40023080A128A1594
:1015900033200A128A158312031324080A128A15AB
:1015A00033200A128A15FE2A02302206031DD92A88
:1015B000DA2AFE2A7708BF3EA0002008A5002508E9
:1015C000A00004300310A00CFF3E031DE22A2008F7
:1015D000A1002108A3002508F039A0002008A400DC
:1015E00023080A128A1533200A128A15831203135C
:1015F00024080A128A1533200A128A1508000310DB
:1016000083120313370D380DB9003908BF003F08A6
:10161000031D0B2B0C2B152B0030B8000030B7002E
:101620000030B6000030B5007A2B3508B900360816
:10163000BA003708BB003808BC001F300310BC0CD0
:10164000BB0CBA0CB90CFF3E031D1E2B3908BD00A4
:101650003D08BE00B717FF30B505FF30B605FF30B7
:10166000B7050030B8059630BF02BF1F382B392BA5
:10167000532B3F08803A973E03183F2B402B412BBA
:101680000C2B01300310B80CB70CB60CB50CFF3E98
:10169000031D422B0130B9003908BF07031D512B30
:1016A000522B412B6A2B20303F02031C582B592B05
:1016B000652B0C2B0130B9000310B50DB60DB70D1D
:1016C000B80DB90B5C2B0130BF023F08031D692B1D
:1016D0006A2B5A2B3E0803196E2B6F2B7A2BB509F8
:1016E000B609B709B809B50A0319B60A0319B70A42
:1016F0000319B80A080083120313AA002A08031961
:10170000822B832B972BA51F862B872B972B2209A8
:10171000AC002309AD002409AE002509AF00AC0AD6
:101720000319AD0A0319AE0A0319AF0A9F2B250846
:10173000AF002408AE002308AD002208AC00250845
:10174000240423042204031DA62BA72BB02B003056
:10175000A5000030A4000030A3000030A200362C09
:101760009630A6002608AB00C22B0130A600260842
:10177000AB0701300310AF0CAE0CAD0CAC0CFF3E50
:10178000031DBA2BFE302F05031DC72BC82BB52B0D
:10179000E42B0130A6002608AB070130AC0700306F
:1017A00003180130AD07003003180130AE070030D8
:1017B00003180130AF0701300310AF0CAE0CAD0CB5
:1017C000AC0CFF3E031DDC2BFF302F05031DE92B66
:1017D000EA2BC92BF62B0130AB020130A600031017
:1017E000AC0DAD0DAE0DAF0DA60BEF2BAE1BF92B57
:1017F000FA2B002C02302B020318FF2B002CEB2BB2
:101800002B18032C042C0C2CFF30AC05FF30AD053D
:101810007F30AE05FF30AF050310AB0C2B08A600E0
:10182000A701A801A90118300310A60DA70DA80D46
:10183000A90DFF3E031D142C2608AC042708AD0497
:101840002808AE042908AF042A080319282C292CDB
:101850002E2CA51F2C2C2D2C2E2CAF172F08A500BD
:101860002E08A4002D08A3002C08A2000800F600F2
:10187000831203139F183D2C3E2C2E2DF72C76033C
:10188000031D432C442C472CC3309F052E2D1F08CD
:10189000C33904389F002E2D02307606031D512CCB
:1018A000522C552CC3309F052E2D1F08C3390838E4
:1018B0009F002E2D03307606031D5F2C602C632CB9
:1018C000C3309F052E2D1F08C3390C389F002E2DC5
:1018D00004307606031D6D2C6E2C712CC3309F05D1
:1018E0002E2D1F08C33910389F002E2D0530760687
:1018F000031D7B2C7C2C7F2CC3309F052E2D1F08B5
:10190000C33914389F002E2D06307606031D892C0E
:101910008A2C8D2CC3309F052E2D1F08C3391838F3
:101920009F002E2D07307606031D972C982C9B2C9C
:10193000C3309F052E2D1F08C3391C389F002E2D44
:1019400008307606031DA52CA62CA92CC3309F05B4
:101950002E2D1F08C33920389F002E2D0930760602
:10196000031DB32CB42CB72CC3309F052E2D1F089C
:10197000C33924389F002E2D0A307606031DC12C52
:10198000C22CC52CC3309F052E2D1F08C339283803
:101990009F002E2D0B307606031DCF2CD02CD32C80
:1019A000C3309F052E2D1F08C3392C389F002E2DC4
:1019B0000C307606031DDD2CDE2CE12CC3309F0598
:1019C0002E2D1F08C33930389F002E2D0D3076067E
:1019D000031DEB2CEC2CEF2CC3309F052E2D1F0884
:1019E000C33934389F002E2DC3309F052E2D1F0C78
:1019F000F300730C0F39F400F5017508003A031970
:101A0000022D2E2D7408003A03193F2C013A0319B8
:101A10004C2C033A03195A2C013A0319682C073A43
:101A20000319762C013A0319842C033A0319922CDA
:101A3000013A0319A02C0F3A0319AE2C013A0319ED
:101A4000BC2C033A0319CA2C013A0319D82C073AC3
:101A50000319E62C013A0319F42C2E2D3130F30032
:101A6000F30B302D332D831203139F1408008312C0
:101A70000313D3005308CF00D001D101D201520883
:101A8000A5005108A4005008A3004F08A200003090
:101A90000A128A157B230A128A158312031325085A
:101AA000D9002408D8002308D7002208D6004330E4
:101AB000B800FA30B7000030B6000030B50043304F
:101AC000A3007F30A2000030A1000030A000590820
:101AD000A7005808A6005708A5005608A4000A1237
:101AE0008A1122260A128A15831203132308BC00C6
:101AF0002208BB002108BA002008B9000A128A1186
:101B000031200A128A15831203133808D9003708C6
:101B1000D8003608D7003508D6005908A70058085D
:101B2000A6005708A5005608A4004230A300C830FC
:101B3000A2000030A1000030A0000A128A11222663
:101B40000A128A15831203132308B8002208B7006B
:101B50002108B6002008B5000A128A15FF220A12D1
:101B60008A15831203133508CF004F08F80064303C
:101B7000F5000030F6007808CF00D0014F08F300E0
:101B80005008F4000A128A1524210A128A157308D3
:101B900083120313A2007408A3000030A31BFF30BC
:101BA000A400A50001300A128A157B230A128A15A7
:101BB000831203132508B3002408B2002308B100E0
:101BC0002208B0005908B7005808B6005708B500F9
:101BD0005608B4000A128A158A200A128A1583123E
:101BE00003133308D9003208D8003108D700300871
:101BF000D6005908A7005808A6005708A50056089F
:101C0000A4004130A3002030A2000030A100003029
:101C1000A0000A128A1122260A128A1583120313BF
:101C20002308B8002208B7002108B6002008B50034
:101C30000A128A15FF220A128A1583120313350825
:101C4000CF004F08F9000A30F5000030F60079089F
:101C5000CF00D0014F08F3005008F4000A128A1593
:101C600024210A128A15730883120313A200740830
:101C7000A3000030A31BFF30A400A50001300A120E
:101C80008A157B230A128A15831203132508B300D1
:101C90002408B2002308B1002208B0005908B70098
:101CA0005808B6005708B5005608B4000A128A153D
:101CB0008A200A128A15831203133308D9003208C6
:101CC000D8003108D7003008D6005908B8005808A5
:101CD000B7005708B6005608B5000A128A15FF2249
:101CE0000A128A15831203133508CF004F08FA0031
:101CF0007808303ECF004F08F8007908303ECF001A
:101D00004F08F9007A08303ECF004F08FA0008006B
:101D10000A128A1581210A128A150A128A15592275
:101D20000A128A1502300A128A1537240A128A15F5
:101D30000A168A11F3270A128A15F701F70A0130E9
:101D40000A128A15A7220A128A1501300A128A1568
:101D5000D2200A128A15C42E0130D4005408DA07A2
:101D60000C1EB32EB42EBA2E5A08A03E8400831344
:101D7000000899000D3083120313D500FB30D40006
:101D8000D40BC02ED50BC02E3330831203135A024E
:101D9000031CCB2ECC2EAC2E5E080A128A153725DA
:101DA0000A128A15F701F70A02300A128A15A722C9
:101DB0000A128A1578080A128A154D200A128A1505
:101DC00015300A128A15D2200A128A1579080A12C9
:101DD0008A154D200A128A157A080A128A154D2092
:101DE0000A128A1512300A128A15D2200A128A158E
:101DF000831203130C1EFD2EFE2E002F780899006F
:101E00000D3083120313D500FB30D400D40B062F02
:101E1000D50B062F831203130C1E0F2F102F122F1A
:101E20002E3099000D3083120313D500FB30D400FF
:101E3000D40B182FD50B182F831203130C1E212F30
:101E4000222F242F790899000D3083120313D50017
:101E5000FB30D400D40B2A2FD50B2A2F8312031367
:101E60000C1E332F342F362F7A0899000D30831231
:101E70000313D500FB30D400D40B3C2FD50B3C2FE3
:101E8000831203130C1E452F462F482F0D30990047
:101E90000D3083120313D500FB30D400D40B4E2F2A
:101EA000D50B4E2F831203135D080A128A153725AE
:101EB0000A128A1578080A128A154D200A128A1504
:101EC00015300A128A15D2200A128A1579080A12C8
:101ED0008A154D200A128A157A080A128A154D2091
:101EE0000A128A1512300A128A15D2200A128A158D
:101EF000831203130C1E7D2F7E2F802F78089900EC
:101F00000D3083120313D500FB30D400D40B862F81
:101F1000D50B862F831203130C1E8F2F902F922F19
:101F20002E3099000D3083120313D500FB30D400FE
:101F3000D40B982FD50B982F831203130C1EA12FAF
:101F4000A22FA42F790899000D3083120313D50016
:101F5000FB30D400D40BAA2FD50BAA2F8312031366
:101F60000C1EB32FB42FB62F7A0899000D308312B0
:101F70000313D500FB30D400D40BBC2FD50BBC2FE2
:101F8000831203130C1EC52FC62FC82F0D309900C6
:101F90000D3083120313D500FB30D400D40BCE2FA9
:101FA000D50BCE2F831203135C080A128A1537252E
:101FB0000A128A1578080A128A154D200A128A1503
:101FC00015300A128A15D2200A128A1579080A12C7
:101FD0008A154D200A128A157A080A128A154D2090
:101FE0000A128A15823083120313D500DD30D40023
:101FF000D40BF82FD50BF82F922E0A128A110C2829
:102FDA00F3007308831203138800080000300A12F2
:102FEA008A1533200A168A1101300A128A153320EB
:062FFA000A168A1108000E
:04400E00D420FF3F7C
:00000001FF
