:020000040000FA
:060000000A128A110C280F
:10000800FE00030EF1000A08F2000A128A11FA2B08
:100018000A128A110F2883134E30FD000430FE00A7
:100028002930FF00203084000A128A112F250A1275
:100038008A11D901DA01DB01DC01DD01DE01DF0112
:10004800E001E101E201F801F901FA0183010A1274
:100058008A112E29F600831203139F183428352895
:100068002529EE287603031D3A283B283E28C3306D
:100078009F0525291F08C33904389F002529023008
:100088007606031D482849284C28C3309F05252992
:100098001F08C33908389F00252903307606031D39
:1000A800562857285A28C3309F0525291F08C339C1
:1000B8000C389F00252904307606031D642865281E
:1000C8006828C3309F0525291F08C33910389F00A9
:1000D800252905307606031D722873287628C33033
:1000E8009F0525291F08C33914389F002529063084
:1000F8007606031D802881288428C3309F0525297A
:100108001F08C33918389F00252907307606031DB4
:100118008E288F289228C3309F0525291F08C339A8
:100128001C389F00252908307606031D9C289D2829
:10013800A028C3309F0525291F08C33920389F00F0
:10014800252909307606031DAA28AB28AE28C33016
:100158009F0525291F08C33924389F0025290A30FF
:100168007606031DB828B928BC28C3309F05252961
:100178001F08C33928389F0025290B307606031D30
:10018800C628C728CA28C3309F0525291F08C33990
:100198002C389F0025290C307606031DD428D52835
:1001A800D828C3309F0525291F08C33930389F0038
:1001B80025290D307606031DE228E328E628C330FA
:1001C8009F0525291F08C33934389F002529C330C6
:1001D8009F0525291F0CF300730C0F39F400F50156
:1001E8007508003A0319F92825297408003A0319F3
:1001F8003628013A03194328033A03195128013ACA
:1002080003195F28073A03196D28013A03197B2857
:10021800033A03198928013A031997280F3A031951
:10022800A528013A0319B328033A0319C128013A4A
:100238000319CF28073A0319DD28013A0319EB28D7
:1002480025293130F300F30B27292A2983120313B8
:100258009F1408000A128A11B9230A128A110A1275
:100268008A111F230A128A1102300A128A112E20BB
:100278000A128A110A128A113E250A128A11F701F6
:10028800F70A01300A128A11C7220A128A110130AC
:100298000A128A1157240A128A116A290130D700D2
:1002A8005708D9070C1E59295A2960295908203E90
:1002B8008400831300089900143083120313D800B4
:1002C8007930D700D70B6629D80B662930308312CE
:1002D80003135902031C7129722952295E080A1254
:1002E8008A1160220A128A11F701F70A02300A12EB
:1002F8008A11C7220A128A1178080A128A11C4249C
:100308000A128A1179080A128A11C4240A128A1157
:100318007A080A128A11C4240A128A1112300A129F
:100328008A1157240A128A11831203135D080A12CC
:100338008A1160220A128A1178080A128A11C424C2
:100348000A128A1179080A128A11C4240A128A1117
:100358007A080A128A11C4240A128A11E1295E084D
:10036800D7005708DB000C1EBA29BB29BD2978081D
:100378009900143083120313D8007930D700D70BB3
:10038800C329D80BC329831203130C1ECC29CD29EA
:10039800CF2979089900143083120313D8007930D3
:1003A800D700D70BD529D80BD529831203130C1ED8
:1003B800DE29DF29E1297A089900831203135B08F3
:1003C8005E06031DE829E929B32982308312031345
:1003D800D800DD30D700D70BEF29D80BEF29382903
:1003E8000A128A110C2883120313CF01F41FFD2966
:1003F800FE29052AF309F409F30A0319F40ACF01BF
:10040800CF0AF61F082A092A122AF509F609F50A59
:100418000319F60A0130F7007708CF06D001D10199
:10042800730874040319192A1A2A512ACE01CE0A0C
:10043800282A01300310F30DF40DFF3E031D1E2A78
:100448000130F7007708CE07F41F2B2A2C2A1D2A23
:1004580001300310D00DD10DFF3E031D2D2A740865
:100468007602031D392A73087502031C3C2A3D2AAB
:10047800442A7308F5027408031CF603F6025014A4
:1004880001300310F40CF30CFF3E031D452A013024
:10049800CE02031D502A512A2C2A4F080319552A27
:1004A800562A5B2AD009D109D00A0319D10A510862
:1004B800F4005008F300080083120313D500550810
:1004C800D2005208D6006430F3000030F400560819
:1004D800D200D3015208F5005308F6000A128A1117
:1004E800F7210A128A11730883120313D4005408DF
:1004F800F8009C30D2005208F30078080A128A11DA
:1005080016250A128A11831203135607D3005308BB
:10051800D6000A30F3000030F4005608D200D301A8
:100528005208F5005308F6000A128A11F7210A1238
:100538008A11730883120313D4005408F900F630A3
:10054800D2005208F30079080A128A1116250A12F5
:100558008A11831203135607D3005308D60056088E
:10056800D2005208FA007808303ED2005208F8004B
:100578007908303ED2005208F9007A08303ED2009D
:100588005208FA00080083120313D0005003031D19
:10059800CE2ACF2AF42A77087F3ECE004E08D30011
:1005A8005308CE0004300310CE0CFF3E031DD72A9B
:1005B8004E08CF004F08D10053080F39CE004E081F
:1005C800D20051080A128A11FC240A128A118312D5
:1005D800031352080A128A11FC240A128A111E2BCC
:1005E80002305006031DF92AFA2A1E2B7708BF3E4F
:1005F800CE004E08D3005308CE0004300310CE0CB2
:10060800FF3E031D022B4E08CF004F08D1005308B0
:10061800F039CE004E08D20051080A128A11FC2483
:100628000A128A118312031352080A128A11FC242F
:100638000A128A11080000300A128A114B250A1280
:100648008A111A3083120313CF00F730CE00CE0B75
:100658002B2BCF0B2B2B302B30300A128A11FC247A
:100668000A128A11073083120313CF007C30CE00A0
:10067800CE0B3C2BCF0B3C2B000030300A128A11DA
:10068800FC240A128A11413083120313CE00CE0BC8
:100698004B2B4E2B30300A128A11FC240A128A1175
:1006A8003C300A128A11FC240A128A1108300A12F4
:1006B8008A11FC240A128A1101300A128A11FC24B8
:1006C8000A128A1106300A128A11FC240A128A11A7
:1006D8000800F500831603130F14962B0F168F16B8
:1006E8000F17B82B0F128F160F17B82B0F168F1264
:1006F8000F17B82B0F128F120F17B82B0F128F1658
:100708000F17B82B0F128F160F13B82B0F168F1247
:100718000F13B82B0F128F160F17B82B0F128F1637
:100728000F17B82B7508F300F4017408003A031981
:100738009E2B922B7308013A03197E2B033A031957
:100748007A2B063A0319762B0C3A0319722B043AC2
:1007580003198A2B153A0319862B063A03198E2B8F
:100768002D3A0319822B922B08008316031789014F
:1007780003308316031385008601803087008801C3
:100788008901F30103300A128A1180240A128A119E
:100798008316031395019601C43081008312031355
:1007A80090010C103C308F00B0308E0004300A12DB
:1007B8008A116D230A128A11F30100300A128A1174
:1007C800A4240A128A118312031385018601870162
:1007D800880189014030831603138C008D01831230
:1007E80003138C018D01C0308B0008000B1DFD2BFD
:1007F800FE2BFF2B0B11831203130C1C042C052C4E
:10080800062C0C100C1F092C0A2C1D2C1F0CF00098
:10081800700C0F39003A031D122C132C182C1E08CB
:10082800F0007008DE001C2C1E08F0007008DD00C7
:100838000C130B1C202C212C222C0B1072088A0064
:10084800710E8300FE0E7E0E090020344C346F3486
:1008580073342034763461346C346F3472346534D4
:10086800733420346434653420346C346F34733416
:10087800203470346F34743465346E3463346934BE
:100888006F346D346534743472346F347334203497
:1008980073346F346E343A340A3420345334313478
:1008A8003A342034003483120313D000CE01CF0130
:1008B800722C4E08500784000A128A11E1240A1289
:1008C8008A110A128A11C4240A128A110130831269
:1008D8000313CE070318CF0A0030CF074E0850077E
:1008E80084000A128A11E1240A128A11003A031DAF
:1008F8007E2C7F2C5D2C0800F500750883160317E5
:10090800880089017508831603138500C330831294
:1009180003139F052130F400F40B902C831203136A
:100928001F141F083F3940389F00730C83160313A8
:10093800031C9F1303189F171F129F120C17080000
:10094800F400831603131812181518139816831237
:1009580003139817181318168316031787111930DD
:1009680083160313990001309A00740C031C0C12AF
:1009780003180C16730C031C8C1203188C16080031
:10098800F5007508F4007408F6007608F400740899
:10099800F70083120313091477080A128A114B25EA
:1009A8000A128A118312031389140D30F400F40B10
:1009B800DB2C831203138910080004308A00040812
:1009C800840A82070034533431343A3420342034D2
:1009D8002034533432343A342034203443344F34BE
:1009E8004E3454343A340034203420342034003423
:1009F800F60083120313091076080A128A114B2590
:100A08000A128A118312031389140630F500303054
:100A1800F400F40B0D2DF50B0D2D000083120313BC
:100A280089100800F600F501761C1B2D1C2D202DC1
:100A38007308F4007408F5070310F30D0310F60C9F
:100A48007608031D282D292D182D750808007E0805
:100A58008A007F0882000A128A112B250A128A113D
:100A68008000840A04087D0603190034FF0A03196C
:100A7800FE0A2F2D00300A128A11FC240A128A114C
:100A880001300A128A11FC240A128A110800F300A4
:0A0A9800730883120313880008009E
:04400E00D420FF3F7C
:00000001FF
