:020000040000FA
:060000000A128A110C280F
:10000800FE00030EF1000A08F2000A128A11912B71
:100018000A128A110F28F801F901FA018312031351
:10002800A001A101A201A301A401A501A601A701A4
:10003800A801A901AA0183010A128A112329F6003D
:10004800831203139F1829282A281A29E3287603DC
:10005800031D2F2830283328C3309F051A291F086D
:10006800C33904389F001A2902307606031D3D283B
:100078003E284128C3309F051A291F08C33908386C
:100088009F001A2903307606031D4B284C284F2859
:10009800C3309F051A291F08C3390C389F001A2935
:1000A80004307606031D59285A285D28C3309F0559
:1000B8001A291F08C33910389F001A2905307606F7
:1000C800031D672868286B28C3309F051A291F0855
:1000D800C33914389F001A2906307606031D75287F
:1000E80076287928C3309F051A291F08C33918387C
:1000F8009F001A2907307606031D8328842887283D
:10010800C3309F051A291F08C3391C389F001A29B4
:1001180008307606031D912892289528C3309F053C
:100128001A291F08C33920389F001A290930760672
:10013800031D9F28A028A328C3309F051A291F083C
:10014800C33924389F001A290A307606031DAD28C2
:10015800AE28B128C3309F051A291F08C33928388B
:100168009F001A290B307606031DBB28BC28BF2820
:10017800C3309F051A291F08C3392C389F001A2934
:100188000C307606031DC928CA28CD28C3309F0520
:100198001A291F08C33930389F001A290D307606EE
:1001A800031DD728D828DB28C3309F051A291F0824
:1001B800C33934389F001A29C3309F051A291F0CE8
:1001C800F300730C0F39F400F5017508003A0319B0
:1001D800EE281A297408003A03192B28013A031942
:1001E8003828033A03194628013A03195428073ACC
:1001F80003196228013A03197028033A03197E2863
:10020800013A03198C280F3A03199A28013A03195D
:10021800A828033A0319B628013A0319C428073A4B
:100228000319D228013A0319E0281A293130F300BA
:10023800F30B1C291F29831203139F1408000A12A9
:100248008A1158230A128A110A128A11BE220A1226
:100258008A1102300A128A1123200A128A110A12FC
:100268008A1178240A128A11F701F70A01300A1252
:100278008A1166220A128A1101300A128A11C423CD
:100288000A128A118312031326080A128A11FF21FF
:100298000A128A11F701F70A02300A128A11662235
:1002A8000A128A1178080A128A1111240A128A116C
:1002B80079080A128A1111240A128A117A080A1274
:1002C8008A1111240A128A1112300A128A11C423BF
:1002D8000A128A118312031325080A128A11FF21B0
:1002E8000A128A1178080A128A1111240A128A112C
:1002F80079080A128A1111240A128A117A080A1234
:100308008A1111240A128A11823083120313B5004C
:10031800DD30B400B40B8E29B50B8E292D290A12B5
:100328008A110C2883120313AC01F41F9C299D2900
:10033800A429F309F409F30A0319F40AAC01AC0A75
:10034800F61FA729A829B129F509F609F50A0319FD
:10035800F60A0130F7007708AC06AD01AE01730864
:1003680074040319B829B929F029AB01AB0AC729C4
:1003780001300310F30DF40DFF3E031DBD290130BC
:10038800F7007708AB07F41FCA29CB29BC2901302D
:100398000310AD0DAE0DFF3E031DCC297408760287
:1003A800031DD82973087502031CDB29DC29E329FE
:1003B8007308F5027408031CF603F6022D140130C5
:1003C8000310F40CF30CFF3E031DE4290130AB02CB
:1003D800031DEF29F029CB292C080319F429F52945
:1003E800FA29AD09AE09AD0A0319AE0A2E08F400C0
:1003F8002D08F300080083120313B2003208AF007F
:100408002F08B3006430F3000030F4003308AF0065
:10041800B0012F08F5003008F6000A128A1196215B
:100428000A128A11730883120313B1003108F80005
:100438009C30AF002F08F30078080A128A11632451
:100448000A128A11831203133307B0003008B3006D
:100458000A30F3000030F4003308AF00B0012F0871
:10046800F5003008F6000A128A1196210A128A113C
:10047800730883120313B1003108F900F630AF0096
:100488002F08F30079080A128A1163240A128A11C4
:10049800831203133307B0003008B3003308AF00EA
:1004A8002F08FA007808303EAF002F08F8007908C6
:1004B800303EAF002F08F9007A08303EAF002F0811
:1004C800FA00080083120313AD002D03031D6D2AE3
:1004D8006E2A932A77087F3EAB002B08B0003008BD
:1004E800AB0004300310AB0CFF3E031D762A2B082B
:1004F800AC002C08AE0030080F39AB002B08AF0059
:100508002E080A128A1149240A128A118312031327
:100518002F080A128A1149240A128A11BD2A0230A8
:100528002D06031D982A992ABD2A7708BF3EAB00DD
:100538002B08B0003008AB0004300310AB0CFF3EB2
:10054800031DA12A2B08AC002C08AE003008F03996
:10055800AB002B08AF002E080A128A1149240A1290
:100568008A11831203132F080A128A1149240A12C6
:100578008A11080000300A128A1185240A128A1189
:100588001A3083120313AC00F730AB00AB0BCA2A46
:10059800AC0BCA2ACF2A30300A128A1149240A120F
:1005A8008A11073083120313AC007C30AB00AB0B0D
:1005B800DB2AAC0BDB2A000030300A128A114924EE
:1005C8000A128A11413083120313AB00AB0BEA2ADB
:1005D800ED2A30300A128A1149240A128A113C3055
:1005E8000A128A1149240A128A1108300A128A1139
:1005F80049240A128A1101300A128A1149240A125E
:100608008A1106300A128A1149240A128A1108002E
:10061800F500831603130F14352B0F168F160F17BB
:10062800572B0F128F160F17572B0F168F120F17E6
:10063800572B0F128F120F17572B0F128F160F17DA
:10064800572B0F128F160F13572B0F168F120F13CE
:10065800572B0F128F160F17572B0F128F160F17B6
:10066800572B7508F300F4017408003A03193D2B61
:10067800312B7308013A03191D2B033A0319192B5F
:10068800063A0319152B0C3A0319112B043A0319CE
:10069800292B153A0319252B063A03192D2B2D3A28
:1006A8000319212B312B0800831603178901033006
:1006B8008316031385008601870188018901F301E8
:1006C80003300A128A11ED230A128A1183160313C2
:1006D80095019601C43081008312031390010C1018
:1006E8003C308F00B0308E0004300A128A110C237F
:1006F8000A128A1183120313850186018701880172
:1007080089014030831603138C008D018312031373
:100718008C018D01C0308B0008000B1D942B952B8C
:100728009A2B64308312031381000B118312031375
:100738000C1C9F2BA02BA12B0C100C1FA42BA52B42
:10074800B82B1F0CF000700C0F39003A031DAD2BAD
:10075800AE2BB32B1E08F0007008A600B72B1E089E
:10076800F0007008A5000C130B1CBB2BBC2BBD2B79
:100778000B1072088A00710E8300FE0E7E0E0900AF
:1007880083120313AD00AB01AC01DF2B2B082D073F
:1007980084000A128A112E240A128A110A128A1156
:1007A80011240A128A11013083120313AB070318AC
:1007B800AC0A0030AC072B082D0784000A128A11F6
:1007C8002E240A128A11003A031DEB2BEC2BCA2B9C
:1007D8000800F50075088316031788008901750855
:1007E800831603138500C330831203139F0521303A
:1007F800F400F40BFD2B831203131F141F083F3959
:1008080040389F00730C83160313031C9F130318AF
:100818009F171F129F120C170800F5007508F400A7
:100828007408F6007608F4007408F70083120313BE
:10083800091477080A128A1185240A128A11831268
:10084800031389140D30F400F40B282C83120313BE
:100858008910080004308A000408840A82070034DA
:10086800533431343A34203420342034533432343D
:100878003A342034203443344F344E3454343A34E8
:1008880000342034203420340034F600831203135B
:10089800091076080A128A1185240A128A1183120D
:1008A800031389140630F5003030F400F40B5A2C89
:1008B800F50B5A2C00008312031389100800F60068
:1008C800F501761C682C692C6D2C7308F4007408EB
:1008D800F5070310F30D0310F60C7608031D752CAD
:1008E800762C652C7508080000300A128A114924F4
:1008F8000A128A1101300A128A1149240A128A112D
:0E0908000800F3007308831203138800080030
:04400E00D420FF3F7C
:00000001FF
