:020000040000FA
:060000000A128A110E280D
:10000800FE00030EF2000408F3000A08F4000A12C6
:100018008A1122280A128A1111280A128A11022228
:100028000A128A11F900A501A601A701F501F60136
:10003800F701F80183010A128A11E82983120313D0
:100048000C1C272828283C280C103C308F00B03086
:100058008E000130F0007008A5070B302502031848
:10006800362837283928F8013C28F801F80AA5016C
:100078000B1C3F284028D72806184328442848281E
:10008800A701A70AF601F50186184B284C288F28E6
:100098007703031D502851288F280130F00070087D
:1000A800F6076D2805148F28851405108F28051567
:1000B80085108F28851505118F28051685118F281D
:1000C800851605128F28051785128F2885170513A1
:1000D8008F287608F000F1017108003A0319752895
:1000E8008F287008013A03195628033A031958282B
:1000F800013A03195B28073A03195E28013A0319E4
:100108006128033A03196428013A031967280F3A4A
:1001180003196A288F28061992289328D628770366
:10012800031D97289828D6280130F0007008F50795
:10013800B4280714D62887140710D628071587105F
:10014800D62887150711D62807168711D6288716A7
:100158000712D62807178712D62887170713D62815
:100168007508F000F1017108003A0319BC28D62877
:100178007008013A03199D28033A03199F28013A88
:100188000319A228073A0319A528013A0319A82830
:10019800033A0319AB28013A0319AE280F3A031999
:1001A800B128D6280B1074088A0073088400720ED0
:1001B8008300FE0E7E0E090083120313A200162987
:1001C8003F30A0002008A3003E290630A0002008E8
:1001D800A3003E295B30A0002008A3003E294F3031
:1001E800A0002008A3003E296630A0002008A30034
:1001F8003E296D30A0002008A3003E297D30A000D4
:100208002008A3003E290730A0002008A3003E29AB
:100218007F30A0002008A3003E296730A0002008F6
:10022800A3003E292208A000A1012108003A0319D1
:100238001E29E4282008003A0319E428013A031982
:10024800E928033A0319EE28013A0319F328073A73
:100258000319F828013A0319FD28033A031902295A
:10026800013A031907290F3A03190C29013A03190E
:100278001129E428230808008312031306138613A0
:100288007803031D482949299C290130F9020330C4
:100298007906031D502951295C2903300A128A1155
:1002A800E0200A128A118312031388008615F801C8
:1002B80002307906031D612962296C2902300A126D
:1002C8008A11E0200A128A11831203138800F801A8
:1002D8007903031D702971297D29861106160130BD
:1002E8000A128A11E0200A128A1183120313880065
:1002F800F8017908031D812982299029861606129A
:1003080000300A128A11E0200A128A11831203139C
:100318008800F701F70AF8017803031D9429952945
:100328009C290430A4002408F9008801A70186123A
:1003380008008316031788018901831603138501B2
:10034800073086008701880189010730950007304A
:1003580096004430810011308312031390000C1072
:100368003C308F00B0308E00831603130F148312B5
:10037800031385018601870188018901C8308B0034
:100388000130831603138C008D01831203138C0133
:10039800080009307602031CD229D329DA29F6018C
:1003A80083120313061787018501F70109307502C7
:1003B800031CDF29E029E729F501831203138617B7
:1003C80087018501F70108000A128A119D210A1286
:1003D8008A11831203132703031DF329F429F9292A
:1003E8000A128A1140210A128A110A128A11CD2191
:0E03F8000A128A11ED290A128A110E28043405
:04400E00D420FF3F7C
:00000001FF
