:020000040000FA
:060000000A128A110C280F
:10000800FE00030EF0000A08F1000A128A115C2AA9
:100018000A128A110F28F801F901FA018312031351
:10002800B301B401B501B601B701B80183010A12E1
:100038008A111E280A128A11D9210A128A110A1253
:100048008A1153220A128A115030F2000030F3004C
:100058000A128A1140220A128A110130F200003075
:10006800F3000A128A1140220A128A110A128A110E
:100078004A220A128A11023083120313B200043092
:10008800B100B930B000B00B4728B10B4728B20B0C
:1000980047284E280A128A1153220A128A1151300F
:1000A800F2000030F3000A128A1140220A128A1163
:1000B80000300A128A110B220A128A1183120313C2
:1000C800B0003008B4000A128A114A220A128A11B2
:1000D800023083120313B2000430B100B930B0000B
:1000E800B00B7428B10B7428B20B74287B280A1241
:1000F8008A1153220A128A115030F2000030F3009C
:100108000A128A1140220A128A110230F2000030C3
:10011800F3000A128A1140220A128A110A128A115D
:100128004A220A128A11023083120313B2000430E1
:10013800B100B930B000B00B9F28B10B9F28B20BAB
:100148009F28A6280A128A1153220A128A115130AE
:10015800F2000030F3000A128A1140220A128A11B2
:1001680000300A128A110B220A128A118312031311
:10017800B0003008B3000A128A114A220A128A1102
:10018800023083120313B2000430B100B930B0005A
:10019800B00BCC28B10BCC28B20BCC28D3288312B7
:1001A80003133408880023280A128A110C28003007
:1001B800F6000030F5000030F4000030F300831240
:1001C800031323082204210420040319EC28ED2832
:1001D8003A29F701F70AFD280130F2000310A00DB3
:1001E800A10DA20DA30DF20BF2280130F200720846
:1001F800F707A31F00290129F0280130F200031096
:10020800F30DF40DF50DF60DF20B03292308270263
:10021800031D182922082602031D18292108250272
:10022800031D182920082402031C1B291C292B291B
:100238002008A4022108031C210FA5022208031C80
:10024800220FA6022308031C230FA70273140130F0
:100258000310A30CA20CA10CA00CFF3E031D2C291B
:100268000130F702031D39293A2901297608A3002C
:100278007508A2007408A1007308A0000800F40023
:100288007B29831603130F168F160F179D298316C4
:1002980003130F128F160F179D29831603130F16BA
:1002A8008F120F179D29831603130F128F120F1722
:1002B8009D29831603130F128F160F179D29831676
:1002C80003130F128F160F139D29831603130F168E
:1002D8008F120F139D29831603130F128F160F17F2
:1002E8009D29831603130F128F160F179D29740863
:1002F800F200F3017308003A03198329752972087B
:10030800013A03195729033A03195129063A0319DF
:100318004B290C3A03194529043A03196929153A56
:1003280003196329063A03196F292D3A03195D2920
:1003380075290F14080028308312031394008316BC
:1003480003139101831203132808AC002908AD0098
:100358002A08AE002B08AF0002300310AC0DAD0D1B
:10036800AE0DAF0DFF3E031DB1292F08A3002E08C7
:10037800A2002D08A1002C08A0000030A7003D30E5
:10038800A6000930A5000030A4000A128A11DB205B
:100398000A128A11831203132008FF3E83160313DF
:1003A800930094018715071608008316031789011F
:1003B8008316031385018601870188018901C430EA
:1003C800810008300A128A1143210A128A1100306A
:1003D80083120313AB000130AA008630A900A030B5
:1003E800A8000A128A119F210A128A118312031384
:1003F80085018601870188018901831603138C0111
:100408008D01831203138C018D018B010800F30009
:100418000A128A1133220A128A11831603139115BC
:100428000A128A1133220A128A118312031313083B
:10043800F2007208F4000A128A1133220A128A1191
:100448007303031D282A292A2D2A831603139112C0
:10045800302A8316031391161116740808008316A0
:1004680003131419382A392A332A11081F39031D8E
:100478003E2A3F2A332A08000A128A1133220A1216
:100488008A11720883120313930008000A128A1152
:1004980033220A128A1183160313111508000A124F
:1004A8008A1133220A128A118316031311140800C1
:0E04B80071088A00700E8300FE0E7E0E090091
:04400E00D420FF3F7C
:00000001FF
