:020000040000FA
:060000000A128A110C280F
:10000800FE00030EF0000A08F1000A128A11062AFF
:100018000A128A110F280A128A110D220A128A114D
:10002800BB00B301B401B501B601B701B801B9010C
:10003800BA01F801F901FA0183010A128A11E828C4
:100048000030F6000030F5000030F4000030F30016
:1000580083120313230822042104200403193528DA
:1000680036288328F701F70A46280130F2000310E2
:10007800A00DA10DA20DA30DF20B3B280130F2003B
:100088007208F707A31F49284A2839280130F200C7
:100098000310F30DF40DF50DF60DF20B4C282308A3
:1000A8002702031D612822082602031D6128210852
:1000B8002502031D612820082402031C64286528E2
:1000C80074282008A4022108031C210FA502220875
:1000D800031C220FA6022308031C230FA702731474
:1000E80001300310A30CA20CA10CA00CFF3E031DB1
:1000F80075280130F702031D822883284A287608CC
:10010800A3007508A2007408A1007308A0000800E5
:10011800F400C428831603130F168F160F17E6284A
:10012800831603130F128F160F17E628831603136F
:100138000F168F120F17E628831603130F128F124C
:100148000F17E628831603130F128F160F17E628CA
:10015800831603130F128F160F13E6288316031343
:100168000F168F120F13E628831603130F128F161C
:100178000F17E628831603130F128F160F17E6289A
:100188007408F200F3017308003A0319CC28BE285A
:100198007208013A0319A028033A03199A28063A63
:1001A800031994280C3A03198E28043A0319B22823
:1001B800153A0319AC28063A0319B8282D3A031939
:1001C800A628BE280F1408000A128A117D210A12D7
:1001D8008A11033083120313B2000830B10076305D
:1001E800B000B00BF528B10BF528B20BF5280000CC
:1001F8000A128A11FD210A128A119130F200003088
:10020800F3000A128A11EA210A128A110030F20058
:10021800F3000A128A11AF210A128A117208831296
:100228000313B0003008B9000A128A11F4210A1227
:100238008A11033083120313B2000830B1007630FC
:10024800B000B00B2529B10B2529B20B25290000D8
:100258008312031339088800033083120313B20092
:100268000830B1007630B000B00B3829B10B38290E
:10027800B20B38290000ED280A128A110C28283000
:10028800831203139400831603139101831203133B
:100298002808AC002908AD002A08AE002B08AF00DA
:1002A80002300310AC0DAD0DAE0DAF0DFF3E031DBA
:1002B80055292F08A3002E08A2002D08A1002C08FC
:1002C800A0000030A7007A30A6001230A500003048
:1002D800A4000A128A1124200A128A118312031315
:1002E8002008FF3E83160313930094018715071611
:1002F80008008316031789018316031385018601F5
:10030800870188018901C430810008300A128A11E6
:100318008C200A128A11003083120313AB000130BB
:10032800AA008630A900A030A8000A128A11432129
:100338000A128A1183120313850186018701880135
:100348008901831603138C018D01831203138C0119
:100358008D018B0108000A128A11DD210A128A1107
:100368008316031391150A128A11DD210A128A11C4
:10037800831203131308F400F5017408F6007508D6
:10038800F7000A128A11DD210A128A117203730416
:10039800031DCF29D029D429831603139112D729F5
:1003A80083160313911611167708F3007608F200E6
:1003B8000800831603131419E229E329DD2911081B
:1003C8001F39031DE829E929DD2908000A128A11C5
:1003D800DD210A128A1172088312031393000800A0
:1003E8000A128A11DD210A128A11831603131115C4
:1003F80008000A128A11DD210A128A1183160313D2
:100408001114080071088A00700E8300FE0E7E0E1B
:0404180009000A3499
:04400E00D420FF3F7C
:00000001FF
