:020000040000FA
:060000000A128A110E280D
:10000800FE00030EF6000408F7000A08F8000A12BA
:100018008A11592A0A128A1111280A128A11BC2334
:100028000A128A11AD00A801A901AA01AB01AC010D
:10003800F901FA01FB01FC01FD0183010A128A1191
:10004800382B83120313A3009F182B282C285D2913
:1000580026292303031D312832283528C3309F055C
:100068005D292308A000A00DA00D1F082006C33994
:1000780020069F005D2902302306031D44284528D9
:100088004828C3309F055D292308A000A00DA00DB6
:100098001F082006C33920069F005D290330230668
:1000A800031D572858285B28C3309F055D2923085E
:1000B800A000A00DA00D1F082006C33920069F0030
:1000C8005D2904302306031D6A286B286E28C33077
:1000D8009F055D292308A000A00DA00D1F0820067C
:1000E800C33920069F005D2905302306031D7D289E
:1000F8007E288128C3309F055D292308A000A00D14
:10010800A00D1F082006C33920069F005D29063070
:100118002306031D902891289428C3309F055D2944
:100128002308A000A00DA00D1F082006C339200633
:100138009F005D2907302306031DA328A428A728AC
:10014800C3309F055D292308A000A00DA00D1F083E
:100158002006C33920069F005D2908302306031DA9
:10016800B628B728BA28C3309F055D292308A00000
:10017800A00DA00D1F082006C33920069F005D2989
:1001880009302306031DC928CA28CD28C3309F0576
:100198005D292308A000A00DA00D1F082006C33963
:1001A80020069F005D290A302306031DDC28DD2870
:1001B800E028C3309F055D292308A000A00DA00DED
:1001C8001F082006C33920069F005D290B3023062F
:1001D800031DEF28F028F328C3309F055D29230865
:1001E800A000A00DA00D1F082006C33920069F00FF
:1001F8005D290C302306031D022903290629C33073
:100208009F055D292308A000A00DA00D1F0820064A
:10021800C33920069F005D290D302306031D1529CB
:1002280016291929C3309F055D292308A000A00DB0
:10023800A00D1F082006C33920069F005D29C33082
:100248009F055D291F0CA000200C0F39A100A201F9
:100258002208003A031931295D292108003A0319B7
:100268002D28013A03193F28033A03195228013A65
:1002780003196528073A03197828013A03198B28C6
:10028800033A03199E28013A0319B1280F3A0319B2
:10029800C428013A0319D728033A0319EA28013A6E
:1002A8000319FD28073A03191029013A03192329CC
:1002B8005D29313083120313A000A00B612983123A
:1002C80003139F14080083120313A200BB293F30B5
:1002D800A0002008A300F5290630A0002008A300EC
:1002E800F5295B30A0002008A300F5294F30A000B5
:1002F8002008A300F5296630A0002008A300F529EE
:100308006D30A0002008A300F5297D30A00020084A
:10031800A300F5290730A0002008A300F5297F30A5
:10032800A0002008A300F5296730A0002008A3003A
:10033800F5297730A0002008A300F5297C30A0001B
:100348002008A300F5293930A0002008A300F529CA
:100358005E30A0002008A300F5297930A00020080D
:10036800A300F5297130A0002008A300F529220870
:10037800A000A1012108003A0319C3296B2920080C
:10038800003A03196B29013A03197029033A031932
:100398007529013A03197A29073A03197F29013A7D
:1003A80003198429033A03198929013A03198E2963
:1003B8000F3A03199329013A03199829033A0319A3
:1003C8009D29013A0319A229073A0319A729013AD5
:1003D8000319AC29033A0319B129013A0319B629BB
:1003E8006B292308080083120313A2008316031342
:1003F8000F14342A831603130F168F160F17582A53
:10040800831603130F128F160F17582A8316031318
:100418000F168F120F17582A831603130F128F12F5
:100428000F17582A831603130F128F160F17582AFF
:10043800831603130F128F160F13582A83160313EC
:100448000F168F120F13582A831603130F128F16C5
:100458000F17582A831603130F128F160F17582ACF
:10046800831203132208A000A1012108003A0319EE
:100478003E2A2E2A2008013A0319102A033A0319A2
:100488000A2A063A0319042A0C3A0319FE29043ADF
:100498000319222A153A03191C2A063A0319282A8D
:1004A8002D3A0319162A2E2A08000B1D5C2A5D2AEC
:1004B800812A64308312031381000B118601712A8B
:1004C8007A08870006160130F4007408FB07812AB1
:1004D800790887008616FB01812A7B08F400F5015C
:1004E8007508003A0319792A812A7408003A031911
:1004F800642A013A03196C2A812A831203130C1FF8
:10050800862A872A962A1F0CF400740C0F390A12BF
:100518008A11F9220A128A11F50075088312031349
:10052800AB000C130C1C992A9A2A9B2A0C100B1C42
:100538009E2A9F2AAE2A0618A22AA32AA72A013091
:10054800F400740888078618AA2AAB2AAD2A013055
:1005580088020B1078088A0077088400760E8300DA
:10056800FE0E7E0E090083160317880189010130EB
:1005780083160313850003308600870188018901EB
:1005880083120313A00101300A128A1166230A128A
:100598008A11033083160313950003309600443004
:1005A800810011308312031390000C103C308F002F
:1005B800B0308E0004300A128A11F7210A128A110B
:1005C800831603130F148312031385018601870111
:1005D80088018901831603138C018D01831203138B
:1005E8008C018D01E8308B000800F200022B831289
:1005F80003131E08F0007008F300362B7208F00091
:10060800F1017108003A03190A2B362B7008003AD9
:100618000319FB2A013A0319FB2A033A0319FB2A97
:10062800013A0319FB2A073A0319FB2A013A03196D
:10063800FB2A033A0319FB2A013A0319FB2A0F3A4A
:100648000319FB2A013A0319FB2A033A0319FB2A67
:10065800013A0319FB2A073A0319FB2A013A03193D
:10066800FB2A362B730808000A128A11B7220A12CD
:100678008A1101300A128A1125200A128A1183125E
:1006880003132B080A128A11AB230A128A11831248
:1006980003132908A7002708A40028080A128A11AA
:1006A80091230A128A118312031308082B02031CD0
:1006B8005E2B5F2B612B86153D2B86113D2B0A1275
:1006C8008A110E2883120313A20022088316031727
:1006D80088008901831203132208831603138500F7
:1006E800C330831203139F05203083120313A10024
:1006F800A10B7C2B0000831203131F141F083F3922
:1007080040389F00200C83160313031C9F13031803
:100718009F171F129F120C17080083120313A600BD
:1007280026080A128A1167210A128A1183120313F2
:10073800A5002508FA0024080A128A1167210A125E
:100748008A1183120313A5002508F90008008312F3
:100758000313A10021080F39A0002008A9002108CF
:10076800F039A0002008A800A80E0F30A80508003E
:02077800043447
:04400E00D420FF3F7C
:00000001FF
