:020000040000FA
:060000000A128A11122809
:10000800FE00030E83120313E3000408E4000A0849
:10001800E5007F08E6000A128A15182F0A128A11CD
:10002800152883120313E701E801E901EA01EB014E
:10003800EC01ED01EE0183160313A40183010A12FA
:100048008A11C62F8312031323088039A8002808B1
:10005800AD002308A8002807A9002908B300A21F9B
:100068003628372838283314330803193C283D2804
:100078004C28330A031D412842284A280030A3008F
:100088000030A2000030A1000030A000A2175428C0
:100098000030A3000030A2000030A1000030A00012
:1000A80027088039A8002808AD062708A8002807CF
:1000B800A9002908B200A61F622863286428321400
:1000C80032080319682869287828320A031D6D2820
:1000D8006E2876280030A7000030A6000030A50062
:1000E8000030A400A61780280030A7000030A60022
:1000F8000030A5000030A4003208031984288528A0
:100108008A283308031D89288A2893280030A300E9
:100118000030A2000030A1000030A000862B20088B
:10012800A8002808F00026080A128A15FA240A12DC
:100138008A11710883120313B9007008B8003808CF
:10014800A800A901AA01AB012B08B1002A08B00038
:100158002908AF002808AE003908A800A901AA019B
:10016800AB012B08B7002A08B6002908B5002808F3
:10017800B4002108A8002808F00025080A128A15EA
:10018800FA240A128A11710883120313B90070083D
:10019800B8003808A800A901AA01AB012808AE07D1
:1001A800290803110318013E0319DB28AF072A08A1
:1001B80003110318013E0319E228B0072B080311A5
:1001C8000318013E0319E928B1073908A800A90155
:1001D800AA01AB012808B407290803110318013E36
:1001E8000319F728B5072A0803110318013E031954
:1001F800FE28B6072B0803110318013E0319052929
:10020800B7072208A8002808F00024080A128A154F
:10021800FA240A128A11710883120313B9007008AC
:10022800B8003808A800A901AA01AB012808AE0740
:10023800290803110318013E03192329AF072A08C7
:1002480003110318013E03192A29B0072B080311CB
:100258000318013E03193129B1073908A800A9017B
:10026800AA01AB012808B407290803110318013EA5
:1002780003193F29B5072A0803110318013E03197A
:100288004629B6072B0803110318013E03194D2907
:10029800B7070830A8000310AE0DAF0DB00DB10DB3
:1002A800A80B4F292108A8002808F00024080A12E2
:1002B8008A15FA240A128A11710883120313B900E5
:1002C8007008B8003808A8003908A900AA01AB01CD
:1002D8002808AE07290803110318013E03197529D8
:1002E800AF072A0803110318013E03197C29B00738
:1002F8002B0803110318013E03198329B1072008AD
:10030800A8002808F00025080A128A15FA240A12FB
:100318008A11710883120313B9007008B8003808ED
:10032800A8003908A900AA01AB012808AE072908C6
:1003380003110318013E0319A229AF072A08031164
:100348000318013E0319A929B0072B080311031844
:10035800013E0319B029B1070830A8000310AE0DFB
:10036800AF0DB00DB10DA80BB2292008A8002808C0
:10037800F00024080A128A15FA240A128A11710850
:1003880083120313B9007008B8003808A8003908A8
:10039800A900AA01AB012808AE0729080311031810
:1003A800013E0319D829AF072A0803110318013E93
:1003B8000319DF29B0072B0803110318013E03199D
:1003C800E629B1072108A8002808F00026080A1223
:1003D8008A15FA240A128A11710883120313B900C4
:1003E8007008B8003808A8003908A900AA01AB01AC
:1003F8002808B407290803110318013E0319052A20
:10040800B5072A0803110318013E03190C2AB60779
:100418002B0803110318013E0319132AB7072208F2
:10042800A8002808F00025080A128A15FA240A12DA
:100438008A11710883120313B9007008B8003808CC
:10044800A8003908A900AA01AB012808B40729089F
:1004580003110318013E0319322AB5072A080311AC
:100468000318013E0319392AB6072B08031103188C
:10047800013E0319402AB7072208A8002808F000FF
:1004880026080A128A15FA240A128A117108831298
:100498000313B9007008B8003808A8003908A90083
:1004A800AA01AB0108300310A80DA90DAA0DAB0DC8
:1004B800FF3E031D572A2808B4072908031103180B
:1004C800013E0319682AB5072A0803110318013EDB
:1004D80003196F2AB6072B0803110318013E0319E5
:1004E800762AB7072E08A8002F08A9003008AA0006
:1004F8003108AB0018300310AB0CAA0CA90CA80CDF
:10050800FF3E031D7F2A2808B40729080311031892
:10051800013E0319902AB5072A0803110318013E62
:100528000319972AB6072B0803110318013E03196C
:100538009E2AB7070830A8000310AE0DAF0DB00D06
:10054800B10DA80BA02A33083207A800A901A90DEC
:100558002808823EB80029080318013EFF3EB9006A
:10056800D22A0130A8000310B40DB50DB60DB70D91
:10057800A80BB72AB11FC12AC22AC32A34140130D2
:10058800A8000310AE0DAF0DB00DB10DA80BC52A14
:10059800FF30B8070318B90AFF30B907B61FD52AC4
:1005A800D62AB52AB201B11FDA2ADB2AF72AFF3088
:1005B8002E05A800FF302F05A900FF303005AA003E
:1005C8007F303105AB002B082A04290428040319BD
:1005D800EE2AEF2AF22AB201B20AF72A341CF52AC7
:1005E800F62AF72AEF2A32080319FB2AFC2A2D2BB0
:1005F8000130B407003003180130B5070030031884
:100608000130B607003003180130B707371C0D2B2F
:100618000E2B2D2B3408A8003508A9003608AA008F
:100628003708AB000130AC002B0DAB0CAA0CA90CA1
:10063800A80CAC0B182B2B08B7002A08B600290801
:10064800B5002808B4000130B8070318B90A00300B
:10065800B9073908803AFF0080307F02031D362B26
:10066800FF303802031C392B3A2B452B7F3083127D
:100678000313B7008030B6000030B5000030B40076
:100688007A2B831203133908803AFF0080307F02E7
:10069800031D502B013038020318532B542B602BA9
:1006A800003083120313B7000030B6000030B500E5
:1006B8000030B400AD017A2B831203133808A80068
:1006C8002808B300FF30B405FF30B5057F30B60504
:1006D8000030B705331C712B722B732BB6173308F8
:1006E800A8000310280CA9002908B7002D08A800A5
:1006F8002808B7043708A3003608A2003508A10067
:100708003408A0000800831203133D088039C20092
:100718004208CA003D08C2004207C3004308CC0093
:10072800BC1F972B982B992B4C144C0803199D2B05
:100738009E2BAE2B4C0A031DA22BA32BAB2B0030F8
:10074800BD000030BC000030BB000030BA00BC1750
:10075800BD01B62B0030BD000030BC000030BB002E
:100768000030BA0041088039C2004208CB004B086B
:100778004A060319C02BC12BC22B4A174108C200D5
:100788004207C3004308CB00C01FCB2BCC2BCD2B7B
:100798004B144B080319D12BD22BE22B4B0A031D08
:1007A800D62BD72BDF2B0030C1000030C000003023
:1007B800BF000030BE00C017C101EA2B0030C100E5
:1007C8000030C0000030BF000030BE004C084B02B3
:1007D8000318EF2BF02B342C4A1FF32BF42BF82B98
:1007E8008030C2004208CA064C08C2004208CD0048
:1007F8004B08C2004208CC004D08C2004208CB009A
:100808003A08C2004208CD003E08C2004208BA00B9
:100818004D08C2004208BE003B08C2004208CD0095
:100828003F08C2004208BB004D08C2004208BF0092
:100838003C08C2004208CD004008C2004208BC0083
:100848004D08C2004208C0003D08C2004208CD0061
:100858004108C2004208BD004D08C2004208C1005C
:10086800CD014B08C200C3014308C5004C08420231
:10087800C400031CC5034508803AFF0080307F028E
:10088800031D482C1A304402031C4B2C4C2C892C79
:10089800831203133D083C043B043A04031D552C02
:1008A800572C0130582C0030C2004208CD000030CF
:1008B800BD000030BC000030BB000030BA004B085F
:1008C800C2004208CC00912C4D1C6B2C6C2C752C52
:1008D8004D08C2000310420C0138C3004308CD0084
:1008E800772C0310CD0C3A1C7A2C7B2C7C2CCD1742
:1008F8000130C2003D0DBD0CBC0CBB0CBA0CC20BC8
:100908007E2C0130C2004208CC07831203134B0827
:100918004C02031C902C912C682C4A1B942C952C6F
:10092800E02C4C08031D992C9A2CA32C0030BD00F8
:100938000030BC000030BB000030BA000E2E3E086C
:10094800BA073F0803110318013E0319AC2CBB0773
:10095800400803110318013E0319B32CBC074108D2
:1009680003110318013E0319BA2CBD073D1CBD2C09
:10097800BE2C942D4D1CC12CC22CCB2C4D08C20072
:100988000310420C0138C3004308CD00CD2C0310DE
:10099800CD0C3A1CD02CD12CD22CCD170130C20052
:1009A8003D0DBD0CBC0CBB0CBA0CC20BD42C0130D9
:1009B800C2004208CC07942D3D08803AFF00410848
:1009C800803A7F02031DF22C40083C02031DF22CE2
:1009D8003F083B02031DF22C3E083A020318F52C8F
:1009E800F62C4E2DFF30C200FF30C300FF30C4008C
:1009F800FF30C5003E08C6003F08C7004008C800D1
:100A08004108C9003A08C6023B08031C3B0F0D2DDC
:100A18000E2DC7023C08031C3C0F132D142DC802D1
:100A28003D08031C3D0F192D1A2DC9024608C2079F
:100A380047080318470F212D222DC307480803181C
:100A4800480F272D282DC40749080318490AC50748
:100A58004508BD004408BC004308BB004208BA0072
:100A68008030C2004208CA06CD09CD0A4D08031DD0
:100A78003E2D3F2D5C2D0130BA07003003180130A0
:100A8800BB07003003180130BC07003003180130E1
:100A9800BD075C2D3E08BA023F08031C3F0FBB028E
:100AA8004008031C400FBC024108031C410FBD0253
:100AB8003D083C043B043A04031D632D642D902D2E
:100AC8004D08031D682D692D902D0030BD000030A4
:100AD800BC000030BB000030BA000E2E0130C2004E
:100AE8000310BA0DBB0DBC0DBD0DC20B742DCD1F6F
:100AF8007E2D7F2D802D3A144D1C832D842D872D1E
:100B08000314CD0D892D0310CD0D4C0803198D2D1F
:100B18008E2D902D0130CC02BC1F932D942D722D5B
:100B2800CB01CD1F982D992DA72D4D087F3903197D
:100B38009E2D9F2DA22DCB01CB0AA72D3A1CA52DAA
:100B4800A62DA72D9F2D4B080319AB2DAC2DE02DFD
:100B58000130BA07003003180130BB070030031812
:100B68000130BC07003003180130BD073D1CBD2D06
:100B7800BE2DE02D3A08C2003B08C3003C08C40063
:100B88003D08C5000130C600450DC50CC40CC30C9A
:100B9800C20CC60BC82D4508BD004408BC0043085C
:100BA800BB004208BA004C0A0319DB2DDC2DE02DEE
:100BB8000130C2004208CC074C0A0319E42DE52D88
:100BC800EA2D4C08031DE92DEA2DF82D0030BD0053
:100BD8000030BC000030BB000030BA004C08031DD8
:100BE800F62DF72DF82DCA014C1CFB2DFC2DFE2DE2
:100BF800BC17022E7F30C2004208BC054C08C20058
:100C08000310420CC3004308BD00CA1F0C2E0D2E52
:100C18000E2EBD17080083160313A30083120313B7
:100C28009F18172E182E402F072F2303031D1D2E44
:100C38001E2E232EC330831203139F05402F8312C9
:100C480003131F08C33904389F00402F02302306BE
:100C5800031D2F2E302E352EC330831203139F050C
:100C6800402F831203131F08C33908389F00402FF1
:100C780003302306031D412E422E472EC330831214
:100C880003139F05402F831203131F08C3390C3821
:100C98009F00402F04302306031D532E542E592E37
:100CA800C330831203139F05402F831203131F08B9
:100CB800C33910389F00402F05302306031D652EC9
:100CC800662E6B2EC330831203139F05402F8312A9
:100CD80003131F08C33914389F00402F063023061A
:100CE800031D772E782E7D2EC330831203139F05A4
:100CF800402F831203131F08C33918389F00402F51
:100D080007302306031D892E8A2E8F2EC3308312A7
:100D180003139F05402F831203131F08C3391C3880
:100D28009F00402F08302306031D9B2E9C2EA12ECA
:100D3800C330831203139F05402F831203131F0828
:100D4800C33920389F00402F09302306031DAD2EDC
:100D5800AE2EB32EC330831203139F05402F831288
:100D680003131F08C33924389F00402F0A30230675
:100D7800031DBF2EC02EC52EC330831203139F053B
:100D8800402F831203131F08C33928389F00402FB0
:100D98000B302306031DD12ED22ED72EC33083123B
:100DA80003139F05402F831203131F08C3392C38E0
:100DB8009F00402F0C302306031DE32EE42EE92E5E
:100DC800C330831203139F05402F831203131F0898
:100DD800C33930389F00402F0D302306031DF52EF0
:100DE800F62EFB2EC330831203139F05402F831268
:100DF80003131F08C33934389F00402FC3308312B0
:100E080003139F05402F1F0C83160313A000200C0B
:100E18000F39A100A2012208003A0319142F402F0C
:100E28002108003A0319192E013A03192A2E033A08
:100E380003193C2E013A03194E2E073A0319602E66
:100E4800013A0319722E033A0319842E013A031941
:100E5800962E0F3A0319A82E013A0319BA2E033A0F
:100E68000319CC2E013A0319DE2E073A0319F02E86
:100E7800013A0319022F402F633083160313A00091
:100E8800A00B442F831203139F140800031083122E
:100E98000313500D510DD2005208D8005808031DF5
:100EA800562F572F602F0030D1000030D00000306F
:100EB800CF000030CE00C52F4E08D2004F08D30017
:100EC8005008D4005108D5001F300310D50CD40C9D
:100ED800D30CD20CFF3E031D692F5208D6005608CA
:100EE800D700D017FF30CE05FF30CF05FF30D00533
:100EF8000030D1059630D802D81F832F842F9E2F1B
:100F08005808803A973E03188A2F8B2F8C2F572F1B
:100F180001300310D10CD00CCF0CCE0CFF3E031DBA
:100F28008D2F0130D2005208D807031D9C2F9D2F0A
:100F38008C2FB52F20305802031CA32FA42FB02FBD
:100F4800572F0130D2000310CE0DCF0DD00DD10D8B
:100F5800D20BA72F0130D8025808031DB42FB52F84
:100F6800A52F57080319B92FBA2FC52FCE09CF09B6
:100F7800D009D109CE0A0319CF0A0319D00A0319D7
:100F8800D10A08000A128A1595250A128A11013019
:100F98000A128A110F260A128A1183120313851C5A
:100FA800D62FD72FDB2F83160313A401E72F85181D
:100FB800DE2FDF2FE72F83160313A401A40A831261
:100FC8000313E701E70A831268088800CB2F0A1287
:040FD8008A11122840
:1019C00083160313A00020089300363083120313FC
:1019D0009400803083160313940001309100871522
:1019E00007168B170B17831203138C11831603131F
:1019F0008C150800F800F401F5017008F200F301FD
:101A00007208F6007308F700781C072D082D0E2DBC
:101A10007608F4070318F50A7708F5070130031074
:101A2000F60DF70DFF3E031D0F2D0310F80C78087F
:101A3000031D1B2D1C2D042D7508F1007408F000EA
:101A4000080083160313A200050822068500220859
:101A50008316031788008901C330831203139F057F
:101A6000413083160313A100A10B342D372D8312AF
:101A700003131F141F083F3940389F0083160313B8
:101A8000200C031C9F1303189F171F129F120C1783
:101A9000080083160313A200712D0F168F160F175F
:101AA000932D0F128F160F17932D0F168F120F17DE
:101AB000932D0F128F120F17932D0F128F160F17D2
:101AC000932D0F128F160F13932D0F168F120F13C6
:101AD000932D0F128F160F17932D0F128F160F17AE
:101AE000932D2208A000A1012108003A0319792DA5
:101AF0006D2D2008013A0319592D033A0319552D6C
:101B0000063A0319512D0C3A03194D2D043A0319C5
:101B1000652D153A0319612D063A0319692D2D3AE1
:101B200003195D2D6D2D0F1408008316031789010D
:101B30000330831603138500860102308700880175
:101B40008901C430810008300A128A1549250A1219
:101B50008A1550300A128A15E0240A128A15831653
:101B60000313A001A00A01300A128A1521250A12C6
:101B70008A1521308312031390000C103C308F0023
:101B8000B0308E004E309200FA308316031392006C
:101B90000F30831203139D00FF3083160313A3003D
:101BA000230883120313EE00850186018701880153
:101BB00089014930831603138C008D0183120313AE
:101BC0008C018D01C0308B00831603138710080031
:101BD000831203136E08D900DA01DB01DC015C0813
:101BE000F3005B08F2005A08F1005908F0000130D8
:101BF0000A128A155E260A128A15730883120313C5
:101C0000A7007208A6007108A5007008A4003E3065
:101C1000A3007C30A200ED30A1009130A0000A1298
:101C20008A1126200A128A15831203132308C10081
:101C30002208C0002108BF002008BE004230BD00BD
:101C40007830BC000030BB000030BA000A128A11A4
:101C500087230A128A15831203133D08E0003C080B
:101C6000DF003B08DE003A08DD006008A7005F08DF
:101C7000A6005E08A5005D08A4004030A300003067
:101C8000A2000030A1000030A0000A128A11262014
:101C90000A128A15831203132308D1002208D000E8
:101CA0002108CF002008CE000A128A114A270A1202
:101CB0008A15831203134E089B000800F800780869
:101CC0000319632E642E782EF31F672E682E782E4C
:101CD0007009FA007109FB007209FC007309FD002C
:101CE000FA0A0319FB0A0319FC0A0319FD0A802EDC
:101CF0007308FD007208FC007108FB007008FA0010
:101D00007308720471047004031D872E882E912EAF
:101D10000030F3000030F2000030F1000030F0003D
:101D2000172F9630F4007408F900A32E0130F40048
:101D30007408F90701300310FD0CFC0CFB0CFA0CC5
:101D4000FF3E031D9B2EFE307D05031DA82EA92EF0
:101D5000962EC52E0130F4007408F9070130FA07F9
:101D6000003003180130FB07003003180130FC0776
:101D7000003003180130FD0701300310FD0CFC0C8E
:101D8000FB0CFA0CFF3E031DBD2EFF307D05031D2D
:101D9000CA2ECB2EAA2ED72E0130F9020130F40024
:101DA0000310FA0DFB0DFC0DFD0DF40BD02EFC1BEA
:101DB000DA2EDB2EE12E023079020318E02EE12E1E
:101DC000CC2E7918E42EE52EED2EFF30FA05FF30EB
:101DD000FB057F30FC05FF30FD050310F90C790889
:101DE000F400F501F601F70118300310F40DF50DBC
:101DF000F60DF70DFF3E031DF52E7408FA04750865
:101E0000FB047608FC047708FD0478080319092F01
:101E10000A2F0F2FF31F0D2F0E2F0F2FFD177D08E9
:101E2000F3007C08F2007B08F1007A08F00008005B
:101E30000C1C1B2F1C2F642F0C103C308F00B0305B
:101E40008E006703031D252F262F2A2F0130E10066
:101E50006108EB0732306B0203182F2F302F3A2F17
:101E60000511FF30E1006108EE000A128A15E8252D
:101E70000A128A153230831203136B06031D412F99
:101E8000422F572F0515FF30E1006108EE006E0864
:101E9000031D4B2F4C2F4D2F642F0A128A15E82556
:101EA0000A128A15013083120313EE02472FC8303D
:101EB0006B02031C5C2F5D2F642FEB01E701051102
:101EC000FF30E1006108EE000C1F672F682F7A2FAA
:101ED0001F0CE100610C0F39003A031D702F712FA8
:101EE000792F831603131E0883120313E100610880
:101EF000E8000C138C1D7D2F7E2FF52F1412141B60
:101F0000822F832F872F941F862F872F8E2F1308C2
:101F1000E1006108EC0014139413141683160313E4
:101F2000941A932F942FD02F1419972F982FD02FC6
:101F3000831203131308E1006108EC008C111416DE
:101F400083160313141CA52FA62FA02F831203138F
:101F50001308E1006108EA00A53083120313E100D1
:101F6000E10BB02FB32FBE2F6808E1006108E90034
:101F7000F32F6708E1006108E900F32F83120313D0
:101F80006A08E100E2016208003A0319C82FF32F42
:101F90006108013A0319B42F033A0319B92FF32F3B
:101FA000941AD32FD42FF32F141DD72FD82FF32FFC
:101FB000831203131308E1006108EC008316031376
:101FC000141083120313690893001416A5308312AA
:101FD0000313E100E10BEA2FED2F8316031314180E
:101FE000F22FF32FED2F83128C116608FF00650886
:101FF0008A0064088400630E8300FE0E7E0E0900D2
:04400E00D420FF3F7C
:00000001FF
