:020000040000FA
:060000000A128A110C280F
:10000800FE00030EF1000A08F2000A128A113029D4
:100018000A128A110F28F801F901FA018312031351
:10002800C001C101C201C301C401C501C601C701A4
:1000380083010A128A116C2A83120313A901A31FD0
:10004800262827283428A009A109A209A309A00A5B
:100058000319A10A0319A20A0319A30AA901A90AE3
:10006800A71F372838284728A409A509A609A709DA
:10007800A40A0319A50A0319A60A0319A70A013035
:10008800F3007308A9060030AD000030AC00003062
:10009800AB000030AA00230822042104200403191D
:1000A80056285728A428A801A80A67280130F30071
:1000B8000310A00DA10DA20DA30DF30B5C280130B8
:1000C800F3007308A807A31F6A286B285A28013071
:1000D800F3000310AA0DAB0DAC0DAD0DF30B6D289D
:1000E80023082702031D822822082602031D8228CE
:1000F80021082502031D822820082402031C8528C4
:10010800862895282008A4022108031C210FA5028F
:100118002208031C220FA6022308031C230FA70290
:100128002A1401300310A30CA20CA10CA00CFF3E52
:10013800031D96280130A802031DA328A4286B28B4
:1001480029080319A828A928B428AA09AB09AC09C1
:10015800AD09AA0A0319AB0A0319AC0A0319AD0AB7
:100168002D08A3002C08A2002B08A1002A08A00033
:10017800080083120313B6000030BA000030B9003B
:100188000030B8000030B700BB0105292E080A125C
:100198008A11EF210A128A11740883120313370790
:1001A800B2000030031801307507B4010318B40A0F
:1001B8003807B3000318B40A76083407B5010318E2
:1001C800B50A3907B4000318B50A770835073A079E
:1001D800B5003508BA003408B9003308B800320849
:1001E800B700823083120313B300DD30B200B20BC4
:1001F800FB28B30BFB28013083120313B20032082B
:10020800BB0736083B02031C0A290B29CA283B08EE
:10021800B200B301B401B5013508A3003408A20047
:100228003308A1003208A0003A08A7003908A60040
:100238003808A5003708A4000A128A1120200A12DB
:100248008A11831203132308B1002208B000210881
:10025800AF002008AE000800831203138C1D352957
:1002680036298C291412141B3A293B293F29941F3B
:100278003E293F2946291308F0007008F900141395
:100288009413141683160313941A4B294C296929BD
:1002980014194F2950296929831203131308F000F0
:1002A8007008F9008C11141683160313141C5D29A9
:1002B8005E295829831203131308F0007008C6003A
:1002C8005330F000F00B66298929941A6C296D299E
:1002D8008929141D70297129892983120313130888
:1002E800F0007008F90083160313141078088312BD
:1002F8000313930014165330F000F00B8129831672
:1003080003131418882989298329831203138C114C
:1003180072088A00710E8300FE0E7E0E0900F50039
:10032800CB29831603130F168F160F17ED29831683
:1003380003130F128F160F17ED29831603130F16C9
:100348008F120F17ED29831603130F128F120F1731
:10035800ED29831603130F128F160F17ED29831635
:1003680003130F128F160F13ED29831603130F169D
:100378008F120F13ED29831603130F128F160F1701
:10038800ED29831603130F128F160F17ED29750821
:10039800F300F4017408003A0319D329C529730836
:1003A800013A0319A729033A0319A129063A03199F
:1003B8009B290C3A03199529043A0319B929153AC6
:1003C8000319B329063A0319BF292D3A0319AD2990
:1003D800C5290F140800003083120313AD00003044
:1003E800AC000030AB000030AA008518FC29FD29BC
:1003F800F9291730A0002008A8000A128A11BB2288
:100408000A128A11013A031D0A2A0B2A412A831269
:1004180003132A08A0002B08A1002C08A2002D080D
:10042800A3000130A4000030A5000030A600003071
:10043800A700280A242A0310A40DA50DA60DA70DB0
:10044800FF3E031D1F2A2408A00725080318250FAF
:100458002E2A2F2AA10726080318260F342A352A00
:10046800A20727080318270AA3072308AD002208B4
:10047800AC002108AB002008AA0001308312031346
:10048800A802012A0800831603178901023083167F
:10049800031385008601870188018901C430810022
:1004A80004300A128A1193210A128A118312031343
:1004B80085018601870188018901831603138C0150
:1004C8008D01831203138C018D01C0308B0008004D
:1004D8000A128A1147220A128A110A128A11A622BE
:1004E8000A128A11803083120313BF003F08BC0030
:1004F80002300A128A118E220A128A1183120313F9
:1005080044088800FF30BF003F08C400822A0A124E
:100518008A110C2883120313BE003C08BD003D0855
:10052800AE003E080A128A11BD200A128A118312EF
:1005380003133108C3003008C2002F08C1002E0879
:10054800C0000800831603130510851483120313D3
:1005580005100330F5008A30F4005530F300F30B32
:10056800B32AF40BB32AF50BB32ABA2A080083126C
:10057800031305140000003083120313851801309B
:0A058800F3000510000073080800DE
:04400E00D420FF3F7C
:00000001FF
