:020000040000FA
:060000000A128A110C280F
:10000800FE00030EF1000A08F2000A128A113329D1
:100018000A128A110F28F801F901FA018312031351
:10002800C401C501C601C701C801C901CA01CB0184
:10003800CC01CD01CE0183010A128A114A2A83120A
:100048000313A901A31F29282A283728A009A109D1
:10005800A209A309A00A0319A10A0319A20A0319EC
:10006800A30AA901A90AA71F3A283B284A28A409D4
:10007800A509A609A709A40A0319A50A0319A60A26
:100088000319A70A0130F3007308A9060030AD0070
:100098000030AC000030AB000030AA002308220476
:1000A80021042004031959285A28A728A801A80AB6
:1000B8006A280130F3000310A00DA10DA20DA30DB5
:1000C800F30B5F280130F3007308A807A31F6D28FE
:1000D8006E285D280130F3000310AA0DAB0DAC0D9E
:1000E800AD0DF30B702823082702031D852822086D
:1000F8002602031D852821082502031D85282008BE
:100108002402031C8828892898282008A40221088A
:10011800031C210FA5022208031C220FA602230894
:10012800031C230FA7022A1401300310A30CA20CEE
:10013800A10CA00CFF3E031D99280130A802031D45
:10014800A628A7286E2829080319AB28AC28B728A1
:10015800AA09AB09AC09AD09AA0A0319AB0A031924
:10016800AC0A0319AD0A2D08A3002C08A2002B081D
:10017800A1002A08A000080083120313B60000306B
:10018800BA000030B9000030B8000030B700BB0139
:1001980008292E080A128A11F2210A128A117408F3
:1001A800831203133707B2000030031801307507B4
:1001B800B4010318B40A3807B3000318B40A760860
:1001C8003407B5010318B50A3907B4000318B50A8E
:1001D800770835073A07B5003508BA003408B9007A
:1001E8003308B8003208B700823083120313B30013
:1001F800DD30B200B20BFE28B30BFE2801308312AB
:100208000313B2003208BB0736083B02031C0D2952
:100218000E29CD283B08B200B301B401B501350859
:10022800A3003408A2003308A1003208A0003A084D
:10023800A7003908A6003808A5003708A4000A1244
:100248008A1123200A128A11831203132308B1008A
:100258002208B0002108AF002008AE000800831271
:1002680003138C1D382939298F291412141B3D2991
:100278003E294229941F4129422949291308F0009F
:100288007008F90014139413141683160313941AA0
:100298004E294F296C291419522953296C29831284
:1002A80003131308F0007008F9008C111416831654
:1002B8000313141C602961295B2983120313130893
:1002C800F0007008CD005330F000F00B69298C293C
:1002D800941A6F2970298C29141D732974298C2963
:1002E800831203131308F0007008F9008316031330
:1002F8001410780883120313930014165330F00077
:10030800F00B84298316031314188B298C2986294A
:10031800831203138C1172088A00710E8300FE0E7B
:100328007E0E0900F500CE29831603130F168F16CB
:100338000F17F029831603130F128F160F17F029C2
:10034800831603130F168F120F17F0298316031342
:100358000F128F120F17F029831603130F128F161F
:100368000F17F029831603130F128F160F13F02996
:10037800831603130F168F120F13F0298316031316
:100388000F128F160F17F029831603130F128F16EB
:100398000F17F0297508F300F4017408003A0319DF
:1003A800D629C8297308013A0319AA29033A031957
:1003B800A429063A03199E290C3A03199829043AE4
:1003C8000319BC29153A0319B629063A0319C22993
:1003D8002D3A0319B029C8290F14080000308312D8
:1003E8000313AD000030AC000030AB000030AA00B1
:1003F8008518FF29002AFC291730A0002008A8002A
:100408000A128A110D230A128A11013A031D0D2AB4
:100418000E2A442A831203132A08A0002B08A100DD
:100428002C08A2002D08A3000130A4000030A5006C
:100438000030A6000030A700280A272A0310A40DC0
:10044800A50DA60DA70DFF3E031D222A2408A0070F
:1004580025080318250F312A322AA1072608031870
:10046800260F372A382AA20727080318270AA307BE
:100478002308AD002208AC002108AB002008AA0020
:10048800013083120313A802042A08000A128A11F1
:1004980095220A128A110A128A11F8220A128A115E
:1004A800803083120313BF003F08BC000A300A12D1
:1004B8008A11E0220A128A11403083120313BF0006
:1004C8003F08AE000A300A128A11C0200A128A11A7
:1004D800831203133108C7003008C6002F08C5006F
:1004E8002E08C4004408BF004508C0004608C100E3
:1004F8004708C2001030C300420DC20CC10CC00C2A
:10050800BF0CC30B802A4208C7004108C600400838
:10051800C5003F08C40044088800602A0A128A11EE
:100528000C28831603178901831603138501860196
:10053800870188018901C430810000300A128A11BC
:100548001B230A128A1104300A128A1196210A12F0
:100558008A11F30100300A128A11C6220A128A117E
:100568008312031385018601870188018901831697
:1005780003138C018D01831203138C018D01C0308C
:100588008B000800831603131812181518139816F1
:100598008312031398171813181683160317871155
:1005A800193083160313990001309A00730C031C49
:1005B8008C1203188C16080083120313BE003C0823
:1005C800BD003D08AE003E080A128A11C0200A127A
:1005D8008A11831203133108CB003008CA002F0890
:1005E800C9002E08C80008008316031305108514D7
:1005F8008312031305100330F5008A30F4005530D8
:10060800F300F30B052BF40B052BF50B052B0C2B2B
:10061800080083120313051400000030831203132B
:1006280085180130F3000510000073080800F30076
:1006380073088316031386007308950073089600E1
:0A06480001087F3981008B150800BE
:04400E00D420FF3F7C
:00000001FF
