:020000040000FA
:060000000A128A110E280D
:10000800FE00030EF7000408F8000A08F9000A12B7
:100018008A15482F0A128A111128F001F101F201FC
:10002800F301F40183120313EC01ED01EE01EF017A
:1000380083010A128A15432D83120313310880396C
:10004800B6003608BB003108B6003607B7003708D7
:10005800C100B01F30283128322841144108031943
:10006800362837284628410A031D3B283C284428BF
:100078000030B1000030B0000030AF000030AE00FA
:10008800B0174E280030B1000030B0000030AF008B
:100098000030AE0035088039B6003608BB06350892
:1000A800B6003607B7003708BC00B41F5C285D28C7
:1000B8005E283C143C0803196228632872283C0A0D
:1000C800031D6728682870280030B5000030B40088
:1000D8000030B3000030B200B4177A280030B50001
:1000E8000030B4000030B3000030B2003C080319FF
:1000F8007E287F2884284108031D832884288D288A
:100108000030B1000030B0000030AF000030AE0069
:10011800802B2E08B6003608A00034080A128A156B
:100128001A250A128A11831203132108C70020080E
:10013800C6004608B600B701B801B9013908C000C1
:100148003808BF003708BE003608BD004708B600AB
:10015800B701B801B9013908C5003808C400370823
:10016800C3003608C2002F08B6003608A0003308BE
:100178000A128A151A250A128A11831203132108F2
:10018800C7002008C6004608B600B701B801B90183
:100198003608BD07370803110318013E0319D5288F
:1001A800BE07380803110318013E0319DC28BF07EE
:1001B800390803110318013E0319E328C00747084B
:1001C800B600B701B801B9013608C20737080311EC
:1001D8000318013E0319F128C3073808031103184F
:1001E800013E0319F828C407390803110318013E12
:1001F8000319FF28C5073008B6003608A0003208E2
:100208000A128A151A250A128A1183120313210861
:10021800C7002008C6004608B600B701B801B901F2
:100228003608BD07370803110318013E03191D29B5
:10023800BE07380803110318013E03192429BF0714
:10024800390803110318013E03192B29C007470871
:10025800B600B701B801B9013608C207370803115B
:100268000318013E03193929C30738080311031875
:10027800013E03194029C407390803110318013E38
:1002880003194729C5070830B6000310BD0DBE0D78
:10029800BF0DC00DB60B49292F08B6003608A000BF
:1002A80032080A128A151A250A128A1183120313B0
:1002B8002108C7002008C6004608B6004708B7004E
:1002C800B801B9013608BD07370803110318013E04
:1002D80003196F29BE07380803110318013E0319D3
:1002E8007629BF07390803110318013E03197D2930
:1002F800C0072E08B6003608A00033080A128A156F
:100308001A250A128A11831203132108C70020082C
:10031800C6004608B6004708B700B801B901360854
:10032800BD07370803110318013E03199C29BE07AE
:10033800380803110318013E0319A329BF07390818
:1003480003110318013E0319AA29C0070830B60093
:100358000310BD0DBE0DBF0DC00DB60BAC292E0888
:10036800B6003608A00032080A128A151A250A12A1
:100378008A11831203132108C7002008C600460803
:10038800B6004708B700B801B9013608BD073708F5
:1003980003110318013E0319D229BE0738080311B7
:1003A8000318013E0319D929BF0739080311031897
:1003B800013E0319E029C0072F08B6003608A0003F
:1003C80034080A128A151A250A128A11831203138D
:1003D8002108C7002008C6004608B6004708B7002D
:1003E800B801B9013608C207370803110318013EDE
:1003F8000319FF29C307380803110318013E03191D
:10040800062AC407390803110318013E03190D2AE7
:10041800C5073008B6003608A00033080A128A1546
:100428001A250A128A11831203132108C70020080B
:10043800C6004608B6004708B700B801B901360833
:10044800C207370803110318013E03192C2AC307F2
:10045800380803110318013E0319332AC407390861
:1004680003110318013E03193A2AC5073008B600DC
:100478003608A00034080A128A151A250A128A11A9
:10048800831203132108C7002008C6004608B600D7
:100498004708B700B801B90108300310B60DB70D09
:1004A800B80DB90DFF3E031D512A3608C20737089B
:1004B80003110318013E0319622AC3073808031100
:1004C8000318013E0319692AC407390803110318E0
:1004D800013E0319702AC5073D08B6003E08B7005B
:1004E8003F08B8004008B90018300310B90CB80C20
:1004F800B70CB60CFF3E031D792A3608C207370829
:1005080003110318013E03198A2AC3073808031187
:100518000318013E0319912AC40739080311031867
:10052800013E0319982AC5070830B6000310BD0D0F
:10053800BE0DBF0DC00DB60B9A2A41083C07B60088
:10054800B701B70D3608823EC60037080318013ECA
:10055800FF3EC700CC2A0130B6000310C20DC30D00
:10056800C40DC50DB60BB12AC01FBB2ABC2ABD2AB3
:1005780042140130B6000310BD0DBE0DBF0DC00DF5
:10058800B60BBF2AFF30C6070318C70AFF30C707D4
:10059800C41FCF2AD02AAF2ABC01C01FD42AD52A0B
:1005A800F12AFF303D05B600FF303E05B700FF30A9
:1005B8003F05B8007F304005B900390838043704D2
:1005C80036040319E82AE92AEC2ABC01BC0AF12AF4
:1005D800421CEF2AF02AF12AE92A3C080319F52AD5
:1005E800F62A272B0130C207003003180130C30751
:1005F800003003180130C407003003180130C50764
:10060800451C072B082B272B4208B6004308B700C8
:100618004408B8004508B9000130BA00390DB90CD2
:10062800B80CB70CB60CBA0B122B3908C500380831
:10063800C4003708C3003608C2000130C6070318D3
:10064800C70A0030C7074708803AFF0080307F029A
:10065800031D302BFF304602031C332B342B3F2B5A
:100668007F3083120313C5008030C4000030C300FC
:100678000030C200742B831203134708803AFF002E
:1006880080307F02031D4A2B0130460203184D2B90
:100698004E2B5A2B003083120313C5000030C400C0
:1006A8000030C3000030C200BB01742B8312031357
:1006B8004608B6003608C100FF30C205FF30C30542
:1006C8007F30C4050030C505411C6B2B6C2B6D2B8E
:1006D800C4174108B6000310360CB7003708C50028
:1006E8003B08B6003608C5044508B1004408B00008
:1006F8004308AF004208AE000800831203134B08FA
:100708008039D0005008D8004B08D0005007D100DD
:100718005108DA00CA1F912B922B932B5A145A08AE
:100728000319972B982BA82B5A0A031D9C2B9D2B3A
:10073800A52B0030CB000030CA000030C9000030C3
:10074800C800CA17CB01B02B0030CB000030CA005C
:100758000030C9000030C8004F088039D000500868
:10076800D900590858060319BA2BBB2BBC2B5817AC
:100778004F08D0005007D1005108D900CE1FC52B13
:10078800C62BC72B591459080319CB2BCC2BDC2BA0
:10079800590A031DD02BD12BD92B0030CF000030A4
:1007A800CE000030CD000030CC00CE17CF01E42BB6
:1007B8000030CF000030CE000030CD000030CC003B
:1007C8005A0859020318E92BEA2B2E2C581FED2B37
:1007D800EE2BF22B8030D0005008D8065A08D000F3
:1007E8005008DB005908D0005008DA005B08D00038
:1007F8005008D9004808D0005008DB004C08D00049
:100808005008C8005B08D0005008CC004908D00048
:100818005008DB004D08D0005008C9005B08D00024
:100828005008CD004A08D0005008DB004E08D00020
:100838005008CA005B08D0005008CE004B08D00012
:100848005008DB004F08D0005008CB005B08D000F0
:100858005008CF00DB015908D000D1015108D3005E
:100868005A085002D200031CD3035308803AFF00F1
:1008780080307F02031D422C1A305202031C452C83
:10088800462C832C831203134B084A04490448045A
:10089800031D4F2C512C0130522C0030D000500831
:1008A800DB000030CB000030CA000030C900003047
:1008B800C8005908D0005008DA008B2C5B1C652C46
:1008C800662C6F2C5B08D0000310500C0138D10047
:1008D8005108DB00712C0310DB0C481C742C752CA0
:1008E800762CDB170130D0004B0DCB0CCA0CC90C91
:1008F800C80CD00B782C0130D0005008DA078312CE
:10090800031359085A02031C8A2C8B2C622C581B7F
:100918008E2C8F2CDA2C5A08031D932C942C9D2C8A
:100928000030CB000030CA000030C9000030C800D9
:10093800082E4C08C8074D0803110318013E031977
:10094800A62CC9074E0803110318013E0319AD2C44
:10095800CA074F0803110318013E0319B42CCB072B
:100968004B1CB72CB82C8E2D5B1CBB2CBC2CC52C5F
:100978005B08D0000310500C0138D1005108DB008F
:10098800C72C0310DB0C481CCA2CCB2CCC2CDB1737
:100998000130D0004B0DCB0CCA0CC90CC80CD00BC5
:1009A800CE2C0130D0005008DA078E2D4B08803A43
:1009B800FF004F08803A7F02031DEC2C4E084A02C4
:1009C800031DEC2C4D084902031DEC2C4C08480271
:1009D8000318EF2CF02C482DFF30D000FF30D10049
:1009E800FF30D200FF30D3004C08D4004D08D500AA
:1009F8004E08D6004F08D7004808D4024908031CFF
:100A0800490F072D082DD5024A08031C4A0F0D2D42
:100A18000E2DD6024B08031C4B0F132D142DD70295
:100A28005408D00755080318550F1B2D1C2DD10746
:100A380056080318560F212D222DD20757080318E0
:100A4800570AD3075308CB005208CA005108C900F7
:100A58005008C8008030D0005008D806DB09DB0AEF
:100A68005B08031D382D392D562D0130C80700307D
:100A780003180130C907003003180130CA070030D5
:100A880003180130CB07562D4C08C8024D08031C2B
:100A98004D0FC9024E08031C4E0FCA024F08031C13
:100AA8004F0FCB024B084A0449044804031D5D2D2F
:100AB8005E2D8A2D5B08031D622D632D8A2D003063
:100AC800CB000030CA000030C9000030C800082E32
:100AD8000130D0000310C80DC90DCA0DCB0DD00BC5
:100AE8006E2DDB1F782D792D7A2D48145B1C7D2DFA
:100AF8007E2D812D0314DB0D832D0310DB0D5A0889
:100B08000319872D882D8A2D0130DA02CA1F8D2DF1
:100B18008E2D6C2DD901DB1F922D932DA12D5B08F5
:100B28007F390319982D992D9C2DD901D90AA12D0A
:100B3800481C9F2DA02DA12D992D59080319A52DCD
:100B4800A62DDA2D0130C807003003180130C90777
:100B5800003003180130CA07003003180130CB07F2
:100B68004B1CB72DB82DDA2D4808D0004908D10004
:100B78004A08D2004B08D3000130D400530DD30CDF
:100B8800D20CD10CD00CD40BC22D5308CB00520878
:100B9800CA005108C9005008C8005A0A0319D52DBF
:100BA800D62DDA2D0130D0005008DA075A0A031979
:100BB800DE2DDF2DE42D5A08031DE32DE42DF22D43
:100BC8000030CB000030CA000030C9000030C80037
:100BD8005A08031DF02DF12DF22DD8015A1CF52DC0
:100BE800F62DF82DCA17FC2D7F30D0005008CA0505
:100BF8005A08D0000310500CD1005108CB00D81F60
:100C0800062E072E082ECB17080083120313A30005
:100C18009F180F2E102E002FC92E2303031D152EEB
:100C2800162E192EC3309F05002F1F08C33904380C
:100C38009F00002F02302306031D232E242E272E6B
:100C4800C3309F05002F1F08C33908389F00002FA5
:100C580003302306031D312E322E352EC3309F0557
:100C6800002F1F08C3390C389F00002F04302306BB
:100C7800031D3F2E402E432EC3309F05002F1F0813
:100C8800C33910389F00002F05302306031D4D2E51
:100C98004E2E512EC3309F05002F1F08C33914381C
:100CA8009F00002F06302306031D5B2E5C2E5F2E4F
:100CB800C3309F05002F1F08C33918389F00002F25
:100CC80007302306031D692E6A2E6D2EC3309F053B
:100CD800002F1F08C3391C389F00002F0830230637
:100CE800031D772E782E7B2EC3309F05002F1F08FB
:100CF800C33920389F00002F09302306031D852E95
:100D0800862E892EC3309F05002F1F08C33924382B
:100D18009F00002F0A302306031D932E942E972E32
:100D2800C3309F05002F1F08C33928389F00002FA4
:100D38000B302306031DA12EA22EA52EC3309F051E
:100D4800002F1F08C3392C389F00002F0C302306B2
:100D5800031DAF2EB02EB32EC3309F05002F1F08E2
:100D6800C33930389F00002F0D302306031DBD2ED8
:100D7800BE2EC12EC3309F05002F1F08C33934383B
:100D88009F00002FC3309F05002F1F0CA000200CD0
:100D98000F39A100A2012208003A0319D42E002F0E
:100DA8002108003A0319112E013A03191E2E033A9D
:100DB80003192C2E013A03193A2E073A0319482E23
:100DC800013A0319562E033A0319642E013A0319FE
:100DD800722E0F3A0319802E013A03198E2E033A08
:100DE80003199C2E013A0319AA2E073A0319B82EA3
:100DF800013A0319C62E002F633083120313A00093
:100E0800A00B042F831203139F14080083120313EB
:100E1800A80028080319112F122F262FA31F152FFA
:100E2800162F262F2009AA002109AB002209AC00A1
:100E38002309AD00AA0A0319AB0A0319AC0A03195E
:100E4800AD0A2E2F2308AD002208AC002108AB0004
:100E58002008AA002308220421042004031D352F9A
:100E6800362F3F2F0030A3000030A2000030A10031
:100E78000030A000C52F9630A4002408A900512FE7
:100E88000130A4002408A90701300310AD0CAC0CF4
:100E9800AB0CAA0CFF3E031D492FFE302D05031D88
:100EA800562F572F442F732F0130A4002408A90769
:100EB8000130AA07003003180130AB0700300318CF
:100EC8000130AC07003003180130AD0701300310C2
:100ED800AD0CAC0CAB0CAA0CFF3E031D6B2FFF3006
:100EE8002D05031D782F792F582F852F0130A90242
:100EF8000130A4000310AA0DAB0DAC0DAD0DA40B71
:100F08007E2FAC1B882F892F8F2F023029020318C0
:100F18008E2F8F2F7A2F2918922F932F9B2FFF30E8
:100F2800AA05FF30AB057F30AC05FF30AD050310D7
:100F3800A90C2908A400A501A601A70118300310CF
:100F4800A40DA50DA60DA70DFF3E031DA32F240874
:100F5800AA042508AB042608AC042708AD04280811
:100F68000319B72FB82FBD2FA31FBB2FBC2FBD2F21
:100F7800AD172D08A3002C08A2002B08A1002A08F1
:100F8800A000080083120313A200831603130508A8
:100F98008312031322068316031385008312031397
:100FA80022088316031788008901C33083120313AC
:100FB8009F05413083120313A100A10BE12FE42FF9
:100FC800831203131F141F083F3940389F00200C59
:100FD80083160313031C9F1303189F171F129F12D6
:040FE8000C170800DA
:1019FC0083120313A00020088316031393003630C0
:101A0C008312031394008030831603139400013067
:101A1C009100871507168B170B17831203138C1164
:101A2C00831603138C15080083120313A800A4015A
:101A3C00A5012008A200A3012208A6002308A700E4
:101A4C00281C292D2A2D302D2608A4070318A50A99
:101A5C002708A50701300310A60DA70DFF3E031D97
:101A6C00312D0310A80C2808031D3D2D3E2D262DCD
:101A7C002508A1002408A00008000A128A158D254B
:101A8C000A128A1501300A128A1109260A128A15BD
:101A9C0083120313851C532D542D562DED015A2DF5
:101AAC00ED01ED0AEC01EC0A3230730203185F2DE4
:101ABC00602D6A2D0511FF30EB006B08F4000A1243
:101ACC008A15B6260A128A1532307306031D6F2D3D
:101ADC00702D852D831203130515FF30EB006B0859
:101AEC00F4007408031D7B2D7C2D7D2D852D0A1291
:101AFC008A15B6260A128A150130F402772D700861
:101B0C00831203138800482D0A128A110E2883169B
:101B1C0003178901033083160313850086010230F5
:101B2C00870088018901C430810008300A128A15A7
:101B3C00DC250A128A1550300A128A15FE240A1264
:101B4C008A1583120313A001A00A01300A128A110C
:101B5C00C6270A128A1521308312031390000C1029
:101B6C003C308F00B0308E004E309200FA3083162D
:101B7C00031392000F30831203139D00FF30A30058
:101B8C002308F40085018601870188018901493009
:101B9C00831603138C008D01831203138C018D01AA
:101BAC00C0308B00831603138710080083120313B5
:101BBC00A200162E831603130F168F160F17382E2E
:101BCC00831603130F128F160F17382E8316031359
:101BDC000F168F120F17382E831603130F128F1236
:101BEC000F17382E831603130F128F160F17382E5C
:101BFC00831603130F128F160F13382E831603132D
:101C0C000F168F120F13382E831603130F128F1605
:101C1C000F17382E831603130F128F160F17382E2B
:101C2C002208A000A1012108003A03191E2E102E33
:101C3C002008013A0319F22D033A0319EC2D063A48
:101C4C000319E62D0C3A0319E02D043A0319042E5E
:101C5C00153A0319FE2D063A03190A2E2D3A0319CB
:101C6C00F82D102E0F1408000310831203135E0DB1
:101C7C005F0DE0006008E6006608031D462E472E47
:101C8C00502E0030DF000030DE000030DD00003070
:101C9C00DC00B52E5C08E0005D08E1005E08E200A7
:101CAC005F08E3001F300310E30CE20CE10CE00CC6
:101CBC00FF3E031D592E6008E4006408E500DE17A2
:101CCC00FF30DC05FF30DD05FF30DE050030DF05C1
:101CDC009630E602E61F732E742E8E2E6608803A1E
:101CEC00973E03187A2E7B2E7C2E472E0130031044
:101CFC00DF0CDE0CDD0CDC0CFF3E031D7D2E0130F9
:101D0C00E0006008E607031D8C2E8D2E7C2EA52E80
:101D1C0020306602031C932E942EA02E472E0130E9
:101D2C00E0000310DC0DDD0DDE0DDF0DE00B972E5A
:101D3C000130E6026608031DA42EA52E952E65081B
:101D4C000319A92EAA2EB52EDC09DD09DE09DF093F
:101D5C00DC0A0319DD0A0319DE0A0319DF0A08007D
:101D6C00740883120313E700E801E901EA016A0829
:101D7C00A3006908A2006808A1006708A000013050
:101D8C000A128A110A270A128A15831203132308CE
:101D9C00B5002208B4002108B3002008B2003E3080
:101DAC00B1007C30B000ED30AF009130AE000A12C3
:101DBC008A1120200A128A15831203133108CF00CE
:101DCC003008CE002F08CD002E08CC004230CB00BE
:101DDC007830CA000030C9000030C8000A128A11DD
:101DEC0081230A128A15831203134B0883160313DB
:101DFC00A300831203134A0883160313A200831251
:101E0C000313490883160313A10083120313480814
:101E1C0083160313A000230883120313B500831643
:101E2C000313220883120313B4008316031321082F
:101E3C0083120313B30083160313200883120313B6
:101E4C00B2004030B1000030B0000030AF000030C4
:101E5C00AE000A128A1120200A128A15831203136B
:101E6C003108DF003008DE002F08DD002E08DC0012
:101E7C000A128A153A260A128A15831203135C0871
:101E8C009B000800831203130C1C4D2F4E2F6A2F3E
:101E9C000C103C308F00B0308E006C03031D572F9C
:101EAC00582F5D2F0130F5007508F3076A2F643049
:101EBC007302031C622F632F6A2FF301EC010511CF
:101ECC00FF30F5007508F4000C1F6D2F6E2F7F2F5F
:101EDC001F0CF500750C0F39003A031D762F772F68
:101EEC007D2F831603131E08F5007508F00083126E
:101EFC000C138C1D822F832FF72F1412141B872F7A
:101F0C00882F8C2F941F8B2F8C2F932F1308F50059
:101F1C007508EE0014139413141683160313941AF5
:101F2C00982F992FD32F14199C2F9D2FD32F8312B9
:101F3C0003131308F5007508EE008C1114168316A4
:101F4C000313141CAA2FAB2FA52F831203131308F2
:101F5C00F5007508F200A630F500F50BB32F000064
:101F6C00C32F7008F5007508F100F42F83120313CA
:101F7C006D08F5007508F100F42F7208F500F601F4
:101F8C007608003A0319CB2FF42F7508013A031980
:101F9C00B72F033A0319BC2FF42F941AD62FD72F2F
:101FAC00F42F141DDA2FDB2FF42F831203131308D5
:101FBC00F5007508EE0083160313141071088312D4
:101FCC00031393001416A630F500F50BEB2F00004D
:101FDC00831603131418F32FF42FEE2F831203130D
:101FEC008C1179088A0078088400770E8300FE0E25
:041FFC007E0E09004C
:04400E00D420FF3F7C
:00000001FF
