:020000040000FA
:060000000A128A110C280F
:10000800FE00030EF1000A08F2000A128A111729ED
:100018000A128A110F28F701F801F901FA01830180
:100028000A128A11552AF600831203139F181D28F5
:100038001E280E29D7287603031D232824282728BD
:10004800C3309F050E291F08C33904389F000E29A5
:1000580002307606031D312832283528C3309F0523
:100068000E291F08C33908389F000E290330760669
:10007800031D3F2840284328C3309F050E291F0829
:10008800C3390C389F000E2904307606031D4D280D
:100098004E285128C3309F050E291F08C339103830
:1000A8009F000E2905307606031D5B285C285F2813
:1000B800C3309F050E291F08C33914389F000E2925
:1000C80006307606031D69286A286D28C3309F0507
:1000D8000E291F08C33918389F000E2907307606E5
:1000E800031D772878287B28C3309F050E291F0811
:1000F800C3391C389F000E2908307606031D852851
:1001080086288928C3309F050E291F08C33920383F
:100118009F000E2909307606031D932894289728F6
:10012800C3309F050E291F08C33924389F000E29A4
:100138000A307606031DA128A228A528C3309F05EA
:100148000E291F08C33928389F000E290B30760660
:10015800031DAF28B028B328C3309F050E291F08F8
:10016800C3392C389F000E290C307606031DBD2894
:10017800BE28C128C3309F050E291F08C33930384F
:100188009F000E290D307606031DCB28CC28CF28DA
:10019800C3309F050E291F08C33934389F000E2924
:1001A800C3309F050E291F0CF300730C0F39F400A0
:1001B800F5017508003A0319E2280E297408003A77
:1001C80003191F28013A03192C28033A03193A285E
:1001D800013A03194828073A03195628013A03191E
:1001E8006428033A03197228013A031980280F3A40
:1001F80003198E28013A03199C28033A0319AA28DF
:10020800013A0319B828073A0319C628013A03190D
:10021800D4280E296330F300F30B10291329831215
:1002280003139F140800831203130C1F1C291D2994
:1002380022291E08F0007008F9000C138C1D2529CE
:1002480026297E291412141B2A292B292F29941FA9
:100258002E292F2936291308F0007008F7001413E7
:100268009413141683160313941A3B293C295A290C
:1002780014193F2940295A29831203131308F0003F
:100288007008F7008C11141683160313141C4D29DB
:100298004E294829831203131308F0007008FA0046
:1002A800A630F000F00B562900007B29941A5D292E
:1002B8005E297B29141D612962297B298312031376
:1002C8001308F0007008F700831603131410831244
:1002D8000313080893001416A630F000F00B7229D7
:1002E80000008316031314187A297B2975298312B1
:1002F80003138C1172088A00710E8300FE0E7E0EA5
:100308000900F500BD29831603130F168F160F1762
:10031800DF29831603130F128F160F17DF29831691
:1003280003130F168F120F17DF29831603130F12EB
:100338008F120F17DF29831603130F128F160F174B
:10034800DF29831603130F128F160F13DF29831665
:1003580003130F168F120F13DF29831603130F12BF
:100368008F160F17DF29831603130F128F160F1717
:10037800DF297508F300F4017408003A0319C52948
:10038800B7297308013A03199929033A03199329DC
:10039800063A03198D290C3A03198729043A0319D7
:1003A800AB29153A0319A529063A0319B1292D3A9B
:1003B80003199F29B7290F14080083160317890109
:1003C8008316031385018601870188018901F301DA
:1003D80001300A128A1115220A128A11C4308316B2
:1003E8000313810008300A128A1185210A128A1122
:1003F80050300A128A113B220A128A1183120313FF
:100408008501860187018801890148308316031315
:100418008C008D01831203138C018D01C0308B0079
:100428000800F5008316031305087506850075088E
:100438008316031788008901C330831203139F05AD
:100448004230F400F40B262A0000831203131F1411
:100458001F083F3940389F00730C83160313031C91
:100468009F1303189F171F129F120C170800F30001
:100478007308831603139300363083120313940012
:1004880080308316031394000130910087150716F6
:100498008B170B17831203138C11831603138C15F8
:1004A80008000A128A11E1210A128A1101300A127F
:1004B8008A1117200A128A117908831203138800F7
:0804C8005A2A0A128A110C28BD
:04400E00D420FF3F7C
:00000001FF
