:020000040000FA
:060000000A128A110C280F
:10000800FE00030EF1000A08F2000A128A119F2F5F
:100018000A128A110F28F801F901FA018312031351
:10002800C701C801C901CA01CB01CC01CD01CE016C
:10003800CF01D00183010A128A11E22E8312031321
:1000480023088039A8002808F3002308A8002807F7
:10005800A9002908F500A21F32283328342875146E
:1000680075080319382839284928750A031D3D28B9
:100078003E2846280030A3000030A2000030A1002E
:100088000030A000A217A30151280030A3000030BF
:10009800A2000030A1000030A00027088039A80085
:1000A8002808F4007408730603195B285C285D2887
:1000B80073172708A8002807A9002908F400A61F15
:1000C8006628672868287414740803196C286D2832
:1000D8007D28740A031D712872287A280030A70029
:1000E8000030A6000030A5000030A400A617A70124
:1000F80085280030A7000030A6000030A500003099
:10010800A4007508740203188A288B28CF28731F47
:100118008E288F2893288030A8002808F3067508B1
:10012800A8002808F6007408A8002808F500760832
:10013800A8002808F4002008A8002808F6002408C9
:10014800A8002808A0007608A8002808A40021080C
:10015800A8002808F6002508A8002808A1007608A5
:10016800A8002808A5002208A8002808F6002608E4
:10017800A8002808A2007608A8002808A6002308D6
:10018800A8002808F6002708A8002808A300760871
:10019800A8002808A700F6017408A800A9012908E2
:1001A800AB0075082802AA00031CAB032B08803A91
:1001B800FF0080307F02031DE3281A302A02031C47
:1001C800E628E72828298312031323082204210498
:1001D8002004031DF028F2280130F3280030A8007D
:1001E8002808F6000030A3000030A2000030A1006B
:1001F8000030A0007408A8002808F5002E29761CF5
:10020800062907291229760883120313A800031068
:10021800280C0138A9002908F60014290310F60C47
:1002280083120313201C19291A291B29F6170130D8
:10023800A800230DA30CA20CA10CA00CA80B1D292F
:100248000130A8002808F50774087502031C2D2939
:100258002E290329731B3129322981297508031D89
:10026800362937294229003083120313A3000030AE
:10027800A2000030A1000030A000B12A83120313AD
:100288002408A007250803110318013E03194D2966
:10029800A107260803110318013E03195429A207D0
:1002A800270803110318013E03195B29A307231C20
:1002B8005E295F29372A761C622963296C2976080A
:1002C800A8000310280C0138A9002908F6006E2997
:1002D8000310F60C201C712972297329F6170130B6
:1002E800A800230DA30CA20CA10CA00CA80B752927
:1002F8000130A8002808F507372A831203132308BA
:10030800803AFF002708803A7F02031D95292608B6
:100318002202031D952925082102031D9529240879
:100328002002031898299929F129FF30A800FF30E5
:10033800A900FF30AA00FF30AB002408AC00250854
:10034800AD002608AE002708AF002008AC0221083F
:10035800031C210FB029B129AD022208031C220F6A
:10036800B629B729AE022308031C230FBC29BD29CF
:10037800AF022C08A8072D0803182D0FC429C5297A
:10038800A9072E0803182E0FCA29CB29AA072F0858
:1003980003182F0AAB072B08A3002A08A200290874
:1003A800A1002808A0008030A8002808F306F60954
:1003B800F60A7608031DE129E229FF290130A00782
:1003C800003003180130A107003003180130A207DC
:1003D800003003180130A307FF292408A0022508CC
:1003E800031C250FA1022608031C260FA2022708BA
:1003F800031C270FA3022308220421042004031D41
:10040800062A072A332A7608031D0B2A0C2A332AC0
:100418000030A3000030A2000030A1000030A0008E
:10042800B12A0130A8000310A00DA10DA20DA30D43
:10043800A80B172AF61F212A222A232A2014761C01
:10044800262A272A2A2A0314F60D2C2A0310F60D29
:1004580075080319302A312A332A0130F502A21F00
:10046800362A372A152AF401F61F3B2A3C2A4A2A3B
:1004780076087F390319412A422A452AF401F40AE9
:100488004A2A201C482A492A4A2A422A7408031957
:100498004E2A4F2A832A0130A00700300318013062
:1004A800A107003003180130A207003003180130FB
:1004B800A307231C602A612A832A2008A800210890
:1004C800A9002208AA002308AB000130AC002B0DBC
:1004D800AB0CAA0CA90CA80CAC0B6B2A2B08A3001C
:1004E8002A08A2002908A1002808A000750A0319F3
:1004F8007E2A7F2A832A0130A8002808F507750A72
:100508000319872A882A8D2A7508031D8C2A8D2AA3
:100518009B2A0030A3000030A2000030A100003068
:10052800A0007508031D992A9A2A9B2AF301751CB5
:100538009E2A9F2AA12AA217A52A7F30A800280848
:10054800A2057508A8000310280CA9002908A30013
:10055800F31FAF2AB02AB12AA31708008312031386
:1005680027088039F3007308AC002708F3007307E5
:10057800F4007408B300A61FC22AC32AC42A33147D
:1005880033080319C82AC92AD92A330A031DCD2AD0
:10059800CE2AD62A0030A7000030A6000030A500D9
:1005A8000030A400A617A701E12A0030A7000030F8
:1005B800A6000030A5000030A40023088039F3000D
:1005C8007308AC062308F3007307F4007408B4003A
:1005D800A21FEF2AF02AF12A341434080319F52A45
:1005E800F62A062B340A031DFA2AFB2A032B0030AD
:1005F800A3000030A2000030A1000030A000A21724
:10060800A3010E2B0030A3000030A2000030A1008F
:100618000030A0002308220421042004031D152B08
:10062800162B2F2B0030A7000030A6000030A500A5
:100638000030A4008030A6047F30A7042C08F30003
:100648007308A7042708A3002608A2002508A1000C
:100658002408A0008E2C3308031D332B342B3D2B8C
:100668000030A3000030A2000030A1000030A0003C
:100678008E2C3308F300F4017408F6003408730272
:10068800F500031CF60375087F3EAD0076080318D5
:10069800013E003EAE002708AB002608AA00250848
:1006A800A9002408A8000030A7000030A6000030E8
:1006B800A5000030A4000030B2000030B1000030C6
:1006C800B0000030AF00B401B32B340803196D2B10
:1006D8006E2B8E2B0130F3000310A80DA90DAA0D67
:1006E800AB0DF30B702B0130F3000310A40DA50D17
:1006F800A60DA70DF30B792BB21F832B842B852B0B
:1007080024140130F3000310AF0DB00DB10DB20D7C
:10071800F30B872B23082B02031D9C2B22082A028C
:10072800031D9C2B21082902031D9C2B200828024D
:10073800031C9F2BA02BAF2B32172008A8022108DF
:10074800031C210FA9022208031C220FAA02230856
:10075800031C230FAB020130F3007308B4071A30EF
:100768003402031CB82BB92B692B2B082A04290443
:1007780028040319C02BC12BE02B2F14E02B0130C8
:10078800F3000310A40DA50DA60DA70DF30BC52BA3
:10079800B21FCF2BD02BD12B24140130F300031020
:1007A800AF0DB00DB10DB20DF30BD32BFF30AD076C
:1007B8000318AE0AFF30AE07A61FE32BE42BC32BAA
:1007C800B401B21FE82BE92B052CFF302F05F300ED
:1007D800FF303005F400FF303105F5007F30320579
:1007E800F60076087504740473040319FC2BFD2BBA
:1007F800002CB401B40A052C241C032C042C052C51
:10080800FD2B34080319092C0A2C3B2C0130A407B2
:10081800003003180130A507003003180130A6077F
:10082800003003180130A707271C1B2C1C2C3B2C5D
:100838002408F3002508F4002608F5002708F60028
:100848000130F700760DF60CF50CF40CF30CF70BF1
:10085800262C7608A7007508A6007408A50073085A
:10086800A4000130AD070318AE0A0030AE072E0809
:10087800803AFF0080307F02031D442CFF302D0298
:10088800031C472C482C562CFF3083120313AD0051
:100898000030AE000030A7000030A6000030A500F0
:1008A8000030A400831203132E08803AFF00803022
:1008B8007F02031D612C01302D020318642C652C66
:1008C800722C83120313AD01AE010030A700003073
:1008D800A6000030A5000030A400AC018312031369
:1008E8002D08F3007308B300331C7B2C7C2C7E2C62
:1008F800A617822C7F30F3007308A6053308F3008F
:100908000310730CF4007408A7002C08F300730894
:10091800A704262B080083120313C4004408C00050
:10092800C101C201C3014308A5004208A40041084F
:10093800A3004008A20000300A128A11AA250A1250
:100948008A11831203132508CA002408C900230842
:10095800C8002208C7004A08A7004908A600480896
:10096800A5004708A4004230A300C830A200003008
:10097800A1000030A0000A128A11B2220A128A11BC
:10098800831203132308B8002208B7002108B60011
:100998002008B5000A128A1166260A128A118312E3
:1009A80003133508C0004008F8006430F500003033
:1009B800F6007808C000C1014008F3004108F400BF
:1009C8000A128A15A0270A128A11730883120313C0
:1009D800A2007408A3000030A31BFF30A400A500E8
:1009E80001300A128A11AA250A128A1183120313E6
:1009F8002508B3002408B2002308B1002208B0007B
:100A08004A08B7004908B6004808B5004708B400C6
:100A18000A128A157C270A128A11831203133308D3
:100A2800CA003208C9003108C8003008C7004A089F
:100A3800A7004908A6004808A5004708A4004130B7
:100A4800A3002030A2000030A1000030A0000A124C
:100A58008A11B2220A128A11831203132308B800DA
:100A68002208B7002108B6002008B5000A128A112A
:100A780066260A128A11831203133508C00040083B
:100A8800F9000A30F5000030F6007908C000C1010D
:100A98004008F3004108F4000A128A15A0270A1238
:100AA8008A11730883120313A2007408A30000308C
:100AB800A31BFF30A400A50001300A128A11AA2541
:100AC8000A128A11831203132508B3002408B200FE
:100AD8002308B1002208B0004A08B7004908B60048
:100AE8004808B5004708B4000A128A157C270A127C
:100AF8008A11831203133308CA003208C900310867
:100B0800C8003008C7004A08B8004908B7004808B4
:100B1800B6004708B5000A128A1166260A128A1119
:100B2800831203133508C0004008CB007808303E14
:100B3800C0004008F8007908303EC0004008F900BD
:100B48004B08303EC0004008CB0008008312031356
:100B5800AA002A080319B12DB22DC62DA51FB52D3F
:100B6800B62DC62D2209AC002309AD002409AE001C
:100B78002509AF00AC0A0319AD0A0319AE0A031917
:100B8800AF0ACE2D2508AF002408AE002308AD001B
:100B98002208AC002508240423042204031DD52DB3
:100BA800D62DDF2D0030A5000030A4000030A300B2
:100BB8000030A200652E9630A6002608AB00F12D65
:100BC8000130A6002608AB0701300310AF0CAE0CAD
:100BD800AD0CAC0CFF3E031DE92DFE302F05031DA7
:100BE800F62DF72DE42D132E0130A6002608AB07AD
:100BF8000130AC07003003180130AD07003003188E
:100C08000130AE07003003180130AF070130031080
:100C1800AF0CAE0CAD0CAC0CFF3E031D0B2EFF3021
:100C28002F05031D182E192EF82D252E0130AB0285
:100C38000130A6000310AC0DAD0DAE0DAF0DA60B27
:100C48001E2EAE1B282E292E2F2E02302B02031803
:100C58002E2E2F2E1A2E2B18322E332E3B2EFF30EF
:100C6800AC05FF30AD057F30AE05FF30AF05031092
:100C7800AB0C2B08A600A701A801A9011830031086
:100C8800A60DA70DA80DA90DFF3E031D432E26088E
:100C9800AC042708AD042808AE042908AF042A08C4
:100CA8000319572E582E5D2EA51F5B2E5C2E5D2E28
:100CB800AF172F08A5002E08A4002D08A3002C08A4
:100CC800A2000800031083120313370D380DB90072
:100CD8003908BF003F08031D722E732E7C2E00308A
:100CE800B8000030B7000030B6000030B500E12E83
:100CF8003508B9003608BA003708BB003808BC0008
:100D08001F300310BC0CBB0CBA0CB90CFF3E031D02
:100D1800852E3908BD003D08BE00B717FF30B50560
:100D2800FF30B605FF30B7050030B8059630BF0272
:100D3800BF1F9F2EA02EBA2E3F08803A973E031859
:100D4800A62EA72EA82E732E01300310B80CB70CB0
:100D5800B60CB50CFF3E031DA92E0130B9003908A9
:100D6800BF07031DB82EB92EA82ED12E20303F0262
:100D7800031CBF2EC02ECC2E732E0130B9000310D9
:100D8800B50DB60DB70DB80DB90BC32E0130BF02A6
:100D98003F08031DD02ED12EC12E3E080319D52E93
:100DA800D62EE12EB509B609B709B809B50A03194F
:100DB800B60A0319B70A0319B80A08000A128A15ED
:100DC800CB270A128A11831203134E0888004D0399
:100DD800031DEF2EF02EE72E4E080A128A118F24DB
:100DE8000A128A11831203130C1EFB2EFC2EFE2EF0
:100DF800780899000D3083120313C600FB30C50034
:100E0800C50B042FC60B042F831203130C1E0D2FC2
:100E18000E2F102F790899000D3083120313C60086
:100E2800FB30C500C50B162FC60B162F83120313F4
:100E38000C1E1F2F202F222F4B0899000D308312D4
:100E48000313C600FB30C500C50B282FC60B282F7F
:100E5800831203130C1E312F322F342F0D309900BB
:100E6800CD01823083120313C600DD30C500C50BE7
:100E78003B2FC60B3B2FE72E0A128A110C28F500D0
:100E88007B2F831603130F168F160F179D2F8316AC
:100E980003130F128F160F179D2F831603130F16A8
:100EA8008F120F179D2F831603130F128F120F1710
:100EB8009D2F831603130F128F160F179D2F83165E
:100EC80003130F128F160F139D2F831603130F167C
:100ED8008F120F139D2F831603130F128F160F17E0
:100EE8009D2F831603130F128F160F179D2F75084A
:100EF800F300F4017408003A0319832F752F73085F
:100F0800013A0319572F033A0319512F063A0319C7
:100F18004B2F0C3A0319452F043A0319692F153A38
:100F28000319632F063A03196F2F2D3A03195D2F02
:100F3800752F0F1408000B1CA22FA32FBC2F831290
:100F480003130618A82FA92FB12F061CAC2FAD2FFD
:100F5800A92F0130F0007008CE078618B42FB52FDE
:100F6800BB2F861CB82FB92FB52F0130CE020B101E
:100F7800831203138C1EC12FC22FD92F1A08F00019
:100F88007008FA007A0A031DCA2FCB2FCD2FCD0186
:100F9800CD0A7A03031DD12FD22FD82F8C1ED52F1F
:100FA800D62FD22F1A0888008C1272088A00710E68
:100FB8008300FE0E7E0E09008316031318121815FF
:100FC80018139816831203139817181318168316F4
:100FD80003178711193083160313990001309A00FB
:0C0FE800730C031C8C1203188C160800FC
:101EDC00F3007308831603138600730895007308C8
:101EEC00960001087F3981008B1508008030831221
:101EFC000313B3063708A3003608A2003508A10067
:101F0C003408A0003308A7003208A6003108A50049
:101F1C003008A4000A128A1122200A128A15831290
:101F2C0003132308B3002208B2002108B1002008D3
:101F3C00B000080083120313A001A101731CA72F8A
:101F4C00A82FB02F750883120313A0070318A10A3A
:101F5C007608A10701300310F50DF60DFF3E031DA9
:101F6C00B12F01300310F40CF30CFF3E031DB82FFE
:101F7C0073087404031DC32FC42FA42F83120313DF
:101F8C002108F4002008F3000800831603178901C8
:101F9C008316031385010330860080308700880187
:101FAC0089014430810004300A128A1143270A1235
:101FBC008A15F301F30A00300A128A11E0270A127B
:101FCC008A1503300A128A156E270A128A15831293
:101FDC00031385018601870188018901203083164E
:101FEC0003138C008D01831203138C018D01C830F7
:041FFC008B0008004E
:04400E00D420FF3F7C
:00000001FF
