:020000040000FA
:060000000A128A110C280F
:10000800FE00030EF7000A08F8000A128A115F2E94
:100018000A128A110F28F901FA01FB01FC01FD01FE
:1000280083120313CC01CD01CE01CF01D001D10140
:10003800D201D301D40183010A128A15452F8312F4
:10004800031323088039A8002808B0002308A80053
:100058002807A9002908B200A21F33283428352808
:1000680032143208031939283A284A28320A031D5B
:100078003E283F2847280030A3000030A200003067
:10008800A1000030A000A217A30152280030A3004D
:100098000030A2000030A1000030A00027088039FD
:1000A800A8002808B1003108300603195C285D282B
:1000B8005E2830172708A8002807A9002908B100DA
:1000C800A61F6728682869283114310803196D2884
:1000D8006E287E28310A031D722873287B28003079
:1000E800A7000030A6000030A5000030A400A61725
:1000F800A70186280030A7000030A6000030A50020
:100108000030A4003208310203188B288C28D0282C
:10011800301F8F28902894288030A8002808B0061F
:100128003208A8002808B3003108A8002808B2003F
:100138003308A8002808B1002008A8002808B30040
:100148002408A8002808A0003308A8002808A4004C
:100158002108A8002808B3002508A8002808A1003D
:100168003308A8002808A5002208A8002808B3001A
:100178002608A8002808A2003308A8002808A60016
:100188002308A8002808B3002708A8002808A30007
:100198003308A8002808A700B3013108A800A9015E
:1001A8002908AB0032082802AA00031CAB032B085D
:1001B800803AFF0080307F02031DE4281A302A02AB
:1001C800031CE728E828252983120313230822049F
:1001D80021042004031DF128F3280130F4280030FD
:1001E800A8002808B3000030A3000030A2000030A7
:1001F800A1000030A0003108A8002808B2002D296D
:10020800331C0729082911293308A8000310280CD2
:100218000138A9002908B30013290310B30C201CC6
:10022800162917291829B3170130A800230DA30C84
:10023800A20CA10CA00CA80B1A290130A8002808B0
:10024800B2078312031331083202031C2C292D290B
:100258000429301B302931297C293208031D35290E
:1002680036293F290030A3000030A2000030A10049
:100278000030A000AA2A2408A007250803110318A3
:10028800013E03194829A107260803110318013E56
:1002980003194F29A207270803110318013E031960
:1002A8005629A307231C59295A29302A331C5D29AA
:1002B8005E2967293308A8000310280C0138A90013
:1002C8002908B30069290310B30C201C6C296D2977
:1002D8006E29B3170130A800230DA30CA20CA10CA2
:1002E800A00CA80B70290130A8002808B207302AF2
:1002F8002308803AFF002708803A7F02031D8E29D1
:1003080026082202031D8E2925082102031D8E2995
:1003180024082002031891299229EA29FF30A8000D
:10032800FF30A900FF30AA00FF30AB002408AC0062
:100338002508AD002608AE002708AF002008AC024B
:100348002108031C210FA929AA29AD022208031C90
:10035800220FAF29B029AE022308031C230FB529A9
:10036800B629AF022C08A8072D0803182D0FBD29A0
:10037800BE29A9072E0803182E0FC329C429AA07C6
:100388002F0803182F0AAB072B08A3002A08A2007E
:100398002908A1002808A0008030A8002808B00675
:1003A800B309B30A3308031DDA29DB29F829013018
:1003B800A007003003180130A107003003180130EE
:1003C800A207003003180130A307F8292408A00267
:1003D8002508031C250FA1022608031C260FA202CC
:1003E8002708031C270FA302230822042104200442
:1003F800031DFF29002A2C2A3308031D042A052A75
:100408002C2A0030A3000030A2000030A1000030E8
:10041800A000AA2A0130A8000310A00DA10DA20D6A
:10042800A30DA80B102AB31F1A2A1B2A1C2A201452
:10043800331C1F2A202A232A0314B30D252A03104C
:10044800B30D32080319292A2A2A2C2A0130B202AC
:10045800A21F2F2A302A0E2AB101B31F342A352AA7
:10046800432A33087F3903193A2A3B2A3E2AB10125
:10047800B10A432A201C412A422A432A3B2A31082E
:100488000319472A482A7C2A0130A007003003189C
:100498000130A107003003180130A207003003180B
:1004A8000130A307231C592A5A2A7C2A2008A800AD
:1004B8002108A9002208AA002308AB000130AC00DB
:1004C8002B0DAB0CAA0CA90CA80CAC0B642A2B089E
:1004D800A3002A08A2002908A1002808A000320ABF
:1004E8000319772A782A7C2A0130A8002808B2073D
:1004F800320A0319802A812A862A3208031D852A8E
:10050800862A942A0030A3000030A2000030A100FF
:100518000030A0003208031D922A932A942AB001C1
:10052800321C972A982A9A2AA2179E2A7F30A80056
:100538002808A2053208A8000310280CA9002908D9
:10054800A300B01FA82AA92AAA2AA3170800831261
:10055800031327088039A8002808B1002708A80035
:100568002807A9002908B800A61FBB2ABC2ABD2A4B
:10057800381438080319C12AC22AD22A380A031D96
:10058800C62AC72ACF2A0030A7000030A6000030AC
:10059800A5000030A400A617A701DA2A0030A7009A
:1005A8000030A6000030A5000030A40023088039E0
:1005B800A8002808B1062308A8002807A9002908C8
:1005C800B900A21FE82AE92AEA2A391439080319C6
:1005D800EE2AEF2AFF2A390A031DF32AF42AFC2AF5
:1005E8000030A3000030A2000030A1000030A000BD
:1005F800A217A301072B0030A3000030A20000308F
:10060800A1000030A0002308220421042004031DB7
:100618000E2B0F2B282B0030A7000030A60000302F
:10062800A5000030A4008030A6047F30A70431085C
:10063800A8002808A7042708A3002608A200250860
:10064800A1002408A000872C3808031D2C2B2D2B73
:10065800362B0030A3000030A2000030A10000308B
:10066800A000872C3808A800A9012908AB00390880
:100678002802AA00031CAB032A087F3EB2002B08FD
:100688000318013E003EB3002708B0002608AF005B
:100698002508AE002408AD000030A7000030A600F1
:1006A8000030A5000030A4000030B7000030B600CC
:1006B8000030B5000030B400B901AC2B390803197B
:1006C800662B672B872B0130A8000310AD0DAE0DEC
:1006D800AF0DB00DA80B692B0130A8000310A40DB5
:1006E800A50DA60DA70DA80B722BB71F7C2B7D2B74
:1006F8007E2B24140130A8000310B40DB50DB60DDF
:10070800B70DA80B802B23083002031D952B220858
:100718002F02031D952B21082E02031D952B20085F
:100728002D02031C982B992BA82B37172008AD02F4
:100738002108031C210FAE022208031C220FAF025E
:100748002308031C230FB0020130A8002808B907AA
:100758001A303902031CB12BB22B622B30082F043C
:100768002E042D040319B92BBA2BD92B3414D92BE9
:100778000130A8000310A40DA50DA60DA70DA80B08
:10078800BE2BB71FC82BC92BCA2B24140130A800B5
:100798000310B40DB50DB60DB70DA80BCC2BFF305B
:1007A800B2070318B30AFF30B307A61FDC2BDD2BF3
:1007B800BC2BB901B71FE12BE22BFE2BFF30340510
:1007C800A800FF303505A900FF303605AA007F30A4
:1007D8003705AB002B082A04290428040319F52B34
:1007E800F62BF92BB901B90AFE2B241CFC2BFD2B87
:1007F800FE2BF62B39080319022C032C342C01305C
:10080800A407003003180130A50700300318013091
:10081800A607003003180130A707271C142C152C35
:10082800342C2408A8002508A9002608AA002708AF
:10083800AB000130AC002B0DAB0CAA0CA90CA80C1A
:10084800AC0B1F2C2B08A7002A08A6002908A50016
:100858002808A4000130B2070318B30A0030B30710
:100868003308803AFF0080307F02031D3D2CFF30A3
:100878003202031C402C412C4F2CFF3083120313EF
:10088800B2000030B3000030A7000030A6000030EE
:10089800A5000030A400831203133308803AFF0038
:1008A80080307F02031D5A2C0130320203185D2C60
:1008B8005E2C6B2C83120313B201B3010030A70026
:1008C8000030A6000030A5000030A400B10183125A
:1008D80003133208A8002808B800381C742C752C9B
:1008E800772CA6177B2C7F30A8002808A605380887
:1008F800A8000310280CA9002908A7003108A8009F
:100908002808A7041F2B080083120313C9004908ED
:10091800C500C601C701C8014808A9004708A800C2
:100928004608A7004508A60000300A128A11A32528
:100938000A128A11831203132908CF002808CE004F
:100948002708CD002608CC004F08A7004E08A600AF
:100958004D08A5004C08A4004230A300C830A200EE
:100968000030A1000030A0000A128A11AB220A123E
:100978008A11831203132308BD002208BC00210832
:10098800BB002008BA000A128A110C270A128A1121
:10099800831203133A08C5004508F9006430A20021
:1009A8000030A3007908C500C6014508A000460824
:1009B800A1000A128A15A2270A128A1183120313A8
:1009C8002008A6002108A7000030A71BFF30A800B8
:1009D800A90001300A128A11A3250A128A1183126A
:1009E80003132908B7002808B6002708B500260809
:1009F800B4004F08BB004E08BA004D08B9004C08B7
:100A0800B8000A128A157E270A128A118312031364
:100A18003708CF003608CE003508CD003408CC00A2
:100A28004F08A7004E08A6004D08A5004C08A400D2
:100A38004130A3002030A2000030A1000030A00007
:100A48000A128A11AB220A128A118312031323088D
:100A5800BD002208BC002108BB002008BA000A1209
:100A68008A110C270A128A11831203133A08C50047
:100A78004508FA000A30A2000030A3007A08C50031
:100A8800C6014508A0004608A1000A128A15A22737
:100A98000A128A11831203132008A6002108A7004E
:100AA8000030A71BFF30A800A90001300A128A11E4
:100AB800A3250A128A11831203132908B7002808EC
:100AC800B6002708B5002608B4004F08BB004E083A
:100AD800BA004D08B9004C08B8000A128A157E27DA
:100AE8000A128A11831203133708CF003608CE0082
:100AF8003508CD003408CC004F08BD004E08BC00B6
:100B08004D08BB004C08BA000A128A110C270A12B9
:100B18008A11831203133A08C5004508D0007908E2
:100B2800303EC5004508F9007A08303EC500450842
:100B3800FA005008303EC5004508D000080083126E
:100B48000313AE002E080319AA2DAB2DBF2DA91F24
:100B5800AE2DAF2DBF2D2609B0002709B1002809F9
:100B6800B2002909B300B00A0319B10A0319B20A7D
:100B78000319B30AC72D2908B3002808B2002708AB
:100B8800B1002608B0002908280427042604031DFC
:100B9800CE2DCF2DD82D0030A9000030A800003070
:100BA800A7000030A6005E2E9630AA002A08AF00E3
:100BB800EA2D0130AA002A08AF0701300310B30C50
:100BC800B20CB10CB00CFF3E031DE22DFE30330514
:100BD800031DEF2DF02DDD2D0C2E0130AA002A0863
:100BE800AF070130B007003003180130B1070030FB
:100BF80003180130B207003003180130B307013081
:100C08000310B30CB20CB10CB00CFF3E031D042E44
:100C1800FF303305031D112E122EF12D1E2E01302B
:100C2800AF020130AA000310B00DB10DB20DB30D23
:100C3800AA0B172EB21B212E222E282E02302F028D
:100C48000318272E282E132E2F182B2E2C2E342E39
:100C5800FF30B005FF30B1057F30B205FF30B30576
:100C68000310AF0C2F08AA00AB01AC01AD0118307E
:100C78000310AA0DAB0DAC0DAD0DFF3E031D3C2EB0
:100C88002A08B0042B08B1042C08B2042D08B304B8
:100C98002E080319502E512E562EA91F542E552EAC
:100CA800562EB3173308A9003208A8003108A70048
:100CB8003008A60008000B1C622E632E7C2E8312BF
:100CC80003130618682E692E712E061C6C2E6D2EC5
:100CD800692E0130F4007408D2078618742E752E18
:100CE8007B2E861C782E792E752E0130D2020B10A1
:100CF800831203138C1E812E822E052F1A08F400EE
:100D08007408FD007D0A031D8A2E8B2EB92E0C1E39
:100D18008E2E8F2E912E790899000730F5007D30A0
:100D2800F400F40B952EF50B952E831203130C1E6D
:100D38009E2E9F2EA12E7A0899000730F5007D304F
:100D4800F400F40BA52EF50BA52E831203130C1E2D
:100D5800AE2EAF2EB12E500899000730F5007D3029
:100D6800F400F40BB52EF50BB52E831203138C1279
:100D78007D03031DC02EC12E042F8C1EC42EC52E2C
:100D8800C12E1A08F4007408FC008C128C1ECD2E9B
:100D9800CE2ECA2E1A08F4007408FB008C128C1E82
:100DA800D62ED72ED32E1A08F4007408D1007C084A
:100DB800D03EF4007408FC007B08D03EF4007408B0
:100DC800FB005108D03EF4007408D1000A30F4004A
:100DD8007408F0007B080A128A1530270A128A1153
:100DE800F5006430F6007608F0007C080A128A15CF
:100DF80030270A128A1175078312031351078800D6
:100E08008C1278088A00770E8300FE0E7E0E090089
:100E18000310831203133C0D3D0DBE003E08C400B1
:100E28004408031D182F192F222F0030BD00003051
:100E3800BC000030BB000030BA00872F3A08BE0063
:100E48003B08BF003C08C0003D08C1001F3003102C
:100E5800C10CC00CBF0CBE0CFF3E031D2B2F3E085F
:100E6800C2004208C300BC17FF30BA05FF30BB05FB
:100E7800FF30BC050030BD059630C402C41F452FA5
:100E8800462F602F4408803A973E03184C2F4D2F69
:100E98004E2F192F01300310BD0CBC0CBB0CBA0C23
:100EA800FF3E031D4F2F0130BE003E08C407031D3F
:100EB8005E2F5F2F4E2F772F20304402031C652FA3
:100EC800662F722F192F0130BE000310BA0DBB0D0B
:100ED800BC0DBD0DBE0B692F0130C4024408031DB3
:100EE800762F772F672F430803197B2F7C2F872FA7
:100EF800BA09BB09BC09BD09BA0A0319BB0A031917
:100F0800BC0A0319BD0A080083120313A200C22FEA
:100F1800831603130F168F160F17E42F8316031368
:100F28000F128F160F17E42F831603130F168F1245
:100F38000F17E42F831603130F128F120F17E42FC6
:100F4800831603130F128F160F17E42F831603133C
:100F58000F128F160F13E42F831603130F168F1219
:100F68000F13E42F831603130F128F160F17E42F96
:100F7800831603130F128F160F17E42F2208A000F1
:100F8800A1012108003A0319CA2FBC2F2008013AF1
:100F980003199E2F033A0319982F063A0319922F23
:100FA8000C3A03198C2F043A0319B02F153A031978
:100FB800AA2F063A0319B62F2D3A0319A42FBC2FCE
:100FC8000F14080083120313A000200883160313CC
:100FD80086008312031320088316031395008312D7
:100FE8000313200883160313960001087F39810034
:040FF8008B1508004D
:101E6000F300F201731C352F362F3A2F7008F10062
:101E70007108F2070310F00D0310F30C7308031D33
:101E8000422F432F322F720808000A128A15C927E1
:101E90000A128A158312031352080A128A1188241F
:101EA0000A128A15823083120313CB00DD30CA0078
:101EB000CA0B582FCB0B582F4A2F0A128A110C2805
:101EC0008316031318121815181398168312031388
:101ED00098171813181683160317871119308316CD
:101EE0000313990001309A0083120313200C831608
:101EF0000313031C8C1203188C1608008030831205
:101F00000313B7063B08A3003A08A2003908A10052
:101F10003808A0003708A7003608A6003508A50035
:101F20003408A4000A128A1123200A128A15831287
:101F300003132308B7002208B6002108B5002008C3
:101F4000B400080083120313A401A501201CA92FCB
:101F5000AA2FB02F2208A4070318A50A2308A50753
:101F600001300310A20DA30DFF3E031DB12F013060
:101F70000310A10CA00CFF3E031DB82F2008210464
:101F8000031DC32FC42FA62F2508A1002408A000DD
:101F90000800831603178901831603138501033094
:101FA0008600803087008801890144308100043038
:101FB0000A128A1188270A128A1583120313A001B4
:101FC000A00A00300A128A1560270A128A15033007
:101FD0000A128A11E6270A128A1583120313850151
:101FE00086018701880189012030831603138C0044
:101FF0008D01831203138C018D01C8308B00080002
:04400E00D420FF3F7C
:00000001FF
