:020000040000FA
:060000000A128A110C280F
:10000800FE00030EF8000A08F9000A128A117C297A
:100018000A128A110F28F001F101F201F301F4012B
:10002800F50183010A128A11582A83120313A300C7
:100038009F181F2820281029D9282303031D2528A5
:1000480026282928C3309F0510291F08C3390438DA
:100058009F00102902302306031D3328342837282F
:10006800C3309F0510291F08C33908389F0010297D
:1000780003302306031D412842284528C3309F0525
:1000880010291F08C3390C389F0010290430230693
:10009800031D4F2850285328C3309F0510291F08D7
:1000A800C33910389F00102905302306031D5D2829
:1000B8005E286128C3309F0510291F08C3391438EA
:1000C8009F00102906302306031D6B286C286F2813
:1000D800C3309F0510291F08C33918389F001029FD
:1000E80007302306031D79287A287D28C3309F0509
:1000F80010291F08C3391C389F001029083023060F
:10010800031D872888288B28C3309F0510291F08BE
:10011800C33920389F00102909302306031D95286C
:1001280096289928C3309F0510291F08C3392438F9
:100138009F0010290A302306031DA328A428A728F6
:10014800C3309F0510291F08C33928389F0010297C
:100158000B302306031DB128B228B528C3309F05EC
:1001680010291F08C3392C389F0010290C3023068A
:10017800031DBF28C028C328C3309F0510291F08A6
:10018800C33930389F0010290D302306031DCD28B0
:10019800CE28D128C3309F0510291F08C339343809
:1001A8009F001029C3309F0510291F0CA000200CA8
:1001B8000F39A100A2012208003A0319E4281029E6
:1001C8002108003A03192128013A03192E28033A75
:1001D80003193C28013A03194A28073A03195828F1
:1001E800013A03196628033A03197428013A0319D6
:1001F80082280F3A03199028013A03199E28033AD6
:100208000319AC28013A0319BA28073A0319C82870
:10021800013A0319D6281029313083120313A0009C
:10022800A00B1429831203139F14080083120313CD
:10023800A200831603130F145729831603130F16EE
:100248008F160F177B29831603130F128F160F179C
:100258007B29831603130F168F120F177B2983161A
:1002680003130F128F120F177B29831603130F1214
:100278008F160F177B29831603130F128F160F1370
:100288007B29831603130F168F120F137B298316EE
:1002980003130F128F160F177B29831603130F12E0
:1002A8008F160F177B29831203132208A000A101C0
:1002B8002108003A0319612951292008013A031934
:1002C8003329033A03192D29063A031927290C3A29
:1002D80003192129043A03194529153A03193F2915
:1002E800063A03194B292D3A0319392951290800CF
:1002F8000B1D7F29802981290B11831203130C1CE4
:100308008629872988290C100C1F8B298C299F295D
:100318001F0CF700770C0F39003A031D9429952913
:100328009A291E08F7007708F1009E291E08F70091
:100338007708F0000C138C1DA229A329C629F20105
:100348000A128A116D220A128A11F7007708F20040
:100358007203031DB029B129B72971080A128A113D
:100368007D220A128A1102307206031DBC29BD299A
:10037800C32970080A128A117D220A128A1183126F
:1003880003138C1179088A00780E8300FE0E7E0E06
:100398000900831603178901233083160313850088
:1003A8008601183087008801890183120313A00190
:1003B80003300A128A1114220A128A1183160313AF
:1003C80095019601C43081008312031390010C102B
:1003D8003C308F00B0308E0004300A128A111A2186
:1003E8000A128A1183120313A001A101A201243069
:1003F8000A128A1139220A128A11831203138501FB
:1004080086018701880189014830831603138C000F
:100418008D01831203138C018D01C0308B000800FD
:1004280083120313A2002208831603178800890188
:10043800C330831203139F05203083120313A100D6
:10044800A10B242A0000831203131F141F083F392D
:1004580040389F00200C83160313031C9F130318B6
:100468009F171F129F120C17080083120313A30073
:10047800831603130716871283120313231D452AB5
:10048800462A4C2A22088316031394008715522AF9
:100498002008220483160313940087118312031380
:1004A80023082104940008000A128A11CD210A1297
:1004B8008A1102300A128A1119200A128A11710847
:1004C800831203138600700888005D2A0A128A11B5
:1004D8000C280A128A1176220A128A11831203132F
:1004E8001308080083160313141C7B2A7C2A762A17
:0E04F8000800F6007608831203139300080034
:04400E00D420FF3F7C
:00000001FF
