:020000040000FA
:060000000A128A110C280F
:10000800FE00030EF0000A08F1000A128A15BC2946
:100018000A128A110F28F901FA01FB01831203134E
:10002800E901EA01EB01EC01ED01EE0183010A129D
:100038008A11072E831203132D088039B200320863
:10004800B7002D08B2003207B3003308BD00AC1F5B
:100058002E282F2830283D143D0803193428352828
:1000680044283D0A031D39283A2842280030AD00AB
:100078000030AC000030AB000030AA00AC174C28B0
:100088000030AD000030AC000030AB000030AA00FA
:1000980031088039B2003208B7063108B200320799
:1000A800B3003308B800B01F5A285B285C283814FE
:1000B80038080319602861287028380A031D652844
:1000C80066286E280030B1000030B0000030AF0064
:1000D8000030AE00B01778280030B1000030B00012
:1000E8000030AF000030AE00380803197C287D28A6
:1000F80082283D08031D812882288B280030AD0006
:100108000030AC000030AB000030AA007E2B2A087B
:10011800B2003208F20030080A128A15BB220A120D
:100128008A11730883120313C3007208C2004208BD
:10013800B200B301B401B5013508BC003408BB00F6
:100148003308BA003208B9004308B200B301B40159
:10015800B5013508C1003408C0003308BF003208B3
:10016800BE002B08B2003208F2002F080A128A15C6
:10017800BB220A128A11730883120313C300720880
:10018800C2004208B200B301B401B5013208B90790
:10019800330803110318013E0319D328BA0734089A
:1001A80003110318013E0319DA28BB0735080311A8
:1001B8000318013E0319E128BC074308B200B30144
:1001C800B401B5013208BE07330803110318013E14
:1001D8000319EF28BF07340803110318013E031958
:1001E800F628C007350803110318013E0319FD2836
:1001F800C1072C08B2003208F2002E080A128A152C
:10020800BB220A128A11730883120313C3007208EF
:10021800C2004208B200B301B401B5013208B907FF
:10022800330803110318013E03191B29BA073408C0
:1002380003110318013E03192229BB0735080311CE
:100248000318013E03192929BC074308B200B3016A
:10025800B401B5013208BE07330803110318013E83
:1002680003193729BF07340803110318013E03197E
:100278003E29C007350803110318013E0319452913
:10028800C1070830B2000310B90DBA0DBB0DBC0D83
:10029800B20B47292B08B2003208F2002E080A12C6
:1002A8008A15BB220A128A11730883120313C3002A
:1002B8007208C2004208B2004308B300B401B50195
:1002C8003208B907330803110318013E03196D29D1
:1002D800BA07340803110318013E03197429BB0730
:1002E800350803110318013E03197B29BC072A08A6
:1002F800B2003208F2002F080A128A15BB220A122D
:100308008A11730883120313C3007208C2004208DB
:10031800B2004308B300B401B5013208B907330885
:1003280003110318013E03199A29BA073408031167
:100338000318013E0319A129BB0735080311031847
:10034800013E0319A829BC070830B2000310B90DF3
:10035800BA0DBB0DBC0DB20BAA292A08B20032088F
:10036800F2002E080A128A15BB220A128A11730893
:1003780083120313C3007208C2004208B200430884
:10038800B300B401B5013208B907330803110318E3
:10039800013E0319D029BA07340803110318013E96
:1003A8000319D729BB07350803110318013E0319A0
:1003B800DE29BC072B08B2003208F20030080A1206
:1003C8008A15BB220A128A11730883120313C30009
:1003D8007208C2004208B2004308B300B401B50174
:1003E8003208BE07330803110318013E0319FD291B
:1003F800BF07340803110318013E0319042AC00774
:10040800350803110318013E03190B2AC1072C08EC
:10041800B2003208F2002F080A128A15BB220A120B
:100428008A11730883120313C3007208C2004208BA
:10043800B2004308B300B401B5013208BE0733085F
:1004480003110318013E03192A2ABF0734080311B0
:100458000318013E0319312AC00735080311031890
:10046800013E0319382AC1072C08B2003208F200ED
:1004780030080A128A15BB220A128A1173088312DD
:100488000313C3007208C2004208B2004308B30055
:10049800B401B50108300310B20DB30DB40DB50D9C
:1004A800FF3E031D4F2A3208BE0733080311031805
:1004B800013E0319602ABF07340803110318013EDF
:1004C8000319672AC007350803110318013E0319E9
:1004D8006E2AC1073908B2003A08B3003B08B400D5
:1004E8003C08B50018300310B50CB40CB30CB20CB2
:1004F800FF3E031D772A3208BE073308031103188D
:10050800013E0319882ABF07340803110318013E66
:1005180003198F2AC007350803110318013E031970
:10052800962AC1070830B2000310B90DBA0DBB0DE9
:10053800BC0DB20B982A3D083807B200B301B30DC1
:100548003208823EC20033080318013EFF3EC30052
:10055800CA2A0130B2000310BE0DBF0DC00DC10D77
:10056800B20BAF2ABC1FB92ABA2ABB2A3E140130E3
:10057800B2000310B90DBA0DBB0DBC0DB20BBD2AEC
:10058800FF30C2070318C30AFF30C307C01FCD2AB4
:10059800CE2AAD2AB801BC1FD22AD32AEF2AFF30AF
:1005A8003905B200FF303A05B300FF303B05B4000F
:1005B8007F303C05B5003508340433043204031990
:1005C800E62AE72AEA2AB801B80AEF2A3E1CED2AE9
:1005D800EE2AEF2AE72A38080319F32AF42A252BEA
:1005E8000130BE07003003180130BF070030031880
:1005F8000130C007003003180130C107411C052B2A
:10060800062B252B3E08B2003F08B3004008B40073
:100618004108B5000130B600350DB50CB40CB30C6B
:10062800B20CB60B102B3508C1003408C0003308D3
:10063800BF003208BE000130C2070318C30A0030E9
:10064800C3074308803AFF0080307F02031D2E2B2A
:10065800FF304202031C312B322B3D2B7F3083129B
:100668000313C1008030C0000030BF000030BE005E
:10067800722B831203134308803AFF0080307F02F5
:10068800031D482B0130420203184B2B4C2B582BCF
:10069800003083120313C1000030C0000030BF00D7
:1006A8000030BE00B701722B831203134208B20058
:1006B8003208BD00FF30BE05FF30BF057F30C005E2
:1006C8000030C1053D1C692B6A2B6B2BC0173D08F8
:1006D800B2000310320CB3003308C1003708B2006F
:1006E8003208C1044108AD004008AC003F08AB0027
:1006F8003E08AA0008008312031347088039CC007B
:100708004C08D4004708CC004C07CD004D08D60053
:10071800C61F8F2B902B912B561456080319952B17
:10072800962BA62B560A031D9A2B9B2BA32B003026
:10073800C7000030C6000030C5000030C400C6172E
:10074800C701AE2B0030C7000030C6000030C5001E
:100758000030C4004B088039CC004C08D50055083F
:1007680054060319B82BB92BBA2B54174B08CC00D5
:100778004C07CD004D08D500CA1FC32BC42BC52B71
:10078800551455080319C92BCA2BDA2B550A031D12
:10079800CE2BCF2BD72B0030CB000030CA00003037
:1007A800C9000030C800CA17CB01E22B0030CB00CB
:1007B8000030CA000030C9000030C8005608550291
:1007C8000318E72BE82B2C2C541FEB2BEC2BF02BCE
:1007D8008030CC004C08D4065608CC004C08D70012
:1007E8005508CC004C08D6005708CC004C08D5005A
:1007F8004408CC004C08D7004808CC004C08C4007A
:100808005708CC004C08C8004508CC004C08D70055
:100818004908CC004C08C5005708CC004C08C90052
:100828004608CC004C08D7004A08CC004C08C60043
:100838005708CC004C08CA004708CC004C08D70021
:100848004B08CC004C08C7005708CC004C08CB001C
:10085800D7015508CC00CD014D08CF0056084C02F1
:10086800CE00031CCF034F08803AFF0080307F0280
:10087800031D402C1A304E02031C432C442C812C9F
:10088800831203134708460445044404031D4D2CF2
:100898004F2C0130502C0030CC004C08D7000030D1
:1008A800C7000030C6000030C5000030C40055083D
:1008B800CC004C08D600892C571C632C642C6D2C5A
:1008C8005708CC0003104C0C0138CD004D08D70058
:1008D8006F2C0310D70C441C722C732C742CD71754
:1008E8000130CC00470DC70CC60CC50CC40CCC0B92
:1008F800762C0130CC004C08D60783120313550818
:100908005602031C882C892C602C541B8C2C8D2C93
:10091800D82C5608031D912C922C9B2C0030C70014
:100928000030C6000030C5000030C400062E48085C
:10093800C407490803110318013E0319A42CC5076D
:100948004A0803110318013E0319AB2CC6074B08CC
:1009580003110318013E0319B22CC707471CB52C15
:10096800B62C8C2D571CB92CBA2CC32C5708CC008C
:1009780003104C0C0138CD004D08D700C52C0310CE
:10098800D70C441CC82CC92CCA2CD7170130CC0052
:10099800470DC70CC60CC50CC40CCC0BCC2C0130B5
:1009A800CC004C08D6078C2D4708803AFF004B082E
:1009B800803A7F02031DEA2C4A084602031DEA2CEE
:1009C80049084502031DEA2C480844020318ED2C87
:1009D800EE2C462DFF30CC00FF30CD00FF30CE008E
:1009E800FF30CF004808D0004908D1004A08D2009B
:1009F8004B08D3004408D0024508031C450F052DB9
:100A0800062DD1024608031C460F0B2D0C2DD202D1
:100A18004708031C470F112D122DD3025008CC078D
:100A280051080318510F192D1A2DCD075208031814
:100A3800520F1F2D202DCE0753080318530ACF0736
:100A48004F08C7004E08C6004D08C5004C08C40032
:100A58008030CC004C08D406D709D70A5708031DA4
:100A6800362D372D542D0130C407003003180130BE
:100A7800C507003003180130C607003003180130DD
:100A8800C707542D4808C4024908031C490FC5026A
:100A98004A08031C4A0FC6024B08031C4B0FC70227
:100AA8004708460445044404031D5B2D5C2D882D2E
:100AB8005708031D602D612D882D0030C7000030B8
:100AC800C6000030C5000030C400062E0130CC003E
:100AD8000310C40DC50DC60DC70DCC0B6C2DD71F4B
:100AE800762D772D782D4414571C7B2D7C2D7F2D4A
:100AF8000314D70D812D0310D70D56080319852D22
:100B0800862D882D0130D602C61F8B2D8C2D6A2D7F
:100B1800D501D71F902D912D9F2D57087F39031987
:100B2800962D972D9A2DD501D50A9F2D441C9D2DC4
:100B38009E2D9F2D972D55080319A32DA42DD82D33
:100B48000130C407003003180130C507003003180E
:100B58000130C607003003180130C707471CB52D00
:100B6800B62DD82D4408CC004508CD004608CE0047
:100B78004708CF000130D0004F0DCF0CCE0CCD0C64
:100B8800CC0CD00BC02D4F08C7004E08C6004D082E
:100B9800C5004C08C400560A0319D32DD42DD82DEE
:100BA8000130CC004C08D607560A0319DC2DDD2D80
:100BB800E22D5608031DE12DE22DF02D0030C7006F
:100BC8000030C6000030C5000030C4005608031DC0
:100BD800EE2DEF2DF02DD401561CF32DF42DF62D0E
:100BE800C617FA2D7F30CC004C08C6055608CC0035
:100BF80003104C0CCD004D08C700D41F042E052E41
:100C0800062EC71708000A128A15E4220A128A114A
:100C18000A128A1596230A128A110A128A15EC21D9
:100C28000A128A11F601F60A01300A128A15DD2322
:100C38000A128A1101300A128A1592220A128A119E
:100C48000A128A15C3210A128A117130F200003083
:100C5800F3000A128A15D5210A128A1100300A12E5
:100C68008A156A220A128A1183120313E60066089B
:100C7800EC000A128A15CC210A128A11023083125A
:100C88000313E8000430E700B930E600E60B4A2E0B
:100C9800E70B4A2EE80B4A2E512E0A128A15C32159
:100CA8000A128A115130F2000030F3000A128A1534
:100CB800D5210A128A1100300A128A156A220A12EC
:100CC8008A1183120313E6006608ED000A128A15DA
:100CD800CC210A128A11023083120313E80004306F
:100CE800E700B930E600E60B772EE70B772EE80B26
:100CF800772E7E2E0A128A15C3210A128A11803095
:100D0800F2000030F3000A128A15D5210A128A115E
:100D1800F330F2000030F3000A128A15D5210A12C6
:100D28008A110A128A15CC210A128A1102308312FA
:100D38000313E8000430E700B930E600E60BA22E02
:100D4800E70BA22EE80BA22EA92E0A128A15C321A0
:100D58000A128A118130F2000030F3000A128A1553
:100D6800D5210A128A1100300A128A156A220A123B
:100D78008A1183120313E6006608EE000A128A1528
:100D8800CC210A128A11023083120313E8000430BE
:100D9800E700B930E600E60BCF2EE70BCF2EE80BC5
:100DA800CF2ED62E8312031306080A128A15DE25C3
:100DB8000A128A11F601F60A02300A128A15DD2390
:100DC8000A128A118312031369080A128A15282243
:100DD8000A128A1118300A128A1592220A128A11E6
:100DE800831203136A080A128A1528220A128A1122
:100DF800831203136B080A128A1528220A128A1111
:100E080012300A128A1592220A128A1102308312AB
:100E18000313E8000430E700B930E600E60B122FB0
:100E2800E70B122FE80B122F192F831203136C08EC
:100E38000A128A119C270A128A118312031369085D
:100E48000A128A1528220A128A11831203136A08C1
:100E58000A128A1528220A128A11831203136B08B0
:100E68000A128A1528220A128A1112300A128A15C1
:100E780092220A128A11023083120313E800043006
:100E8800E700B930E600E60B472FE70B472FE80BE2
:100E9800472F4E2F831203136E080A128A158E26C7
:100EA8000A128A118312031369080A128A15282262
:100EB8000A128A11831203136A080A128A15282251
:100EC8000A128A11831203136B080A128A15282240
:100ED8000A128A1115300A128A1592220A128A11E8
:100EE800023083120313E8000430E700B930E6004B
:100EF800E60B7C2FE70B7C2FE80B7C2F832F8312CC
:100F080003136D0886006E088500023083120313F0
:100F1800E8000430E700B930E600E60B912FE70B54
:100F2800912FE80B912F982F162E0A128A110C2850
:100F380083120313A4002408F7007708A50064307F
:100F4800F2000030F3002508F400F501F41BF50366
:100F58000A128A15F9240A128A117208F70077080A
:100F680083120313E9009C30F7007708F200690840
:100F78000A128A15F9210A128A1183120313250706
:100F8800F8007808A5000A30F2000030F3002508C0
:100F9800F400F501F41BF5030A128A15F9240A1264
:100FA8008A117208F700770883120313EA00F630F3
:100FB800F7007708F2006A080A128A15F9210A125E
:100FC8008A11831203132507F8007808A50025085D
:100FD800F7007708EB006908303EF7007708E9006A
:100FE8006A08303EF7007708EA006B08303EF700E1
:060FF8007708EB00080081
:1010000008308A000408840A8207003441344434DA
:1010100043343A34203443344F344E3454343A3425
:101020002034543445344D3450343A340034203470
:0E103000203400344334203400342E34003495
:10136C00F2007208831203138800080071088A00C7
:10137C00700E8300FE0E7E0E09000A128A15DF2104
:10138C000A128A1583160313111408000A128A15FF
:10139C00DF210A128A1583160313111508000A128D
:1013AC008A15DF210A128A1572088312031393001F
:1013BC000800831603131419E429E529DF29110801
:1013CC001F39031DEA29EB29DF29080000300A1216
:1013DC008A150E220A128A1501300A128A150E225B
:1013EC000A128A150800F500F401751CFE29FF2964
:1013FC00032A7208F3007308F4070310F20D0310AC
:10140C00F50C7508031D0B2A0C2AFB29740808001F
:10141C00F50083120313871375080A128A15B62177
:10142C000A128A158312031389140630F400303023
:10143C00F300F30B1F2AF40B1F2A00008312031373
:10144C0089100800F4007408F3007308F50075089F
:10145C00F3007308F60083120313871776080A1239
:10146C008A15B6210A128A158312031389140D30BA
:10147C00F300F30B3F2A8312031389100800F601C3
:10148C00F701721C4A2A4B2A512A7408F6070318D2
:10149C00F70A7508F70701300310F40DF50DFF3E40
:1014AC00031D522A01300310F30CF20CFF3E031DF6
:1014BC00592A72087304031D642A652A472A77087F
:1014CC00F3007608F2000800F3000A128A15DF21F7
:1014DC000A128A158316031391150A128A15DF2135
:1014EC000A128A15831203131308F2007208F4000F
:1014FC000A128A15DF210A128A157303031D872A23
:10150C00882A8C2A8316031391128F2A83160313AD
:10151C00911611167408080083120313A200A0017F
:10152C00A101AD2A2008220784000A128A15002086
:10153C000A128A150A128A1528220A128A150130F3
:10154C0083120313A0070318A10A0030A107200877
:10155C00220784000A128A1500200A128A15003A02
:10156C00031DB92ABA2A982A080083120313A4006F
:10157C00A001A1017208F400F5017408A20075081D
:10158C00A300241CCA2ACB2AD12A2208A00703189C
:10159C00A10A2308A10701300310A20DA30DFF3EE1
:1015AC00031DD22A0310A40C2408031DDE2ADF2AF3
:1015BC00C72A2108F3002008F2000800831603173D
:1015CC00890183160313850186018701880189012E
:1015DC00C430810004300A128A1535240A128A1587
:1015EC00003083120313AB000130AA008630A9002F
:1015FC00A030A8000A128A1516230A128A15831223
:10160C000313850186018701880189018316031361
:10161C008C018D01831203138C018D018B01080049
:10162C002830831203139400831603139101831241
:10163C0003132808AC002908AD002A08AE002B08BB
:10164C00AF0002300310AC0DAD0DAE0DAF0DFF3E73
:10165C00031D282B2F08A3002E08A2002D08A10083
:10166C002C08A0000030A7003D30A6000930A500D2
:10167C000030A4000A128A1591240A128A158312CA
:10168C0003132008FF3E8316031393009401871560
:10169C000716080083120313A101A2017208730438
:1016AC000319592B5A2B912BA001A00A682B01303E
:1016BC000310F20DF30DFF3E031D5E2B0130F600FF
:1016CC007608A007F31F6B2B6C2B5D2B01300310DE
:1016DC00A10DA20DFF3E031D6D2B73087502031D9A
:1016EC00792B72087402031C7C2B7D2B842B7208C3
:1016FC00F4027308031CF503F502211401300310E6
:10170C00F30CF20CFF3E031D852B0130A002031DD0
:10171C00902B912B6C2B2208F3002108F20008006F
:10172C0000300A128A15B6210A128A151A30F700EF
:10173C00F830F600F60BA02BF70BA02B0000303086
:10174C000A128A150E220A128A150730F7007D300C
:10175C00F600F60BAF2BF70BAF2B30300A128A15B5
:10176C000E220A128A154230F600F60BBB2B000033
:10177C0030300A128A150E220A128A153C300A12CF
:10178C008A150E220A128A1508300A128A150E22A0
:10179C000A128A1501300A128A150E220A128A15AB
:1017AC0006300A128A150E220A128A1508008312B4
:1017BC000313A0002003031DE42BE52B0A2C760851
:1017CC007F3EF7007708A3002308F70004300310CE
:1017DC00F70CFF3E031DED2B7708F8007808A100ED
:1017EC0023080F39F7007708A20021080A128A157E
:1017FC000E220A128A158312031322080A128A1562
:10180C000E220A128A15342C02302006031D0F2CCE
:10181C00102C342C7608BF3EF7007708A300230861
:10182C00F70004300310F70CFF3E031D182C77084B
:10183C00F8007808A1002308F039F7007708A20017
:10184C0021080A128A150E220A128A158312031312
:10185C0022080A128A150E220A128A150800F400B0
:10186C006D2C831603130F168F160F178F2C8316E0
:10187C0003130F128F160F178F2C831603130F16CB
:10188C008F120F178F2C831603130F128F120F1733
:10189C008F2C831603130F128F160F178F2C831692
:1018AC0003130F128F160F138F2C831603130F169F
:1018BC008F120F138F2C831603130F128F160F1703
:1018CC008F2C831603130F128F160F178F2C74087F
:1018DC00F200F3017308003A0319752C672C720897
:1018EC00013A0319492C033A0319432C063A0319FC
:1018FC003D2C0C3A0319372C043A03195B2C153A7E
:10190C000319552C063A0319612C2D3A03194F2C47
:10191C00672C0F1408000030F6000030F500003082
:10192C00F4000030F3008312031323082204210473
:10193C0020040319A22CA32CF02CF701F70AB32CCA
:10194C000130F2000310A00DA10DA20DA30DF20B9E
:10195C00A82C0130F2007208F707A31FB62CB72C85
:10196C00A62C0130F2000310F30DF40DF50DF60D5D
:10197C00F20BB92C23082702031DCE2C22082602B9
:10198C00031DCE2C21082502031DCE2C2008240279
:10199C00031CD12CD22CE12C2008A4022108031CFE
:1019AC00210FA5022208031C220FA6022308031CE8
:1019BC00230FA702731401300310A30CA20CA10C6B
:1019CC00A00CFF3E031DE22C0130F702031DEF2C8F
:1019DC00F02CB72C7608A3007508A2007408A1009F
:1019EC007308A000080083120313A101F31FFF2C3E
:1019FC00002D072DF209F309F20A0319F30AA101CC
:101A0C00A10AF51F0A2D0B2D142DF409F509F40A62
:101A1C000319F50A0130F6007608A106A201A3010C
:101A2C007208730403191B2D1C2D532DA001A00A41
:101A3C002A2D01300310F20DF30DFF3E031D202D56
:101A4C000130F6007608A007F31F2D2D2E2D1F2D2B
:101A5C0001300310A20DA30DFF3E031D2F2D7308A3
:101A6C007502031D3B2D72087402031C3E2D3F2D85
:101A7C00462D7208F4027308031CF503F5022214B8
:101A8C0001300310F30CF20CFF3E031D472D013007
:101A9C00A002031D522D532D2E2D21080319572D55
:101AAC00582D5D2DA209A309A20A0319A30A230824
:101ABC00F3002208F20008000310831203135A0DDE
:101ACC005B0DDC005C08F7007708031D6E2D6F2D95
:101ADC00782D0030DB000030DA000030D900003007
:101AEC00D800DD2D5808DC005908DD005A08DE004E
:101AFC005B08DF001F300310DF0CDE0CDD0CDC0C90
:101B0C00FF3E031D812D5C08E0006008F600DA172B
:101B1C00FF30D805FF30D905FF30DA050030DB0582
:101B2C009630F702F71F9B2D9C2DB62D7708803A27
:101B3C00973E0318A22DA32DA42D6F2D0130031059
:101B4C00DB0CDA0CD90CD80CFF3E031DA52D013093
:101B5C00DC005C08F707031DB42DB52DA42DCD2D8D
:101B6C0020307702031CBB2DBC2DC82D6F2D0130EE
:101B7C00DC000310D80DD90DDA0DDB0DDC0BBF2DFD
:101B8C000130F7027708031DCC2DCD2DBD2D760825
:101B9C000319D12DD22DDD2DD809D909DA09DB098C
:101BAC00D80A0319D90A0319DA0A0319DB0A08003F
:101BBC0083120313E3006308E100E2016108E4000F
:101BCC006208E5006408F2006508F300F401F50111
:101BDC0000300A128A1544270A128A1575088312D6
:101BEC000313B1007408B0007308AF007208AE00A4
:101BFC003F30AD00FA30AC00E130AB004830AA0009
:101C0C000A128A111E200A128A15831203132D0838
:101C1C00DB002C08DA002B08D9002A08D8000A129D
:101C2C008A1562250A128A15831203135908E500D6
:101C3C005808E4006430F2000030F3006508F50049
:101C4C006408F4000A128A1550230A128A157208C5
:101C5C0083120313E1006108E9006908E100E20165
:101C6C006108F2006208F3009C30F400FF30F500CC
:101C7C000A128A1545220A128A1583120313640864
:101C8C007207E40065080318650A7307E5000A305B
:101C9C00F2000030F3006508F5006408F4000A1245
:101CAC008A1550230A128A15720883120313E10055
:101CBC006108EA006A08E100E2016108F2006208CA
:101CCC00F300F630F400FF30F5000A128A154522B5
:101CDC000A128A158312031364087207E40065085C
:101CEC000318650A7307E5006408E1006108EB005E
:101CFC006908303EE1006108E9006A08303EE10005
:101D0C006108EA006B08303EE1006108EB00080056
:101D1C0083120313E4006408E100E201E11BE20317
:101D2C006108F2006208F3000030F31BFF30F4008E
:101D3C00F50001300A128A1544270A128A15750813
:101D4C0083120313B1007408B0007308AF0072085B
:101D5C00AE003F30AD003330AC003330AB0033302D
:101D6C00AA000A128A111E200A128A158312031362
:101D7C002D08CB002C08CA002B08C9002A08C80063
:101D8C00C230C7003C30C6000030C5000030C40073
:101D9C000A128A117F230A128A1583120313470829
:101DAC00DB004608DA004508D9004408D8000A12BE
:101DBC008A1562250A128A15831203135808E30048
:101DCC006308E5006430F2000030F3006508F400AD
:101DDC00F501F41BF5030A128A15F9240A128A1567
:101DEC00720883120313E1006108E9009C30E100E2
:101DFC006108F20069080A128A15F9210A128A157B
:101E0C00831203136507E2006208E5000A30F20052
:101E1C000030F3006508F400F501F41BF5030A1219
:101E2C008A15F9240A128A15720883120313E10029
:101E3C006108EA00F630E1006108F2006A080A1253
:101E4C008A15F9210A128A15831203136507E20019
:101E5C006208E5006508E1006108EB006908303EA6
:101E6C00E1006108E9006A08303EE1006108EA001F
:101E7C006B08303EE1006108EB000800831203138D
:101E8C00A400240803194B2F4C2F602FF51F4F2F44
:101E9C00502F602F7209A6007309A7007409A800BF
:101EAC007509A900A60A0319A70A0319A80A031998
:101EBC00A90A682F7508A9007408A8007308A70060
:101ECC007208A6007508740473047204031D6F2F46
:101EDC00702F792F0030F5000030F4000030F30043
:101EEC000030F200FF2F9630A0002008A5008B2FA9
:101EFC000130A0002008A50701300310A90CA80C84
:101F0C00A70CA60CFF3E031D832FFE302905031DD5
:101F1C00902F912F7E2FAD2F0130A0002008A50708
:101F2C000130A607003003180130A7070030031852
:101F3C000130A807003003180130A9070130031045
:101F4C00A90CA80CA70CA60CFF3E031DA52FFF3057
:101F5C002905031DB22FB32F922FBF2F0130A502DD
:101F6C000130A0000310A60DA70DA80DA90DA00B04
:101F7C00B82FA81BC22FC32FC92F0230250203185C
:101F8C00C82FC92FB42F2518CC2FCD2FD52FFF300C
:101F9C00A605FF30A7057F30A805FF30A905031063
:101FAC00A50C2508A000A101A201A3011830031063
:101FBC00A00DA10DA20DA30DFF3E031DDD2F2008CA
:101FCC00A6042108A7042208A8042308A9042408AD
:101FDC000319F12FF22FF72FF51FF52FF62FF72FEF
:101FEC00A9172908F5002808F4002708F30026088B
:041FFC00F2000800E7
:04400E00D420FF3F7C
:00000001FF
