:020000040000FA
:060000000A128A110C280F
:10000800FE00030EF0000A08F1000A128A11D32C30
:100018000A128A110F280A128A11E0240A128A1178
:10002800BA00B101B201B301B401B501B601B7011B
:10003800B801B901FA01FB0183010A128A112428C7
:100048000A128A11A3230A128A110A128A111B237F
:100058000A128A110A128A119D240A128A11F601BB
:10006800F60A01300A128A11C3220A128A111730BD
:100078000A128A112C240A128A1101300A128A11D2
:1000880003240A128A11033083120313B0000830C4
:10009800AF007630AE00AE0B4F28AF0B4F28B00B39
:1000A8004F2800000A128A11CA240A128A117130D4
:1000B800F2000030F3000A128A11B7240A128A11DA
:1000C8000030F200F3000A128A11D5230A128A11AD
:1000D800720883120313AE002E08B4000A128A11A4
:1000E800C1240A128A11033083120313B0000830A6
:1000F800AF007630AE00AE0B7F28AF0B7F28B00B79
:100108007F2800000A128A11CA240A128A11913023
:10011800F2000030F3000A128A11B7240A128A1179
:100128000030F200F3000A128A11D5230A128A114C
:10013800720883120313AE002E08B5000A128A1142
:10014800C1240A128A11033083120313B000083045
:10015800AF007630AE00AE0BAF28AF0BAF28B00BB8
:10016800AF2800008312031334080A128A111021E1
:100178000A128A11F601F60A02300A128A11C322FB
:100188000A128A118312031331080A128A112C24C5
:100198000A128A1115300A128A1103240A128A11C6
:1001A8007A080A128A112C240A128A11831203135C
:1001B80032080A128A112C240A128A1112300A12E1
:1001C8008A1103240A128A11033083120313B00020
:1001D8000830AF007630AE00AE0BF028AF0BF02839
:1001E800B00BF0280000831203133508860034088A
:1001F8008500033083120313B0000830AF00763057
:10020800AE00AE0B0529AF0B0529B00B0529000080
:100218002E280A128A110C28F90079088312031370
:10022800A6002608FB00F430A6002608F7007B0885
:10023800A700A8012708F4002808F500FF30F200FD
:100248000030F3000A128A1196210A128A117208E4
:100258000A128A1186240A128A1183120313A9002A
:100268002908FB006430F2000030F3007B08A60088
:10027800A7012608F4002708F5000A128A1196211A
:100288000A128A11720883120313A8002808B10001
:100298009C30A6002608F70031080A128A11862425
:1002A8000A128A117B0783120313A7002708FB0091
:1002B8000A30F2000030F3007B08A600A7012608E8
:1002C800F4002708F5000A128A1196210A128A11E9
:1002D800720883120313A8002808FA00F630A60053
:1002E8002608F7007A080A128A1186240A128A1147
:1002F8007B0783120313A7002708FB007B08A600CF
:100308002608B2003108303EA6002608B1007A0857
:10031800303EA6002608FA003208303EA60026081D
:10032800B200080083120313A101F31F9C299D2921
:10033800A429F209F309F20A0319F30AA101A10A8F
:10034800F51FA729A829B129F409F509F40A031901
:10035800F50A0130F6007608A106A201A301720889
:1003680073040319B829B929F029A001A00AC729DB
:1003780001300310F20DF30DFF3E031DBD290130BE
:10038800F6007608A007F31FCA29CB29BC2901303B
:100398000310A20DA30DFF3E031DCC29730875029F
:1003A800031DD82972087402031CDB29DC29E32900
:1003B8007208F4027308031CF503F50222140130D5
:1003C8000310F30CF20CFF3E031DE4290130A002D8
:1003D800031DEF29F029CB2921080319F429F52950
:1003E800FA29A209A309A20A0319A30A2308F300F8
:1003F8002208F2000800003083120313A400003022
:10040800A3000030A2000030A10075087404730432
:1004180072040319102A112A5E2AA501A50A212AA5
:100428000130A0000310F20DF30DF40DF50DA00B33
:10043800162A0130A0002008A507F51F242A252A1E
:10044800142A0130A0000310A10DA20DA30DA40DC4
:10045800A00B272A75087902031D3C2A7408780224
:10046800031D3C2A73087702031D3C2A7208760292
:10047800031C3F2A402A4F2A7208F6027308031CFD
:10048800730FF7027408031C740FF8027508031C35
:10049800750FF902211401300310F50CF40CF30C5C
:1004A800F20CFF3E031D502A0130A502031D5D2AF0
:1004B8005E2A252A2408F5002308F4002208F30000
:1004C8002108F2000800F4009F2A831603130F1670
:1004D8008F160F17C12A831603130F128F160F17C3
:1004E800C12A831603130F168F120F17C12A8316FA
:1004F80003130F128F120F17C12A831603130F123B
:100508008F160F17C12A831603130F128F160F1396
:10051800C12A831603130F168F120F13C12A8316CD
:1005280003130F128F160F17C12A831603130F1206
:100538008F160F17C12A7408F200F3017308003AE6
:100548000319A72A992A7208013A03197B2A033A40
:100558000319752A063A03196F2A0C3A0319692AEE
:10056800043A03198D2A153A0319872A063A0319FA
:10057800932A2D3A0319812A992A0F140800831205
:100588000313A0002003031DCA2ACB2AF02A7608E9
:100598007F3EF7007708A3002308F7000430031014
:1005A800F70CFF3E031DD32A7708F8007808A1004E
:1005B80023080F39F7007708A20021080A128A11C8
:1005C8006C240A128A118312031322080A128A1150
:1005D8006C240A128A111A2B02302006031DF52AF0
:1005E800F62A1A2B7608BF3EF7007708A3002308DF
:1005F800F70004300310F70CFF3E031DFE2A7708AE
:10060800F8007808A1002308F039F7007708A2005D
:1006180021080A128A116C240A128A118312031300
:1006280022080A128A116C240A128A11080034302E
:10063800F700F130F600F60B1F2BF70B1F2B242BBE
:1006480000300A128A11DA240A128A113430F700AB
:10065800F130F600F60B2E2BF70B2E2B332B303008
:100668000A128A116C240A128A110D30F700FB3025
:10067800F600F60B3D2BF70B3D2B422B30300A12C0
:100688008A116C240A128A118530F600F60B4A2B5F
:1006980030300A128A116C240A128A113C300A126C
:1006A8008A116C240A128A1108300A128A116C24E1
:1006B8000A128A1101300A128A116C240A128A114C
:1006C80006300A128A116C240A128A11080028308E
:1006D80083120313940083160313910183120313E7
:1006E8002608AA002708AB002808AC002908AD0096
:1006F80002300310AA0DAB0DAC0DAD0DFF3E031D6E
:100708007D2B2D08F5002C08F4002B08F3002A088F
:10071800F2000030F9007A30F8001230F7000030AB
:10072800F6000A128A11FF210A128A117208FF3E86
:100738008316031393009401871507160800831680
:100748000317890183160313850186018701880130
:100758008901C430810008300A128A1167220A12FE
:100768008A11003083120313A9000130A8008630D3
:10077800A700A030A6000A128A116B230A128A1158
:100788008312031385018601870188018901831675
:1007980003138C018D01831203138C018D018B01CE
:1007A80008000A128A11AA240A128A11831603134E
:1007B80091150A128A11AA240A128A1183120313A4
:1007C8001308F400F5017408F6007508F7000A121A
:1007D8008A11AA240A128A1172037304031DF52BC5
:1007E800F62BFA2B831603139112FD2B8316031392
:1007F800911611167708F3007608F20008008312A4
:100808000313A200A001A1011E2C200822078400C6
:100818000A128A114E240A128A110A128A112C24E9
:100828000A128A11013083120313A0070318A10AC0
:100838000030A1072008220784000A128A114E24DA
:100848000A128A11003A031D2A2C2B2C092C0800A5
:10085800F5007508F3007308F6007608F3007308CE
:10086800F70083120313091477080A128A11DA248D
:100878000A128A118312031389146830F400E430D1
:10088800F300F30B452CF40B452C000083120313E3
:100898008910080004308A000408840A820700349A
:1008A8004134443443343A34203443344F344E349E
:1008B80054343A342034543445344D3450343A3472
:1008C80000342034203400342E34003461340034B1
:1008D800F50083120313091075080A128A11DA2425
:1008E8000A128A118312031389140B30F400623040
:1008F800F300F30B7D2CF40B7D2C00008312031303
:100908008910080083120313A500A401251C8D2C4F
:100918008E2C922C7708F8007808A4070310F70D9E
:100928000310A50C2508031D9A2C9B2C8A2C24083F
:10093800080000300A128A116C240A128A11013048
:100948000A128A116C240A128A11080083160313EA
:100958001419AF2CB02CAA2C11081F39031DB52C63
:10096800B62CAA2C08000A128A11AA240A128A1183
:10097800720883120313930008000A128A11AA242A
:100988000A128A1183160313111508000A128A1114
:10099800AA240A128A118316031311140800710875
:1009A8008A00700E8300FE0E7E0E0900F2007208A7
:0A09B80083120313880008000A34BC
:04400E00D420FF3F7C
:00000001FF
