:020000040000FA
:060000000A128A110C280F
:10000800FE00030EF0000A08F1000A128A11BD2C46
:100018000A128A110F28FA01FB0183120313B10196
:10002800B201B301B401B501B601B701B80183014A
:100038000A128A111F280A128A1195230A128A1194
:100048000A128A1116230A128A110A128A1187249F
:100058000A128A11F601F60A01300A128A11BE2222
:100068000A128A1117300A128A1138240A128A11C0
:1000780001300A128A11F5230A128A1103308312F9
:100088000313B0000830AF007630AE00AE0B4A283C
:10009800AF0B4A28B00B4A2800000A128A11B42470
:1000A8000A128A117130F2000030F3000A128A1124
:1000B800A1240A128A110030F200F3000A128A11F0
:1000C800C7230A128A11720883120313AE002E087E
:1000D800B3000A128A11AB240A128A110330831260
:1000E8000313B0000830AF007630AE00AE0B7A28AC
:1000F800AF0B7A28B00B7A2800000A128A11B424B0
:100108000A128A119130F2000030F3000A128A11A3
:10011800A1240A128A110030F200F3000A128A118F
:10012800C7230A128A11720883120313AE002E081D
:10013800B4000A128A11AB240A128A1103308312FE
:100148000313B0000830AF007630AE00AE0BAA281B
:10015800AF0BAA28B00BAA28000083120313330898
:100168000A128A110B210A128A11F601F60A0230C4
:100178000A128A11BE220A128A1183120313310845
:100188000A128A1138240A128A1115300A128A11A1
:10019800F5230A128A117A080A128A1138240A12D7
:1001A8008A118312031332080A128A1138240A1298
:1001B8008A1112300A128A11F5230A128A110330A1
:1001C80083120313B0000830AF007630AE00AE0BD8
:1001D800EB28AF0BEB28B00BEB28000083120313BE
:1001E8003408860033088500033083120313B000F7
:1001F8000830AF007630AE00AE0B0029AF0B0029F7
:10020800B00B0029000029280A128A110C28F900CD
:10021800790883120313A6002608FB00F430A60011
:100228002608F7007B08A700A8012708F40028087B
:10023800F500FF30F2000030F3000A128A11912114
:100248000A128A1172080A128A1170240A128A1173
:1002580083120313A9002908FB006430F200003060
:10026800F3007B08A600A7012608F4002708F5007C
:100278000A128A1191210A128A1172088312031331
:10028800A8002808B1009C30A6002608F70031080D
:100298000A128A1170240A128A117B078312031327
:1002A800A7002708FB000A30F2000030F3007B08A3
:1002B800A600A7012608F4002708F5000A128A11EB
:1002C80091210A128A11720883120313A8002808C0
:1002D800FA00F630A6002608F7007A080A128A11F2
:1002E80070240A128A117B0783120313A7002708B8
:1002F800FB007B08A6002608B2003108303EA600A5
:100308002608B1007A08303EA6002608FA0032080E
:10031800303EA6002608B200080083120313A1018C
:10032800F31F972998299F29F209F309F20A03195B
:10033800F30AA101A10AF51FA229A329AC29F409EE
:10034800F509F40A0319F50A0130F6007608A10642
:10035800A201A301720873040319B329B429EB2974
:10036800A001A00AC22901300310F20DF30DFF3ECF
:10037800031DB8290130F6007608A007F31FC52928
:10038800C629B72901300310A20DA30DFF3E031D96
:10039800C72973087502031DD32972087402031C48
:1003A800D629D729DE297208F4027308031CF5033D
:1003B800F502221401300310F30CF20CFF3E031D6A
:1003C800DF290130A002031DEA29EB29C6292108EB
:1003D8000319EF29F029F529A209A309A20A03198B
:1003E800A30A2308F3002208F20008000030831251
:1003F8000313A4000030A3000030A2000030A100C5
:10040800750874047304720403190B2A0C2A592AF8
:10041800A501A50A1C2A0130A0000310F20DF30D56
:10042800F40DF50DA00B112A0130A0002008A50736
:10043800F51F1F2A202A0F2A0130A0000310A10D42
:10044800A20DA30DA40DA00B222A75087902031D85
:10045800372A74087802031D372A73087702031DA8
:10046800372A72087602031C3A2A3B2A4A2A72085B
:10047800F6027308031C730FF7027408031C740F49
:10048800F8027508031C750FF902211401300310D6
:10049800F50CF40CF30CF20CFF3E031D4B2A013053
:1004A800A502031D582A592A202A2408F5002308E2
:1004B800F4002208F3002108F2000800F4009A2A48
:1004C800831603130F168F160F17BC2A83160313F0
:1004D8000F128F160F17BC2A831603130F168F12CD
:1004E8000F17BC2A831603130F128F120F17BC2A7B
:1004F800831603130F128F160F17BC2A83160313C4
:100508000F128F160F13BC2A831603130F168F12A0
:100518000F13BC2A831603130F128F160F17BC2A4A
:10052800831603130F128F160F17BC2A7408F200D4
:10053800F3017308003A0319A22A942A7208013AAF
:100548000319762A033A0319702A063A03196A2A04
:100558000C3A0319642A043A0319882A153A03192C
:10056800822A063A03198E2A2D3A03197C2A942ADC
:100578000F14080083120313A0002003031DC52ACB
:10058800C62AEB2A76087F3EF7007708A3002308DF
:10059800F70004300310F70CFF3E031DCE2A77083E
:1005A800F8007808A10023080F39F7007708A2009F
:1005B80021080A128A1156240A128A118312031377
:1005C80022080A128A1156240A128A11152B02309F
:1005D8002006031DF02AF12A152B7608BF3EF700E6
:1005E8007708A3002308F70004300310F70CFF3E38
:1005F800031DF92A7708F8007808A1002308F039C4
:10060800F7007708A20021080A128A1156240A1254
:100618008A118312031322080A128A1156240A1215
:100628008A11080000300A128A11C4240A128A1199
:100638003430F700F130F600F60B202BF70B202BA7
:10064800252B30300A128A1156240A128A110D30CD
:10065800F700FB30F600F60B2F2BF70B2F2B342B64
:1006680030300A128A1156240A128A118530F6008F
:10067800F60B3C2B30300A128A1156240A128A11C2
:100688003C300A128A1156240A128A1108300A12BA
:100698008A1156240A128A1101300A128A11562424
:1006A8000A128A1106300A128A1156240A128A116D
:1006B8000800283083120313940083160313910152
:1006C800831203132608AA002708AB002808AC00E9
:1006D8002908AD0002300310AA0DAB0DAC0DAD0D0D
:1006E800FF3E031D6F2B2D08F5002C08F4002B0886
:1006F800F3002A08F2000030F9007A30F8001230CE
:10070800F7000030F6000A128A11FA210A128A113B
:100718007208FF3E8316031393009401871507168A
:1007280008008316031789018316031385018601C0
:10073800870188018901C430810008300A128A11B2
:1007480062220A128A11003083120313A9000130B1
:10075800A8008630A700A030A6000A128A115D23DF
:100768000A128A1183120313850186018701880101
:100778008901831603138C018D01831203138C01E5
:100788008D018B0108000A128A1194240A128A1119
:100798008316031391150A128A1194240A128A11D6
:1007A800831203131308F400F5017408F6007508A2
:1007B800F7000A128A1194240A128A117203730428
:1007C800031DE72BE82BEC2B831603139112EF2B59
:1007D80083160313911611167708F3007608F200B2
:1007E8000800F900F701F8010C2C77087907840054
:1007F8000A128A111A240A128A110A128A11382432
:100808000A128A110130F7070318F80A0030F807AE
:100818007708790784000A128A111A240A128A11A1
:10082800003A031D182C192CF92B080004308A00F3
:100838000408840A820700344134443443343A3487
:10084800203443344F344E3454343A3420345434FE
:1008580045344D3450343A34003420342034003494
:100868002E34003461340034F4007408F300730843
:10087800F5007508F3007308F600831203130914D2
:1008880076080A128A11C4240A128A1183120313E1
:1008980089141A30F300F30B4F2C00008312031352
:1008A80089100800F50083120313091075080A124D
:1008B8008A11C4240A128A118312031389140B3073
:1008C800F4006230F300F30B672CF40B672C000084
:1008D800831203138910080083120313A500A401CF
:1008E800251C772C782C7C2C7708F8007808A4072E
:1008F8000310F70D0310A50C2508031D842C852C67
:10090800742C2408080000300A128A1156240A128E
:100918008A1101300A128A1156240A128A11080013
:10092800831603131419992C9A2C942C11081F3927
:10093800031D9F2CA02C942C08000A128A119424C1
:100948000A128A11720883120313930008000A120C
:100958008A1194240A128A118316031311150800A8
:100968000A128A1194240A128A1183160313111485
:10097800080071088A00700E8300FE0E7E0E0900C2
:0C098800F20072088312031388000800BC
:04400E00D420FF3F7C
:00000001FF
