:020000040000FA
:060000000A128A110C280F
:10000800FE00030EF1000A08F2000A128A111828ED
:100018000A128A110F28F601F701F801F901FA010D
:1000280083010A128A1149290B1C1B281C283E2807
:10003800831203130618212822282D280130F000E6
:100048007008F80710307802031C2B282C282D285C
:10005800F8018618302831283D280130F802103080
:100068007802031C382839283D280F30F000700822
:10007800F8000B10831203138C1D432844289C2876
:100088001412141B482849284D28941F4C284D2821
:1000980054281308F0007008F90014139413141668
:1000A80083160313941A59285A28782814195D2896
:1000B8005E287828831203131308F0007008F900EB
:1000C8008C11141683160313141C6B286C286628CD
:1000D800831203131308F0007008F700A630F0002D
:1000E800F00B742800009928941A7B287C289928FA
:1000F800141D7F2880289928831203131308F00001
:100108007008F90083160313141078088312031378
:1001180093001416A630F000F00B90280000831608
:1001280003131418982899289328831203138C1101
:1001380072088A00710E8300FE0E7E0E0900F5001B
:10014800831603130F14CC280F168F160F17EE28DB
:100158000F128F160F17EE280F168F120F17EE2893
:100168000F128F120F17EE280F128F160F17EE2887
:100178000F128F160F13EE280F168F120F13EE287B
:100188000F128F160F17EE280F128F160F17EE2863
:100198007508F300F4017408003A0319D428C82834
:1001A8007308013A0319B428033A0319B028063A28
:1001B8000319AC280C3A0319A828043A0319C028D3
:1001C800153A0319BC28063A0319C4282D3A03190D
:1001D800B828C82808008316031789018316031353
:1001E800850103308600870188018901C4308100B8
:1001F80003300A128A113B210A128A1108300A12A6
:100208008A11A3200A128A1170300A128A11212138
:100218000A128A1183120313850186018701880156
:1002280089010830831603138C008D018312031390
:100238008C018D01C8308B000800F3007308831609
:10024800031393003630831203139400803083160F
:100258000313940001309100871507168B170B17AD
:10026800831203138C11831603138C150800F300F3
:1002780073088316031386007308950073089600A5
:1002880001087F3981008B1508000A128A11EF20B6
:100298000A128A1178088312031388004E290A1259
:0402A8008A110C2883
:04400E00D420FF3F7C
:00000001FF
